{
  "contractName": "TicketFactory",
  "abi": [
    {
      "inputs": [
        {
          "internalType": "string",
          "name": "name",
          "type": "string"
        },
        {
          "internalType": "string",
          "name": "symbol",
          "type": "string"
        },
        {
          "internalType": "uint256",
          "name": "tokenId",
          "type": "uint256"
        },
        {
          "internalType": "string",
          "name": "tokenURI",
          "type": "string"
        }
      ],
      "payable": false,
      "stateMutability": "nonpayable",
      "type": "constructor"
    },
    {
      "anonymous": false,
      "inputs": [
        {
          "indexed": true,
          "internalType": "address",
          "name": "owner",
          "type": "address"
        },
        {
          "indexed": true,
          "internalType": "address",
          "name": "approved",
          "type": "address"
        },
        {
          "indexed": true,
          "internalType": "uint256",
          "name": "tokenId",
          "type": "uint256"
        }
      ],
      "name": "Approval",
      "type": "event"
    },
    {
      "anonymous": false,
      "inputs": [
        {
          "indexed": true,
          "internalType": "address",
          "name": "owner",
          "type": "address"
        },
        {
          "indexed": true,
          "internalType": "address",
          "name": "operator",
          "type": "address"
        },
        {
          "indexed": false,
          "internalType": "bool",
          "name": "approved",
          "type": "bool"
        }
      ],
      "name": "ApprovalForAll",
      "type": "event"
    },
    {
      "anonymous": false,
      "inputs": [
        {
          "indexed": true,
          "internalType": "address",
          "name": "previousOwner",
          "type": "address"
        },
        {
          "indexed": true,
          "internalType": "address",
          "name": "newOwner",
          "type": "address"
        }
      ],
      "name": "OwnershipTransferred",
      "type": "event"
    },
    {
      "anonymous": false,
      "inputs": [
        {
          "indexed": true,
          "internalType": "address",
          "name": "from",
          "type": "address"
        },
        {
          "indexed": true,
          "internalType": "address",
          "name": "to",
          "type": "address"
        },
        {
          "indexed": true,
          "internalType": "uint256",
          "name": "tokenId",
          "type": "uint256"
        }
      ],
      "name": "Transfer",
      "type": "event"
    },
    {
      "constant": false,
      "inputs": [
        {
          "internalType": "address",
          "name": "to",
          "type": "address"
        },
        {
          "internalType": "uint256",
          "name": "tokenId",
          "type": "uint256"
        }
      ],
      "name": "approve",
      "outputs": [],
      "payable": false,
      "stateMutability": "nonpayable",
      "type": "function"
    },
    {
      "constant": true,
      "inputs": [
        {
          "internalType": "address",
          "name": "owner",
          "type": "address"
        }
      ],
      "name": "balanceOf",
      "outputs": [
        {
          "internalType": "uint256",
          "name": "",
          "type": "uint256"
        }
      ],
      "payable": false,
      "stateMutability": "view",
      "type": "function"
    },
    {
      "constant": true,
      "inputs": [
        {
          "internalType": "uint256",
          "name": "tokenId",
          "type": "uint256"
        }
      ],
      "name": "getApproved",
      "outputs": [
        {
          "internalType": "address",
          "name": "",
          "type": "address"
        }
      ],
      "payable": false,
      "stateMutability": "view",
      "type": "function"
    },
    {
      "constant": true,
      "inputs": [
        {
          "internalType": "address",
          "name": "owner",
          "type": "address"
        },
        {
          "internalType": "address",
          "name": "operator",
          "type": "address"
        }
      ],
      "name": "isApprovedForAll",
      "outputs": [
        {
          "internalType": "bool",
          "name": "",
          "type": "bool"
        }
      ],
      "payable": false,
      "stateMutability": "view",
      "type": "function"
    },
    {
      "constant": true,
      "inputs": [],
      "name": "isOwner",
      "outputs": [
        {
          "internalType": "bool",
          "name": "",
          "type": "bool"
        }
      ],
      "payable": false,
      "stateMutability": "view",
      "type": "function"
    },
    {
      "constant": true,
      "inputs": [],
      "name": "name",
      "outputs": [
        {
          "internalType": "string",
          "name": "",
          "type": "string"
        }
      ],
      "payable": false,
      "stateMutability": "view",
      "type": "function"
    },
    {
      "constant": true,
      "inputs": [],
      "name": "owner",
      "outputs": [
        {
          "internalType": "address",
          "name": "",
          "type": "address"
        }
      ],
      "payable": false,
      "stateMutability": "view",
      "type": "function"
    },
    {
      "constant": true,
      "inputs": [
        {
          "internalType": "uint256",
          "name": "tokenId",
          "type": "uint256"
        }
      ],
      "name": "ownerOf",
      "outputs": [
        {
          "internalType": "address",
          "name": "",
          "type": "address"
        }
      ],
      "payable": false,
      "stateMutability": "view",
      "type": "function"
    },
    {
      "constant": false,
      "inputs": [],
      "name": "renounceOwnership",
      "outputs": [],
      "payable": false,
      "stateMutability": "nonpayable",
      "type": "function"
    },
    {
      "constant": false,
      "inputs": [
        {
          "internalType": "address",
          "name": "from",
          "type": "address"
        },
        {
          "internalType": "address",
          "name": "to",
          "type": "address"
        },
        {
          "internalType": "uint256",
          "name": "tokenId",
          "type": "uint256"
        }
      ],
      "name": "safeTransferFrom",
      "outputs": [],
      "payable": false,
      "stateMutability": "nonpayable",
      "type": "function"
    },
    {
      "constant": false,
      "inputs": [
        {
          "internalType": "address",
          "name": "from",
          "type": "address"
        },
        {
          "internalType": "address",
          "name": "to",
          "type": "address"
        },
        {
          "internalType": "uint256",
          "name": "tokenId",
          "type": "uint256"
        },
        {
          "internalType": "bytes",
          "name": "_data",
          "type": "bytes"
        }
      ],
      "name": "safeTransferFrom",
      "outputs": [],
      "payable": false,
      "stateMutability": "nonpayable",
      "type": "function"
    },
    {
      "constant": false,
      "inputs": [
        {
          "internalType": "address",
          "name": "to",
          "type": "address"
        },
        {
          "internalType": "bool",
          "name": "approved",
          "type": "bool"
        }
      ],
      "name": "setApprovalForAll",
      "outputs": [],
      "payable": false,
      "stateMutability": "nonpayable",
      "type": "function"
    },
    {
      "constant": true,
      "inputs": [
        {
          "internalType": "bytes4",
          "name": "interfaceId",
          "type": "bytes4"
        }
      ],
      "name": "supportsInterface",
      "outputs": [
        {
          "internalType": "bool",
          "name": "",
          "type": "bool"
        }
      ],
      "payable": false,
      "stateMutability": "view",
      "type": "function"
    },
    {
      "constant": true,
      "inputs": [],
      "name": "symbol",
      "outputs": [
        {
          "internalType": "string",
          "name": "",
          "type": "string"
        }
      ],
      "payable": false,
      "stateMutability": "view",
      "type": "function"
    },
    {
      "constant": true,
      "inputs": [
        {
          "internalType": "uint256",
          "name": "index",
          "type": "uint256"
        }
      ],
      "name": "tokenByIndex",
      "outputs": [
        {
          "internalType": "uint256",
          "name": "",
          "type": "uint256"
        }
      ],
      "payable": false,
      "stateMutability": "view",
      "type": "function"
    },
    {
      "constant": true,
      "inputs": [
        {
          "internalType": "address",
          "name": "owner",
          "type": "address"
        },
        {
          "internalType": "uint256",
          "name": "index",
          "type": "uint256"
        }
      ],
      "name": "tokenOfOwnerByIndex",
      "outputs": [
        {
          "internalType": "uint256",
          "name": "",
          "type": "uint256"
        }
      ],
      "payable": false,
      "stateMutability": "view",
      "type": "function"
    },
    {
      "constant": true,
      "inputs": [
        {
          "internalType": "uint256",
          "name": "tokenId",
          "type": "uint256"
        }
      ],
      "name": "tokenURI",
      "outputs": [
        {
          "internalType": "string",
          "name": "",
          "type": "string"
        }
      ],
      "payable": false,
      "stateMutability": "view",
      "type": "function"
    },
    {
      "constant": true,
      "inputs": [],
      "name": "totalSupply",
      "outputs": [
        {
          "internalType": "uint256",
          "name": "",
          "type": "uint256"
        }
      ],
      "payable": false,
      "stateMutability": "view",
      "type": "function"
    },
    {
      "constant": false,
      "inputs": [
        {
          "internalType": "address",
          "name": "from",
          "type": "address"
        },
        {
          "internalType": "address",
          "name": "to",
          "type": "address"
        },
        {
          "internalType": "uint256",
          "name": "tokenId",
          "type": "uint256"
        }
      ],
      "name": "transferFrom",
      "outputs": [],
      "payable": false,
      "stateMutability": "nonpayable",
      "type": "function"
    },
    {
      "constant": false,
      "inputs": [
        {
          "internalType": "address",
          "name": "newOwner",
          "type": "address"
        }
      ],
      "name": "transferOwnership",
      "outputs": [],
      "payable": false,
      "stateMutability": "nonpayable",
      "type": "function"
    },
    {
      "constant": false,
      "inputs": [],
      "name": "testFunc",
      "outputs": [
        {
          "internalType": "bool",
          "name": "",
          "type": "bool"
        }
      ],
      "payable": false,
      "stateMutability": "nonpayable",
      "type": "function"
    }
  ],
  "bytecode": "0x60806040523480156200001157600080fd5b506040516200188d3803806200188d833981016040819052620000349162000542565b838381816200006c7f01ffc9a7000000000000000000000000000000000000000000000000000000006001600160e01b03620001b816565b620000a07f80ac58cd000000000000000000000000000000000000000000000000000000006001600160e01b03620001b816565b620000d47f780e9d63000000000000000000000000000000000000000000000000000000006001600160e01b03620001b816565b8151620000e990600990602085019062000434565b508051620000ff90600a90602084019062000434565b50620001347f5b5e139f000000000000000000000000000000000000000000000000000000006001600160e01b03620001b816565b5050600c80546001600160a01b0319163317908190556040516001600160a01b03919091169250600091507f8be0079c531659141344cd1fd0a4f28419497f9722a3daafe3b4186f6b6457e0908290a36200019933836001600160e01b036200022516565b620001ae82826001600160e01b036200026916565b505050506200068f565b7fffffffff000000000000000000000000000000000000000000000000000000008082161415620001e857600080fd5b7fffffffff00000000000000000000000000000000000000000000000000000000166000908152602081905260409020805460ff19166001179055565b6200023c8282620002ad60201b620010f91760201c565b6200025182826001600160e01b036200037916565b62000265816001600160e01b03620003b716565b5050565b6200027d826001600160e01b03620003fb16565b6200028757600080fd5b6000828152600b602090815260409091208251620002a89284019062000434565b505050565b6001600160a01b038216620002c157600080fd5b620002d5816001600160e01b03620003fb16565b15620002e057600080fd5b600081815260016020818152604080842080546001600160a01b0319166001600160a01b038816908117909155845260038252909220546200032e9290919062000418811b62000c5817901c565b6001600160a01b0383166000818152600360205260408082209390935591518392907fddf252ad1be2c89b69c2b068fc378daa952ba7f163c4a11628f55a4df523b3ef908290a45050565b6001600160a01b0390911660009081526005602081815260408084208054868652600684529185208290559282526001810183559183529091200155565b600780546000838152600860205260408120829055600182018355919091527fa66cc928b5edb82af9bd49922954155ab7b0942694bea4ce44661d9a8736c6880155565b6000908152600160205260409020546001600160a01b0316151590565b6000828201838110156200042b57600080fd5b90505b92915050565b828054600181600116156101000203166002900490600052602060002090601f016020900481019282601f106200047757805160ff1916838001178555620004a7565b82800160010185558215620004a7579182015b82811115620004a75782518255916020019190600101906200048a565b50620004b5929150620004b9565b5090565b620004d691905b80821115620004b55760008155600101620004c0565b90565b600082601f830112620004eb57600080fd5b815162000502620004fc826200061a565b620005f3565b915080825260208301602083018583830111156200051f57600080fd5b6200052c83828462000642565b50505092915050565b80516200042e8162000675565b600080600080608085870312156200055957600080fd5b84516001600160401b038111156200057057600080fd5b6200057e87828801620004d9565b94505060208501516001600160401b038111156200059b57600080fd5b620005a987828801620004d9565b9350506040620005bc8782880162000535565b92505060608501516001600160401b03811115620005d957600080fd5b620005e787828801620004d9565b91505092959194509250565b6040518181016001600160401b03811182821017156200061257600080fd5b604052919050565b60006001600160401b038211156200063157600080fd5b506020601f91909101601f19160190565b60005b838110156200065f57818101518382015260200162000645565b838111156200066f576000848401525b50505050565b6200068081620004d6565b81146200068c57600080fd5b50565b6111ee806200069f6000396000f3fe608060405234801561001057600080fd5b50600436106101375760003560e01c80636352211e116100b857806395d89b411161007c57806395d89b4114610256578063a22cb4651461025e578063b88d4fde14610271578063c87b56dd14610284578063e985e9c514610297578063f2fde38b146102aa57610137565b80636352211e1461021857806370a082311461022b578063715018a61461023e5780638da5cb5b146102465780638f32d59b1461024e57610137565b806318160ddd116100ff57806318160ddd146101b757806323b872dd146101cc5780632f745c59146101df57806342842e0e146101f25780634f6ccce71461020557610137565b806301ffc9a71461013c578063037a417c1461016557806306fdde031461016d578063081812fc14610182578063095ea7b3146101a2575b600080fd5b61014f61014a366004610eb7565b6102bd565b60405161015c9190610fc5565b60405180910390f35b61014f6102dc565b6101756102e2565b60405161015c9190610fd3565b610195610190366004610ef3565b610378565b60405161015c9190610f73565b6101b56101b0366004610e87565b6103a8565b005b6101bf610455565b60405161015c9190610fe4565b6101b56101da366004610d91565b61045b565b6101bf6101ed366004610e87565b61047e565b6101b5610200366004610d91565b6104cc565b6101bf610213366004610ef3565b6104e7565b610195610226366004610ef3565b61051b565b6101bf610239366004610d39565b61053d565b6101b561056e565b6101956105c9565b61014f6105d8565b6101756105e9565b6101b561026c366004610e57565b61064a565b6101b561027f366004610dde565b6106cf565b610175610292366004610ef3565b6106f5565b61014f6102a5366004610d57565b6107a8565b6101b56102b8366004610d39565b6107d6565b6001600160e01b03191660009081526020819052604090205460ff1690565b60015b90565b60098054604080516020601f600260001961010060018816150201909516949094049384018190048102820181019092528281526060939092909183018282801561036e5780601f106103435761010080835404028352916020019161036e565b820191906000526020600020905b81548152906001019060200180831161035157829003601f168201915b5050505050905090565b6000610383826107f3565b61038c57600080fd5b506000908152600260205260409020546001600160a01b031690565b60006103b38261051b565b9050806001600160a01b0316836001600160a01b031614156103d457600080fd5b336001600160a01b03821614806103f057506103f081336107a8565b6103f957600080fd5b60008281526002602052604080822080546001600160a01b0319166001600160a01b0387811691821790925591518593918516917f8c5be1e5ebec7d5bd14f71427d1e84f3dd0314c0f7b2291e5b200ac8c7c3b92591a4505050565b60075490565b6104653382610810565b61046e57600080fd5b61047983838361086f565b505050565b60006104898361053d565b821061049457600080fd5b6001600160a01b03831660009081526005602052604090208054839081106104b857fe5b906000526020600020015490505b92915050565b610479838383604051806020016040528060008152506106cf565b60006104f1610455565b82106104fc57600080fd5b6007828154811061050957fe5b90600052602060002001549050919050565b6000818152600160205260408120546001600160a01b0316806104c657600080fd5b60006001600160a01b03821661055257600080fd5b506001600160a01b031660009081526003602052604090205490565b6105766105d8565b61057f57600080fd5b600c546040516000916001600160a01b0316907f8be0079c531659141344cd1fd0a4f28419497f9722a3daafe3b4186f6b6457e0908390a3600c80546001600160a01b0319169055565b600c546001600160a01b031690565b600c546001600160a01b0316331490565b600a8054604080516020601f600260001961010060018816150201909516949094049384018190048102820181019092528281526060939092909183018282801561036e5780601f106103435761010080835404028352916020019161036e565b6001600160a01b03821633141561066057600080fd5b3360008181526004602090815260408083206001600160a01b038716808552925291829020805460ff191685151517905590519091907f17307eab39ab6107e8899845ad3d59bd9653f200f220920489ca2b5937696c31906106c3908590610fc5565b60405180910390a35050565b6106da84848461045b565b6106e68484848461088e565b6106ef57600080fd5b50505050565b6060610700826107f3565b61070957600080fd5b6000828152600b602090815260409182902080548351601f60026000196101006001861615020190931692909204918201849004840281018401909452808452909183018282801561079c5780601f106107715761010080835404028352916020019161079c565b820191906000526020600020905b81548152906001019060200180831161077f57829003601f168201915b50505050509050919050565b6001600160a01b03918216600090815260046020908152604080832093909416825291909152205460ff1690565b6107de6105d8565b6107e757600080fd5b6107f081610953565b50565b6000908152600160205260409020546001600160a01b0316151590565b60008061081c8361051b565b9050806001600160a01b0316846001600160a01b031614806108575750836001600160a01b031661084c84610378565b6001600160a01b0316145b80610867575061086781856107a8565b949350505050565b61087a8383836109c2565b6108848382610acf565b6104798282610bc4565b60006108a2846001600160a01b0316610c02565b6108ae57506001610867565b604051630a85bd0160e11b81526000906001600160a01b0386169063150b7a02906108e39033908a9089908990600401610f81565b602060405180830381600087803b1580156108fd57600080fd5b505af1158015610911573d6000803e3d6000fd5b505050506040513d601f19601f820116820180604052506109359190810190610ed5565b6001600160e01b031916630a85bd0160e11b14915050949350505050565b6001600160a01b03811661096657600080fd5b600c546040516001600160a01b038084169216907f8be0079c531659141344cd1fd0a4f28419497f9722a3daafe3b4186f6b6457e090600090a3600c80546001600160a01b0319166001600160a01b0392909216919091179055565b826001600160a01b03166109d58261051b565b6001600160a01b0316146109e857600080fd5b6001600160a01b0382166109fb57600080fd5b610a0481610c08565b6001600160a01b038316600090815260036020526040902054610a2e90600163ffffffff610c4316565b6001600160a01b038085166000908152600360205260408082209390935590841681522054610a6490600163ffffffff610c5816565b6001600160a01b038084166000818152600360209081526040808320959095558582526001905283812080546001600160a01b031916831790559251849391928716917fddf252ad1be2c89b69c2b068fc378daa952ba7f163c4a11628f55a4df523b3ef91a4505050565b6001600160a01b038216600090815260056020526040812054610af990600163ffffffff610c4316565b600083815260066020526040902054909150808214610b94576001600160a01b0384166000908152600560205260408120805484908110610b3657fe5b906000526020600020015490508060056000876001600160a01b03166001600160a01b031681526020019081526020016000208381548110610b7457fe5b600091825260208083209091019290925591825260069052604090208190555b6001600160a01b0384166000908152600560205260409020805490610bbd906000198301610c71565b5050505050565b6001600160a01b0390911660009081526005602081815260408084208054868652600684529185208290559282526001810183559183529091200155565b3b151590565b6000818152600260205260409020546001600160a01b0316156107f057600090815260026020526040902080546001600160a01b0319169055565b600082821115610c5257600080fd5b50900390565b600082820183811015610c6a57600080fd5b9392505050565b815481835581811115610479576000838152602090206104799181019083016102df91905b80821115610caa5760008155600101610c96565b5090565b80356104c6816110ca565b80356104c6816110de565b80356104c6816110e7565b80516104c6816110e7565b600082601f830112610ceb57600080fd5b8135610cfe610cf982611019565b610ff2565b91508082526020830160208301858383011115610d1a57600080fd5b610d25838284611088565b50505092915050565b80356104c6816110f0565b600060208284031215610d4b57600080fd5b60006108678484610cae565b60008060408385031215610d6a57600080fd5b6000610d768585610cae565b9250506020610d8785828601610cae565b9150509250929050565b600080600060608486031215610da657600080fd5b6000610db28686610cae565b9350506020610dc386828701610cae565b9250506040610dd486828701610d2e565b9150509250925092565b60008060008060808587031215610df457600080fd5b6000610e008787610cae565b9450506020610e1187828801610cae565b9350506040610e2287828801610d2e565b925050606085013567ffffffffffffffff811115610e3f57600080fd5b610e4b87828801610cda565b91505092959194509250565b60008060408385031215610e6a57600080fd5b6000610e768585610cae565b9250506020610d8785828601610cb9565b60008060408385031215610e9a57600080fd5b6000610ea68585610cae565b9250506020610d8785828601610d2e565b600060208284031215610ec957600080fd5b60006108678484610cc4565b600060208284031215610ee757600080fd5b60006108678484610ccf565b600060208284031215610f0557600080fd5b60006108678484610d2e565b610f1a81611077565b82525050565b610f1a8161104e565b610f1a81611059565b6000610f3d82611041565b610f478185611045565b9350610f57818560208601611094565b610f60816110c0565b9093019392505050565b610f1a816102df565b602081016104c68284610f20565b60808101610f8f8287610f11565b610f9c6020830186610f20565b610fa96040830185610f6a565b8181036060830152610fbb8184610f32565b9695505050505050565b602081016104c68284610f29565b60208082528101610c6a8184610f32565b602081016104c68284610f6a565b60405181810167ffffffffffffffff8111828210171561101157600080fd5b604052919050565b600067ffffffffffffffff82111561103057600080fd5b506020601f91909101601f19160190565b5190565b90815260200190565b60006104c68261106b565b151590565b6001600160e01b03191690565b6001600160a01b031690565b60006104c68260006104c68261104e565b82818337506000910152565b60005b838110156110af578181015183820152602001611097565b838111156106ef5750506000910152565b601f01601f191690565b6110d38161104e565b81146107f057600080fd5b6110d381611059565b6110d38161105e565b6110d3816102df565b6001600160a01b03821661110c57600080fd5b611115816107f3565b1561111f57600080fd5b600081815260016020818152604080842080546001600160a01b0319166001600160a01b038816908117909155845260039091529091205461116091610c58565b6001600160a01b0383166000818152600360205260408082209390935591518392907fddf252ad1be2c89b69c2b068fc378daa952ba7f163c4a11628f55a4df523b3ef908290a4505056fea365627a7a723158202942ee81ceea615d6bc81b0573ed4552dd579c88d2e1e8b75cf2cdeae8e136b86c6578706572696d656e74616cf564736f6c634300050c0040",
  "source": "pragma solidity ^0.5.2;\npragma experimental ABIEncoderV2;\n\n// Storage\nimport \"./storage/WtConstants.sol\";\n\nimport \"openzeppelin-solidity/contracts/token/ERC721/ERC721.sol\";\nimport \"openzeppelin-solidity/contracts/token/ERC721/ERC721Enumerable.sol\";\nimport \"openzeppelin-solidity/contracts/token/ERC721/ERC721Full.sol\";\n\nimport \"openzeppelin-solidity/contracts/ownership/Ownable.sol\";\n\n\ncontract TicketFactory is ERC721Full, WtConstants, Ownable {\n\n    constructor(\n        string memory name, \n        string memory symbol,\n        uint tokenId,\n        string memory tokenURI\n    ) \n        ERC721Full(name, symbol)\n        public \n    {\n        _mint(msg.sender, tokenId);\n        _setTokenURI(tokenId, tokenURI);\n    }\n\n\n    function testFunc() public returns (bool) {\n        return WtConstants.CONFIRMED;\n    }\n\n}\n",
  "sourcePath": "/Users/unomasanori/projects/DEMO_MVP/Gitcoin-Global-Communities-Hackcathon/walletConnect-ticketing-dapp/contracts/TicketFactory.sol",
  "compiler": {
    "name": "solc",
    "version": "0.5.12+commit.7709ece9.Emscripten.clang"
  },
  "schemaVersion": "3.0.19",
  "updatedAt": "2019-12-06T14:00:51.773Z",
  "devdoc": {
    "methods": {
      "approve(address,uint256)": {
        "details": "Approves another address to transfer the given token ID The zero address indicates there is no approved address. There can only be one approved address per token at a given time. Can only be called by the token owner or an approved operator.",
        "params": {
          "to": "address to be approved for the given token ID",
          "tokenId": "uint256 ID of the token to be approved"
        }
      },
      "balanceOf(address)": {
        "details": "Gets the balance of the specified address",
        "params": {
          "owner": "address to query the balance of"
        },
        "return": "uint256 representing the amount owned by the passed address"
      },
      "getApproved(uint256)": {
        "details": "Gets the approved address for a token ID, or zero if no address set Reverts if the token ID does not exist.",
        "params": {
          "tokenId": "uint256 ID of the token to query the approval of"
        },
        "return": "address currently approved for the given token ID"
      },
      "isApprovedForAll(address,address)": {
        "details": "Tells whether an operator is approved by a given owner",
        "params": {
          "operator": "operator address which you want to query the approval of",
          "owner": "owner address which you want to query the approval of"
        },
        "return": "bool whether the given operator is approved by the given owner"
      },
      "isOwner()": {
        "return": "true if `msg.sender` is the owner of the contract."
      },
      "name()": {
        "details": "Gets the token name",
        "return": "string representing the token name"
      },
      "owner()": {
        "return": "the address of the owner."
      },
      "ownerOf(uint256)": {
        "details": "Gets the owner of the specified token ID",
        "params": {
          "tokenId": "uint256 ID of the token to query the owner of"
        },
        "return": "owner address currently marked as the owner of the given token ID"
      },
      "renounceOwnership()": {
        "details": "Allows the current owner to relinquish control of the contract."
      },
      "safeTransferFrom(address,address,uint256)": {
        "details": "Safely transfers the ownership of a given token ID to another address If the target address is a contract, it must implement `onERC721Received`, which is called upon a safe transfer, and return the magic value `bytes4(keccak256(\"onERC721Received(address,address,uint256,bytes)\"))`; otherwise, the transfer is reverted.     * Requires the msg sender to be the owner, approved, or operator",
        "params": {
          "from": "current owner of the token",
          "to": "address to receive the ownership of the given token ID",
          "tokenId": "uint256 ID of the token to be transferred"
        }
      },
      "safeTransferFrom(address,address,uint256,bytes)": {
        "details": "Safely transfers the ownership of a given token ID to another address If the target address is a contract, it must implement `onERC721Received`, which is called upon a safe transfer, and return the magic value `bytes4(keccak256(\"onERC721Received(address,address,uint256,bytes)\"))`; otherwise, the transfer is reverted. Requires the msg sender to be the owner, approved, or operator",
        "params": {
          "_data": "bytes data to send along with a safe transfer check",
          "from": "current owner of the token",
          "to": "address to receive the ownership of the given token ID",
          "tokenId": "uint256 ID of the token to be transferred"
        }
      },
      "setApprovalForAll(address,bool)": {
        "details": "Sets or unsets the approval of a given operator An operator is allowed to transfer all tokens of the sender on their behalf",
        "params": {
          "approved": "representing the status of the approval to be set",
          "to": "operator address to set the approval"
        }
      },
      "supportsInterface(bytes4)": {
        "details": "implement supportsInterface(bytes4) using a lookup table"
      },
      "symbol()": {
        "details": "Gets the token symbol",
        "return": "string representing the token symbol"
      },
      "tokenByIndex(uint256)": {
        "details": "Gets the token ID at a given index of all the tokens in this contract Reverts if the index is greater or equal to the total number of tokens",
        "params": {
          "index": "uint256 representing the index to be accessed of the tokens list"
        },
        "return": "uint256 token ID at the given index of the tokens list"
      },
      "tokenOfOwnerByIndex(address,uint256)": {
        "details": "Gets the token ID at a given index of the tokens list of the requested owner",
        "params": {
          "index": "uint256 representing the index to be accessed of the requested tokens list",
          "owner": "address owning the tokens list to be accessed"
        },
        "return": "uint256 token ID at the given index of the tokens list owned by the requested address"
      },
      "tokenURI(uint256)": {
        "details": "Returns an URI for a given token ID Throws if the token ID does not exist. May return an empty string.",
        "params": {
          "tokenId": "uint256 ID of the token to query"
        }
      },
      "totalSupply()": {
        "details": "Gets the total amount of tokens stored by the contract",
        "return": "uint256 representing the total amount of tokens"
      },
      "transferFrom(address,address,uint256)": {
        "details": "Transfers the ownership of a given token ID to another address Usage of this method is discouraged, use `safeTransferFrom` whenever possible Requires the msg sender to be the owner, approved, or operator",
        "params": {
          "from": "current owner of the token",
          "to": "address to receive the ownership of the given token ID",
          "tokenId": "uint256 ID of the token to be transferred"
        }
      },
      "transferOwnership(address)": {
        "details": "Allows the current owner to transfer control of the contract to a newOwner.",
        "params": {
          "newOwner": "The address to transfer ownership to."
        }
      }
    }
  },
  "userdoc": {
    "methods": {
      "renounceOwnership()": {
        "notice": "Renouncing to ownership will leave the contract without an owner. It will not be possible to call the functions with the `onlyOwner` modifier anymore."
      }
    }
  }
}