{
  "contractName": "TicketMarket",
  "abi": [
    {
      "inputs": [
        {
          "internalType": "address",
          "name": "_ticketFactoryContract",
          "type": "address"
        },
        {
          "internalType": "address",
          "name": "_erc20TestTokenContract",
          "type": "address"
        }
      ],
      "payable": false,
      "stateMutability": "nonpayable",
      "type": "constructor"
    },
    {
      "anonymous": false,
      "inputs": [
        {
          "indexed": false,
          "internalType": "uint256",
          "name": "exampleId",
          "type": "uint256"
        },
        {
          "indexed": false,
          "internalType": "string",
          "name": "exampleName",
          "type": "string"
        },
        {
          "indexed": false,
          "internalType": "address",
          "name": "exampleAddr",
          "type": "address"
        }
      ],
      "name": "ExampleEvent",
      "type": "event"
    },
    {
      "anonymous": false,
      "inputs": [
        {
          "indexed": true,
          "internalType": "uint256",
          "name": "_ticketId",
          "type": "uint256"
        },
        {
          "indexed": false,
          "internalType": "uint256",
          "name": "_price",
          "type": "uint256"
        },
        {
          "indexed": false,
          "internalType": "address",
          "name": "_token",
          "type": "address"
        }
      ],
      "name": "LogPublishForSale",
      "type": "event"
    },
    {
      "anonymous": false,
      "inputs": [
        {
          "indexed": true,
          "internalType": "address",
          "name": "previousOwner",
          "type": "address"
        },
        {
          "indexed": true,
          "internalType": "address",
          "name": "newOwner",
          "type": "address"
        }
      ],
      "name": "OwnershipTransferred",
      "type": "event"
    },
    {
      "constant": true,
      "inputs": [],
      "name": "erc20Token",
      "outputs": [
        {
          "internalType": "contract Erc20TestToken",
          "name": "",
          "type": "address"
        }
      ],
      "payable": false,
      "stateMutability": "view",
      "type": "function"
    },
    {
      "constant": true,
      "inputs": [],
      "name": "factory",
      "outputs": [
        {
          "internalType": "contract TicketFactory",
          "name": "",
          "type": "address"
        }
      ],
      "payable": false,
      "stateMutability": "view",
      "type": "function"
    },
    {
      "constant": true,
      "inputs": [],
      "name": "isOwner",
      "outputs": [
        {
          "internalType": "bool",
          "name": "",
          "type": "bool"
        }
      ],
      "payable": false,
      "stateMutability": "view",
      "type": "function"
    },
    {
      "constant": true,
      "inputs": [],
      "name": "owner",
      "outputs": [
        {
          "internalType": "address",
          "name": "",
          "type": "address"
        }
      ],
      "payable": false,
      "stateMutability": "view",
      "type": "function"
    },
    {
      "constant": true,
      "inputs": [
        {
          "internalType": "uint256",
          "name": "",
          "type": "uint256"
        }
      ],
      "name": "purchasableTickets",
      "outputs": [
        {
          "internalType": "bool",
          "name": "forSale",
          "type": "bool"
        },
        {
          "internalType": "address",
          "name": "acceptedToken",
          "type": "address"
        },
        {
          "internalType": "uint256",
          "name": "PurchasePrice",
          "type": "uint256"
        }
      ],
      "payable": false,
      "stateMutability": "view",
      "type": "function"
    },
    {
      "constant": false,
      "inputs": [],
      "name": "renounceOwnership",
      "outputs": [],
      "payable": false,
      "stateMutability": "nonpayable",
      "type": "function"
    },
    {
      "constant": false,
      "inputs": [
        {
          "internalType": "address",
          "name": "newOwner",
          "type": "address"
        }
      ],
      "name": "transferOwnership",
      "outputs": [],
      "payable": false,
      "stateMutability": "nonpayable",
      "type": "function"
    },
    {
      "constant": false,
      "inputs": [],
      "name": "testFunc",
      "outputs": [
        {
          "internalType": "bool",
          "name": "",
          "type": "bool"
        }
      ],
      "payable": false,
      "stateMutability": "nonpayable",
      "type": "function"
    },
    {
      "constant": false,
      "inputs": [
        {
          "internalType": "uint256",
          "name": "_ticketId",
          "type": "uint256"
        }
      ],
      "name": "ownerOfTicket",
      "outputs": [
        {
          "internalType": "address",
          "name": "",
          "type": "address"
        }
      ],
      "payable": false,
      "stateMutability": "nonpayable",
      "type": "function"
    },
    {
      "constant": false,
      "inputs": [
        {
          "internalType": "uint256",
          "name": "_ticketId",
          "type": "uint256"
        }
      ],
      "name": "buyTicket",
      "outputs": [],
      "payable": false,
      "stateMutability": "nonpayable",
      "type": "function"
    },
    {
      "constant": true,
      "inputs": [
        {
          "internalType": "uint256",
          "name": "ticketId",
          "type": "uint256"
        }
      ],
      "name": "getPurchasableTicket",
      "outputs": [
        {
          "components": [
            {
              "internalType": "bool",
              "name": "forSale",
              "type": "bool"
            },
            {
              "internalType": "address",
              "name": "acceptedToken",
              "type": "address"
            },
            {
              "internalType": "uint256",
              "name": "PurchasePrice",
              "type": "uint256"
            }
          ],
          "internalType": "struct WtObjects.PurchasableTicket",
          "name": "",
          "type": "tuple"
        }
      ],
      "payable": false,
      "stateMutability": "view",
      "type": "function"
    }
  ],
  "bytecode": "0x608060405234801561001057600080fd5b506040516108d23803806108d283398101604081905261002f916100ba565b600080546001600160a01b03191633178082556040516001600160a01b039190911691907f8be0079c531659141344cd1fd0a4f28419497f9722a3daafe3b4186f6b6457e0908290a3600380546001600160a01b039384166001600160a01b0319918216179091556004805492909316911617905561011c565b80516100b481610105565b92915050565b600080604083850312156100cd57600080fd5b60006100d985856100a9565b92505060206100ea858286016100a9565b9150509250929050565b60006001600160a01b0382166100b4565b61010e816100f4565b811461011957600080fd5b50565b6107a78061012b6000396000f3fe608060405234801561001057600080fd5b50600436106100a95760003560e01c80638da5cb5b116100715780638da5cb5b1461011e5780638f32d59b14610133578063c0860c2c1461013b578063c45a01551461014e578063d544bce414610156578063f2fde38b14610178576100a9565b8063037a417c146100ae57806311d5c546146100cc57806367dd74ca146100ec578063715018a6146101015780638a13eea714610109575b600080fd5b6100b661018b565b6040516100c391906106ce565b60405180910390f35b6100df6100da36600461061d565b610190565b6040516100c391906106f8565b6100ff6100fa36600461061d565b6101e0565b005b6100ff6101ed565b610111610248565b6040516100c391906106ea565b610126610257565b6040516100c39190610698565b6100b6610266565b61012661014936600461061d565b610277565b610111610300565b61016961016436600461061d565b61030f565b6040516100c3939291906106dc565b6100ff6101863660046105bb565b61033c565b600190565b61019861056f565b506000908152600160208181526040928390208351606081018552815460ff81161515825261010090046001600160a01b031692810192909252909101549181019190915290565b6101ea8133610356565b50565b6101f5610266565b6101fe57600080fd5b600080546040516001600160a01b03909116907f8be0079c531659141344cd1fd0a4f28419497f9722a3daafe3b4186f6b6457e0908390a3600080546001600160a01b0319169055565b6004546001600160a01b031681565b6000546001600160a01b031690565b6000546001600160a01b0316331490565b600354604051633835054160e01b81526000916001600160a01b0316906338350541906102a8908590600401610706565b602060405180830381600087803b1580156102c257600080fd5b505af11580156102d6573d6000803e3d6000fd5b505050506040513d601f19601f820116820180604052506102fa91908101906105e1565b92915050565b6003546001600160a01b031681565b6001602081905260009182526040909120805491015460ff82169161010090046001600160a01b03169083565b610344610266565b61034d57600080fd5b6101ea81610501565b600454600a906001600160a01b03166323b872dd8361037486610277565b846040518463ffffffff1660e01b8152600401610393939291906106a6565b602060405180830381600087803b1580156103ad57600080fd5b505af11580156103c1573d6000803e3d6000fd5b505050506040513d601f19601f820116820180604052506103e591908101906105ff565b506003546001600160a01b031663693993b261040085610277565b84866040518463ffffffff1660e01b8152600401610420939291906106a6565b602060405180830381600087803b15801561043a57600080fd5b505af115801561044e573d6000803e3d6000fd5b505050506040513d601f19601f8201168201806040525061047291908101906105ff565b50600360009054906101000a90046001600160a01b03166001600160a01b0316631249c58b6040518163ffffffff1660e01b8152600401602060405180830381600087803b1580156104c357600080fd5b505af11580156104d7573d6000803e3d6000fd5b505050506040513d601f19601f820116820180604052506104fb91908101906105ff565b50505050565b6001600160a01b03811661051457600080fd5b600080546040516001600160a01b03808516939216917f8be0079c531659141344cd1fd0a4f28419497f9722a3daafe3b4186f6b6457e091a3600080546001600160a01b0319166001600160a01b0392909216919091179055565b604080516060810182526000808252602082018190529181019190915290565b80356102fa8161073e565b80516102fa8161073e565b80516102fa81610752565b80356102fa8161075b565b6000602082840312156105cd57600080fd5b60006105d9848461058f565b949350505050565b6000602082840312156105f357600080fd5b60006105d9848461059a565b60006020828403121561061157600080fd5b60006105d984846105a5565b60006020828403121561062f57600080fd5b60006105d984846105b0565b61064481610714565b82525050565b6106448161071f565b61064481610733565b8051606083019061066d848261064a565b506020820151610680602085018261063b565b5060408201516104fb60408501825b61064481610730565b602081016102fa828461063b565b606081016106b4828661063b565b6106c1602083018561063b565b6105d9604083018461068f565b602081016102fa828461064a565b606081016106b4828661064a565b602081016102fa8284610653565b606081016102fa828461065c565b602081016102fa828461068f565b60006102fa82610724565b151590565b6001600160a01b031690565b90565b60006102fa82610714565b61074781610714565b81146101ea57600080fd5b6107478161071f565b6107478161073056fea365627a7a723158209309f91728ddb41846359cbe009aebb0b71f6cfc14ba02b8a10f389d8ae5571e6c6578706572696d656e74616cf564736f6c634300050c0040",
  "source": "pragma solidity ^0.5.2;\npragma experimental ABIEncoderV2;\n\nimport \"./TicketFactory.sol\";\n\n// Storage\nimport \"./storage/WtConstants.sol\";\nimport \"./storage/WtStorage.sol\";\n\nimport \"./Erc20TestToken.sol\";\n\n\ncontract TicketMarket is WtStorage, WtConstants {\n\n    TicketFactory public factory;\n    Erc20TestToken public erc20Token;\n\n    constructor(address _ticketFactoryContract, address _erc20TestTokenContract) public {\n        factory = TicketFactory(_ticketFactoryContract);\n        erc20Token = Erc20TestToken(_erc20TestTokenContract);\n    }\n\n\n    function testFunc() public returns (bool) {\n        return WtConstants.CONFIRMED;\n    }\n\n    // @notice owner address of ERC721 token which is specified\n    // @param _ticketId is tokenId\n    function ownerOfTicket(uint _ticketId) public returns (address) {\n        return factory._ownerOf(_ticketId);\n    }\n    \n\n\n    /// @notice buys a certificate\n    /// @param _ticketId the id of the ticket \n    function buyTicket(uint _ticketId) public {\n        _buyTicket(_ticketId, msg.sender);\n    }\n\n\n    function getPurchasableTicket(uint ticketId)\n        public view returns (PurchasableTicket memory)\n    {\n\n        return purchasableTickets[ticketId];\n    }\n\n\n    /**********************\n     * internal functions\n    ***********************/\n\n    function _buyTicket(uint _ticketId, address buyer) internal {\n        //PurchasableTicket memory pTicket = getPurchasableTicket(_ticketId);\n        uint purchasePrice = 10;\n\n        //IERC20 erc20 = IERC20(erc20Token);\n        erc20Token.transferFrom(buyer, ownerOfTicket(_ticketId), purchasePrice);\n        //erc20Token.transferFrom(buyer, factory._ownerOf(_ticketId), purchasePrice);\n        //erc20.transferFrom(buyer, factory.ownerOf(_ticketId), pTicket.PurchasePrice);\n   \n        factory._transferTicketFrom(ownerOfTicket(_ticketId), buyer, _ticketId);\n        //factory.transferFrom(factory.ownerOf(_ticketId), buyer, _ticketId);\n        \n        //_removeTokenAndPrice(_ticketId);\n\n        //unpublishForSale(_ticketId);\n\n        factory.mint();\n    }\n\n}\n",
  "sourcePath": "/Users/unomasanori/projects/DEMO_MVP/Gitcoin-Global-Communities-Hackcathon/walletConnect-ticketing-dapp/contracts/TicketMarket.sol",
  "compiler": {
    "name": "solc",
    "version": "0.5.12+commit.7709ece9.Emscripten.clang"
  },
  "schemaVersion": "3.0.19",
  "updatedAt": "2019-12-09T09:59:27.521Z",
  "devdoc": {
    "methods": {
      "buyTicket(uint256)": {
        "params": {
          "_ticketId": "the id of the ticket "
        }
      },
      "isOwner()": {
        "return": "true if `msg.sender` is the owner of the contract."
      },
      "owner()": {
        "return": "the address of the owner."
      },
      "renounceOwnership()": {
        "details": "Allows the current owner to relinquish control of the contract."
      },
      "transferOwnership(address)": {
        "details": "Allows the current owner to transfer control of the contract to a newOwner.",
        "params": {
          "newOwner": "The address to transfer ownership to."
        }
      }
    }
  },
  "userdoc": {
    "methods": {
      "buyTicket(uint256)": {
        "notice": "buys a certificate"
      },
      "renounceOwnership()": {
        "notice": "Renouncing to ownership will leave the contract without an owner. It will not be possible to call the functions with the `onlyOwner` modifier anymore."
      }
    }
  }
}