{
  "contractName": "TicketFactory",
  "abi": [
    {
      "inputs": [],
      "payable": false,
      "stateMutability": "nonpayable",
      "type": "constructor"
    },
    {
      "anonymous": false,
      "inputs": [
        {
          "indexed": true,
          "internalType": "address",
          "name": "owner",
          "type": "address"
        },
        {
          "indexed": true,
          "internalType": "address",
          "name": "approved",
          "type": "address"
        },
        {
          "indexed": true,
          "internalType": "uint256",
          "name": "tokenId",
          "type": "uint256"
        }
      ],
      "name": "Approval",
      "type": "event"
    },
    {
      "anonymous": false,
      "inputs": [
        {
          "indexed": true,
          "internalType": "address",
          "name": "owner",
          "type": "address"
        },
        {
          "indexed": true,
          "internalType": "address",
          "name": "operator",
          "type": "address"
        },
        {
          "indexed": false,
          "internalType": "bool",
          "name": "approved",
          "type": "bool"
        }
      ],
      "name": "ApprovalForAll",
      "type": "event"
    },
    {
      "anonymous": false,
      "inputs": [
        {
          "indexed": true,
          "internalType": "address",
          "name": "previousOwner",
          "type": "address"
        },
        {
          "indexed": true,
          "internalType": "address",
          "name": "newOwner",
          "type": "address"
        }
      ],
      "name": "OwnershipTransferred",
      "type": "event"
    },
    {
      "anonymous": false,
      "inputs": [
        {
          "indexed": true,
          "internalType": "address",
          "name": "from",
          "type": "address"
        },
        {
          "indexed": true,
          "internalType": "address",
          "name": "to",
          "type": "address"
        },
        {
          "indexed": true,
          "internalType": "uint256",
          "name": "tokenId",
          "type": "uint256"
        }
      ],
      "name": "Transfer",
      "type": "event"
    },
    {
      "constant": false,
      "inputs": [
        {
          "internalType": "address",
          "name": "to",
          "type": "address"
        },
        {
          "internalType": "uint256",
          "name": "tokenId",
          "type": "uint256"
        }
      ],
      "name": "approve",
      "outputs": [],
      "payable": false,
      "stateMutability": "nonpayable",
      "type": "function"
    },
    {
      "constant": true,
      "inputs": [
        {
          "internalType": "address",
          "name": "owner",
          "type": "address"
        }
      ],
      "name": "balanceOf",
      "outputs": [
        {
          "internalType": "uint256",
          "name": "",
          "type": "uint256"
        }
      ],
      "payable": false,
      "stateMutability": "view",
      "type": "function"
    },
    {
      "constant": true,
      "inputs": [
        {
          "internalType": "uint256",
          "name": "tokenId",
          "type": "uint256"
        }
      ],
      "name": "getApproved",
      "outputs": [
        {
          "internalType": "address",
          "name": "",
          "type": "address"
        }
      ],
      "payable": false,
      "stateMutability": "view",
      "type": "function"
    },
    {
      "constant": true,
      "inputs": [
        {
          "internalType": "address",
          "name": "owner",
          "type": "address"
        },
        {
          "internalType": "address",
          "name": "operator",
          "type": "address"
        }
      ],
      "name": "isApprovedForAll",
      "outputs": [
        {
          "internalType": "bool",
          "name": "",
          "type": "bool"
        }
      ],
      "payable": false,
      "stateMutability": "view",
      "type": "function"
    },
    {
      "constant": true,
      "inputs": [],
      "name": "isOwner",
      "outputs": [
        {
          "internalType": "bool",
          "name": "",
          "type": "bool"
        }
      ],
      "payable": false,
      "stateMutability": "view",
      "type": "function"
    },
    {
      "constant": true,
      "inputs": [],
      "name": "owner",
      "outputs": [
        {
          "internalType": "address",
          "name": "",
          "type": "address"
        }
      ],
      "payable": false,
      "stateMutability": "view",
      "type": "function"
    },
    {
      "constant": true,
      "inputs": [
        {
          "internalType": "uint256",
          "name": "tokenId",
          "type": "uint256"
        }
      ],
      "name": "ownerOf",
      "outputs": [
        {
          "internalType": "address",
          "name": "",
          "type": "address"
        }
      ],
      "payable": false,
      "stateMutability": "view",
      "type": "function"
    },
    {
      "constant": false,
      "inputs": [],
      "name": "renounceOwnership",
      "outputs": [],
      "payable": false,
      "stateMutability": "nonpayable",
      "type": "function"
    },
    {
      "constant": false,
      "inputs": [
        {
          "internalType": "address",
          "name": "from",
          "type": "address"
        },
        {
          "internalType": "address",
          "name": "to",
          "type": "address"
        },
        {
          "internalType": "uint256",
          "name": "tokenId",
          "type": "uint256"
        }
      ],
      "name": "safeTransferFrom",
      "outputs": [],
      "payable": false,
      "stateMutability": "nonpayable",
      "type": "function"
    },
    {
      "constant": false,
      "inputs": [
        {
          "internalType": "address",
          "name": "from",
          "type": "address"
        },
        {
          "internalType": "address",
          "name": "to",
          "type": "address"
        },
        {
          "internalType": "uint256",
          "name": "tokenId",
          "type": "uint256"
        },
        {
          "internalType": "bytes",
          "name": "_data",
          "type": "bytes"
        }
      ],
      "name": "safeTransferFrom",
      "outputs": [],
      "payable": false,
      "stateMutability": "nonpayable",
      "type": "function"
    },
    {
      "constant": false,
      "inputs": [
        {
          "internalType": "address",
          "name": "to",
          "type": "address"
        },
        {
          "internalType": "bool",
          "name": "approved",
          "type": "bool"
        }
      ],
      "name": "setApprovalForAll",
      "outputs": [],
      "payable": false,
      "stateMutability": "nonpayable",
      "type": "function"
    },
    {
      "constant": true,
      "inputs": [
        {
          "internalType": "bytes4",
          "name": "interfaceId",
          "type": "bytes4"
        }
      ],
      "name": "supportsInterface",
      "outputs": [
        {
          "internalType": "bool",
          "name": "",
          "type": "bool"
        }
      ],
      "payable": false,
      "stateMutability": "view",
      "type": "function"
    },
    {
      "constant": true,
      "inputs": [
        {
          "internalType": "uint256",
          "name": "index",
          "type": "uint256"
        }
      ],
      "name": "tokenByIndex",
      "outputs": [
        {
          "internalType": "uint256",
          "name": "",
          "type": "uint256"
        }
      ],
      "payable": false,
      "stateMutability": "view",
      "type": "function"
    },
    {
      "constant": true,
      "inputs": [
        {
          "internalType": "address",
          "name": "owner",
          "type": "address"
        },
        {
          "internalType": "uint256",
          "name": "index",
          "type": "uint256"
        }
      ],
      "name": "tokenOfOwnerByIndex",
      "outputs": [
        {
          "internalType": "uint256",
          "name": "",
          "type": "uint256"
        }
      ],
      "payable": false,
      "stateMutability": "view",
      "type": "function"
    },
    {
      "constant": true,
      "inputs": [],
      "name": "totalSupply",
      "outputs": [
        {
          "internalType": "uint256",
          "name": "",
          "type": "uint256"
        }
      ],
      "payable": false,
      "stateMutability": "view",
      "type": "function"
    },
    {
      "constant": false,
      "inputs": [
        {
          "internalType": "address",
          "name": "from",
          "type": "address"
        },
        {
          "internalType": "address",
          "name": "to",
          "type": "address"
        },
        {
          "internalType": "uint256",
          "name": "tokenId",
          "type": "uint256"
        }
      ],
      "name": "transferFrom",
      "outputs": [],
      "payable": false,
      "stateMutability": "nonpayable",
      "type": "function"
    },
    {
      "constant": false,
      "inputs": [
        {
          "internalType": "address",
          "name": "newOwner",
          "type": "address"
        }
      ],
      "name": "transferOwnership",
      "outputs": [],
      "payable": false,
      "stateMutability": "nonpayable",
      "type": "function"
    },
    {
      "constant": false,
      "inputs": [],
      "name": "testFunc",
      "outputs": [
        {
          "internalType": "bool",
          "name": "",
          "type": "bool"
        }
      ],
      "payable": false,
      "stateMutability": "nonpayable",
      "type": "function"
    }
  ],
  "bytecode": "0x608060405234801561001057600080fd5b506100437f01ffc9a7000000000000000000000000000000000000000000000000000000006001600160e01b036100f816565b6100757f80ac58cd000000000000000000000000000000000000000000000000000000006001600160e01b036100f816565b6100a77f780e9d63000000000000000000000000000000000000000000000000000000006001600160e01b036100f816565b600980546001600160a01b0319163317908190556040516001600160a01b0391909116906000907f8be0079c531659141344cd1fd0a4f28419497f9722a3daafe3b4186f6b6457e0908290a3610164565b7fffffffff00000000000000000000000000000000000000000000000000000000808216141561012757600080fd5b7fffffffff00000000000000000000000000000000000000000000000000000000166000908152602081905260409020805460ff19166001179055565b610f30806101736000396000f3fe608060405234801561001057600080fd5b50600436106101165760003560e01c80636352211e116100a25780638f32d59b116100715780638f32d59b14610218578063a22cb46514610220578063b88d4fde14610233578063e985e9c514610246578063f2fde38b1461025957610116565b80636352211e146101e257806370a08231146101f5578063715018a6146102085780638da5cb5b1461021057610116565b806318160ddd116100e957806318160ddd1461018157806323b872dd146101965780632f745c59146101a957806342842e0e146101bc5780634f6ccce7146101cf57610116565b806301ffc9a71461011b578063037a417c14610144578063081812fc1461014c578063095ea7b31461016c575b600080fd5b61012e610129366004610cbc565b61026c565b60405161013b9190610dca565b60405180910390f35b61012e61028b565b61015f61015a366004610cf8565b610291565b60405161013b9190610d78565b61017f61017a366004610c8c565b6102c1565b005b61018961036e565b60405161013b9190610dd8565b61017f6101a4366004610b96565b610374565b6101896101b7366004610c8c565b610397565b61017f6101ca366004610b96565b6103e5565b6101896101dd366004610cf8565b610400565b61015f6101f0366004610cf8565b610434565b610189610203366004610b3e565b610456565b61017f610487565b61015f6104e2565b61012e6104f1565b61017f61022e366004610c5c565b610502565b61017f610241366004610be3565b610587565b61012e610254366004610b5c565b6105ad565b61017f610267366004610b3e565b6105db565b6001600160e01b03191660009081526020819052604090205460ff1690565b60015b90565b600061029c826105f8565b6102a557600080fd5b506000908152600260205260409020546001600160a01b031690565b60006102cc82610434565b9050806001600160a01b0316836001600160a01b031614156102ed57600080fd5b336001600160a01b0382161480610309575061030981336105ad565b61031257600080fd5b60008281526002602052604080822080546001600160a01b0319166001600160a01b0387811691821790925591518593918516917f8c5be1e5ebec7d5bd14f71427d1e84f3dd0314c0f7b2291e5b200ac8c7c3b92591a4505050565b60075490565b61037e3382610615565b61038757600080fd5b610392838383610674565b505050565b60006103a283610456565b82106103ad57600080fd5b6001600160a01b03831660009081526005602052604090208054839081106103d157fe5b906000526020600020015490505b92915050565b61039283838360405180602001604052806000815250610587565b600061040a61036e565b821061041557600080fd5b6007828154811061042257fe5b90600052602060002001549050919050565b6000818152600160205260408120546001600160a01b0316806103df57600080fd5b60006001600160a01b03821661046b57600080fd5b506001600160a01b031660009081526003602052604090205490565b61048f6104f1565b61049857600080fd5b6009546040516000916001600160a01b0316907f8be0079c531659141344cd1fd0a4f28419497f9722a3daafe3b4186f6b6457e0908390a3600980546001600160a01b0319169055565b6009546001600160a01b031690565b6009546001600160a01b0316331490565b6001600160a01b03821633141561051857600080fd5b3360008181526004602090815260408083206001600160a01b038716808552925291829020805460ff191685151517905590519091907f17307eab39ab6107e8899845ad3d59bd9653f200f220920489ca2b5937696c319061057b908590610dca565b60405180910390a35050565b610592848484610374565b61059e84848484610693565b6105a757600080fd5b50505050565b6001600160a01b03918216600090815260046020908152604080832093909416825291909152205460ff1690565b6105e36104f1565b6105ec57600080fd5b6105f581610758565b50565b6000908152600160205260409020546001600160a01b0316151590565b60008061062183610434565b9050806001600160a01b0316846001600160a01b0316148061065c5750836001600160a01b031661065184610291565b6001600160a01b0316145b8061066c575061066c81856105ad565b949350505050565b61067f8383836107c7565b61068983826108d4565b61039282826109c9565b60006106a7846001600160a01b0316610a07565b6106b35750600161066c565b604051630a85bd0160e11b81526000906001600160a01b0386169063150b7a02906106e89033908a9089908990600401610d86565b602060405180830381600087803b15801561070257600080fd5b505af1158015610716573d6000803e3d6000fd5b505050506040513d601f19601f8201168201806040525061073a9190810190610cda565b6001600160e01b031916630a85bd0160e11b14915050949350505050565b6001600160a01b03811661076b57600080fd5b6009546040516001600160a01b038084169216907f8be0079c531659141344cd1fd0a4f28419497f9722a3daafe3b4186f6b6457e090600090a3600980546001600160a01b0319166001600160a01b0392909216919091179055565b826001600160a01b03166107da82610434565b6001600160a01b0316146107ed57600080fd5b6001600160a01b03821661080057600080fd5b61080981610a0d565b6001600160a01b03831660009081526003602052604090205461083390600163ffffffff610a4816565b6001600160a01b03808516600090815260036020526040808220939093559084168152205461086990600163ffffffff610a5d16565b6001600160a01b038084166000818152600360209081526040808320959095558582526001905283812080546001600160a01b031916831790559251849391928716917fddf252ad1be2c89b69c2b068fc378daa952ba7f163c4a11628f55a4df523b3ef91a4505050565b6001600160a01b0382166000908152600560205260408120546108fe90600163ffffffff610a4816565b600083815260066020526040902054909150808214610999576001600160a01b038416600090815260056020526040812080548490811061093b57fe5b906000526020600020015490508060056000876001600160a01b03166001600160a01b03168152602001908152602001600020838154811061097957fe5b600091825260208083209091019290925591825260069052604090208190555b6001600160a01b03841660009081526005602052604090208054906109c2906000198301610a76565b5050505050565b6001600160a01b0390911660009081526005602081815260408084208054868652600684529185208290559282526001810183559183529091200155565b3b151590565b6000818152600260205260409020546001600160a01b0316156105f557600090815260026020526040902080546001600160a01b0319169055565b600082821115610a5757600080fd5b50900390565b600082820183811015610a6f57600080fd5b9392505050565b8154818355818111156103925760008381526020902061039291810190830161028e91905b80821115610aaf5760008155600101610a9b565b5090565b80356103df81610ebe565b80356103df81610ed2565b80356103df81610edb565b80516103df81610edb565b600082601f830112610af057600080fd5b8135610b03610afe82610e0d565b610de6565b91508082526020830160208301858383011115610b1f57600080fd5b610b2a838284610e7c565b50505092915050565b80356103df81610ee4565b600060208284031215610b5057600080fd5b600061066c8484610ab3565b60008060408385031215610b6f57600080fd5b6000610b7b8585610ab3565b9250506020610b8c85828601610ab3565b9150509250929050565b600080600060608486031215610bab57600080fd5b6000610bb78686610ab3565b9350506020610bc886828701610ab3565b9250506040610bd986828701610b33565b9150509250925092565b60008060008060808587031215610bf957600080fd5b6000610c058787610ab3565b9450506020610c1687828801610ab3565b9350506040610c2787828801610b33565b925050606085013567ffffffffffffffff811115610c4457600080fd5b610c5087828801610adf565b91505092959194509250565b60008060408385031215610c6f57600080fd5b6000610c7b8585610ab3565b9250506020610b8c85828601610abe565b60008060408385031215610c9f57600080fd5b6000610cab8585610ab3565b9250506020610b8c85828601610b33565b600060208284031215610cce57600080fd5b600061066c8484610ac9565b600060208284031215610cec57600080fd5b600061066c8484610ad4565b600060208284031215610d0a57600080fd5b600061066c8484610b33565b610d1f81610e6b565b82525050565b610d1f81610e42565b610d1f81610e4d565b6000610d4282610e35565b610d4c8185610e39565b9350610d5c818560208601610e88565b610d6581610eb4565b9093019392505050565b610d1f8161028e565b602081016103df8284610d25565b60808101610d948287610d16565b610da16020830186610d25565b610dae6040830185610d6f565b8181036060830152610dc08184610d37565b9695505050505050565b602081016103df8284610d2e565b602081016103df8284610d6f565b60405181810167ffffffffffffffff81118282101715610e0557600080fd5b604052919050565b600067ffffffffffffffff821115610e2457600080fd5b506020601f91909101601f19160190565b5190565b90815260200190565b60006103df82610e5f565b151590565b6001600160e01b03191690565b6001600160a01b031690565b60006103df8260006103df82610e42565b82818337506000910152565b60005b83811015610ea3578181015183820152602001610e8b565b838111156105a75750506000910152565b601f01601f191690565b610ec781610e42565b81146105f557600080fd5b610ec781610e4d565b610ec781610e52565b610ec78161028e56fea365627a7a72315820a25b23cd813ca4096735b36145f82428c0d493584aed256bf1eef4095bef84176c6578706572696d656e74616cf564736f6c634300050c0040",
  "source": "pragma solidity ^0.5.2;\npragma experimental ABIEncoderV2;\n\n// Storage\nimport \"./storage/WtConstants.sol\";\n\nimport \"openzeppelin-solidity/contracts/token/ERC721/ERC721.sol\";\nimport \"openzeppelin-solidity/contracts/token/ERC721/ERC721Enumerable.sol\";\n\nimport \"openzeppelin-solidity/contracts/ownership/Ownable.sol\";\n\n\ncontract TicketFactory is ERC721, ERC721Enumerable, WtConstants, Ownable {\n\n    constructor() public {}\n\n    function testFunc() public returns (bool) {\n        return WtConstants.CONFIRMED;\n    }\n\n}\n",
  "sourcePath": "/Users/unomasanori/projects/DEMO_MVP/Gitcoin-Global-Communities-Hackcathon/walletConnect-ticketing-dapp/contracts/TicketFactory.sol",
  "compiler": {
    "name": "solc",
    "version": "0.5.12+commit.7709ece9.Emscripten.clang"
  },
  "schemaVersion": "3.0.19",
  "updatedAt": "2019-12-06T13:34:48.812Z",
  "networkType": "ethereum",
  "devdoc": {
    "methods": {
      "approve(address,uint256)": {
        "details": "Approves another address to transfer the given token ID The zero address indicates there is no approved address. There can only be one approved address per token at a given time. Can only be called by the token owner or an approved operator.",
        "params": {
          "to": "address to be approved for the given token ID",
          "tokenId": "uint256 ID of the token to be approved"
        }
      },
      "balanceOf(address)": {
        "details": "Gets the balance of the specified address",
        "params": {
          "owner": "address to query the balance of"
        },
        "return": "uint256 representing the amount owned by the passed address"
      },
      "getApproved(uint256)": {
        "details": "Gets the approved address for a token ID, or zero if no address set Reverts if the token ID does not exist.",
        "params": {
          "tokenId": "uint256 ID of the token to query the approval of"
        },
        "return": "address currently approved for the given token ID"
      },
      "isApprovedForAll(address,address)": {
        "details": "Tells whether an operator is approved by a given owner",
        "params": {
          "operator": "operator address which you want to query the approval of",
          "owner": "owner address which you want to query the approval of"
        },
        "return": "bool whether the given operator is approved by the given owner"
      },
      "isOwner()": {
        "return": "true if `msg.sender` is the owner of the contract."
      },
      "owner()": {
        "return": "the address of the owner."
      },
      "ownerOf(uint256)": {
        "details": "Gets the owner of the specified token ID",
        "params": {
          "tokenId": "uint256 ID of the token to query the owner of"
        },
        "return": "owner address currently marked as the owner of the given token ID"
      },
      "renounceOwnership()": {
        "details": "Allows the current owner to relinquish control of the contract."
      },
      "safeTransferFrom(address,address,uint256)": {
        "details": "Safely transfers the ownership of a given token ID to another address If the target address is a contract, it must implement `onERC721Received`, which is called upon a safe transfer, and return the magic value `bytes4(keccak256(\"onERC721Received(address,address,uint256,bytes)\"))`; otherwise, the transfer is reverted.     * Requires the msg sender to be the owner, approved, or operator",
        "params": {
          "from": "current owner of the token",
          "to": "address to receive the ownership of the given token ID",
          "tokenId": "uint256 ID of the token to be transferred"
        }
      },
      "safeTransferFrom(address,address,uint256,bytes)": {
        "details": "Safely transfers the ownership of a given token ID to another address If the target address is a contract, it must implement `onERC721Received`, which is called upon a safe transfer, and return the magic value `bytes4(keccak256(\"onERC721Received(address,address,uint256,bytes)\"))`; otherwise, the transfer is reverted. Requires the msg sender to be the owner, approved, or operator",
        "params": {
          "_data": "bytes data to send along with a safe transfer check",
          "from": "current owner of the token",
          "to": "address to receive the ownership of the given token ID",
          "tokenId": "uint256 ID of the token to be transferred"
        }
      },
      "setApprovalForAll(address,bool)": {
        "details": "Sets or unsets the approval of a given operator An operator is allowed to transfer all tokens of the sender on their behalf",
        "params": {
          "approved": "representing the status of the approval to be set",
          "to": "operator address to set the approval"
        }
      },
      "supportsInterface(bytes4)": {
        "details": "implement supportsInterface(bytes4) using a lookup table"
      },
      "tokenByIndex(uint256)": {
        "details": "Gets the token ID at a given index of all the tokens in this contract Reverts if the index is greater or equal to the total number of tokens",
        "params": {
          "index": "uint256 representing the index to be accessed of the tokens list"
        },
        "return": "uint256 token ID at the given index of the tokens list"
      },
      "tokenOfOwnerByIndex(address,uint256)": {
        "details": "Gets the token ID at a given index of the tokens list of the requested owner",
        "params": {
          "index": "uint256 representing the index to be accessed of the requested tokens list",
          "owner": "address owning the tokens list to be accessed"
        },
        "return": "uint256 token ID at the given index of the tokens list owned by the requested address"
      },
      "totalSupply()": {
        "details": "Gets the total amount of tokens stored by the contract",
        "return": "uint256 representing the total amount of tokens"
      },
      "transferFrom(address,address,uint256)": {
        "details": "Transfers the ownership of a given token ID to another address Usage of this method is discouraged, use `safeTransferFrom` whenever possible Requires the msg sender to be the owner, approved, or operator",
        "params": {
          "from": "current owner of the token",
          "to": "address to receive the ownership of the given token ID",
          "tokenId": "uint256 ID of the token to be transferred"
        }
      },
      "transferOwnership(address)": {
        "details": "Allows the current owner to transfer control of the contract to a newOwner.",
        "params": {
          "newOwner": "The address to transfer ownership to."
        }
      }
    }
  },
  "userdoc": {
    "methods": {
      "renounceOwnership()": {
        "notice": "Renouncing to ownership will leave the contract without an owner. It will not be possible to call the functions with the `onlyOwner` modifier anymore."
      }
    }
  }
}