{
  "contractName": "TicketMarket",
  "abi": [
    {
      "inputs": [
        {
          "internalType": "address",
          "name": "_ticketFactoryContract",
          "type": "address"
        },
        {
          "internalType": "address",
          "name": "_erc20TestTokenContract",
          "type": "address"
        },
        {
          "internalType": "address",
          "name": "_oceanTokenContract",
          "type": "address"
        }
      ],
      "payable": false,
      "stateMutability": "nonpayable",
      "type": "constructor"
    },
    {
      "anonymous": false,
      "inputs": [
        {
          "indexed": false,
          "internalType": "uint256",
          "name": "exampleId",
          "type": "uint256"
        },
        {
          "indexed": false,
          "internalType": "string",
          "name": "exampleName",
          "type": "string"
        },
        {
          "indexed": false,
          "internalType": "address",
          "name": "exampleAddr",
          "type": "address"
        }
      ],
      "name": "ExampleEvent",
      "type": "event"
    },
    {
      "anonymous": false,
      "inputs": [
        {
          "indexed": true,
          "internalType": "uint256",
          "name": "_ticketId",
          "type": "uint256"
        },
        {
          "indexed": false,
          "internalType": "uint256",
          "name": "_price",
          "type": "uint256"
        },
        {
          "indexed": false,
          "internalType": "address",
          "name": "_token",
          "type": "address"
        }
      ],
      "name": "LogPublishForSale",
      "type": "event"
    },
    {
      "anonymous": false,
      "inputs": [
        {
          "indexed": true,
          "internalType": "address",
          "name": "previousOwner",
          "type": "address"
        },
        {
          "indexed": true,
          "internalType": "address",
          "name": "newOwner",
          "type": "address"
        }
      ],
      "name": "OwnershipTransferred",
      "type": "event"
    },
    {
      "constant": true,
      "inputs": [],
      "name": "erc20Token",
      "outputs": [
        {
          "internalType": "contract Erc20TestToken",
          "name": "",
          "type": "address"
        }
      ],
      "payable": false,
      "stateMutability": "view",
      "type": "function"
    },
    {
      "constant": true,
      "inputs": [],
      "name": "factory",
      "outputs": [
        {
          "internalType": "contract TicketFactory",
          "name": "",
          "type": "address"
        }
      ],
      "payable": false,
      "stateMutability": "view",
      "type": "function"
    },
    {
      "constant": true,
      "inputs": [],
      "name": "ierc20",
      "outputs": [
        {
          "internalType": "contract IERC20interface",
          "name": "",
          "type": "address"
        }
      ],
      "payable": false,
      "stateMutability": "view",
      "type": "function"
    },
    {
      "constant": true,
      "inputs": [],
      "name": "isOwner",
      "outputs": [
        {
          "internalType": "bool",
          "name": "",
          "type": "bool"
        }
      ],
      "payable": false,
      "stateMutability": "view",
      "type": "function"
    },
    {
      "constant": true,
      "inputs": [],
      "name": "oceanToken",
      "outputs": [
        {
          "internalType": "contract OceanToken",
          "name": "",
          "type": "address"
        }
      ],
      "payable": false,
      "stateMutability": "view",
      "type": "function"
    },
    {
      "constant": true,
      "inputs": [],
      "name": "owner",
      "outputs": [
        {
          "internalType": "address",
          "name": "",
          "type": "address"
        }
      ],
      "payable": false,
      "stateMutability": "view",
      "type": "function"
    },
    {
      "constant": true,
      "inputs": [
        {
          "internalType": "uint256",
          "name": "",
          "type": "uint256"
        }
      ],
      "name": "purchasableTickets",
      "outputs": [
        {
          "internalType": "bool",
          "name": "forSale",
          "type": "bool"
        },
        {
          "internalType": "address",
          "name": "acceptedToken",
          "type": "address"
        },
        {
          "internalType": "uint256",
          "name": "PurchasePrice",
          "type": "uint256"
        }
      ],
      "payable": false,
      "stateMutability": "view",
      "type": "function"
    },
    {
      "constant": false,
      "inputs": [],
      "name": "renounceOwnership",
      "outputs": [],
      "payable": false,
      "stateMutability": "nonpayable",
      "type": "function"
    },
    {
      "constant": false,
      "inputs": [
        {
          "internalType": "address",
          "name": "newOwner",
          "type": "address"
        }
      ],
      "name": "transferOwnership",
      "outputs": [],
      "payable": false,
      "stateMutability": "nonpayable",
      "type": "function"
    },
    {
      "constant": false,
      "inputs": [],
      "name": "testFunc",
      "outputs": [
        {
          "internalType": "bool",
          "name": "",
          "type": "bool"
        }
      ],
      "payable": false,
      "stateMutability": "nonpayable",
      "type": "function"
    },
    {
      "constant": false,
      "inputs": [
        {
          "internalType": "uint256",
          "name": "_ticketId",
          "type": "uint256"
        }
      ],
      "name": "ownerOfTicket",
      "outputs": [
        {
          "internalType": "address",
          "name": "",
          "type": "address"
        }
      ],
      "payable": false,
      "stateMutability": "nonpayable",
      "type": "function"
    },
    {
      "constant": false,
      "inputs": [],
      "name": "factoryMint",
      "outputs": [
        {
          "internalType": "bool",
          "name": "",
          "type": "bool"
        }
      ],
      "payable": false,
      "stateMutability": "nonpayable",
      "type": "function"
    },
    {
      "constant": false,
      "inputs": [
        {
          "internalType": "uint256",
          "name": "_ticketId",
          "type": "uint256"
        }
      ],
      "name": "buyTicket",
      "outputs": [],
      "payable": false,
      "stateMutability": "nonpayable",
      "type": "function"
    },
    {
      "constant": true,
      "inputs": [],
      "name": "totalSupplyERC20",
      "outputs": [
        {
          "internalType": "uint256",
          "name": "",
          "type": "uint256"
        }
      ],
      "payable": false,
      "stateMutability": "view",
      "type": "function"
    },
    {
      "constant": true,
      "inputs": [
        {
          "internalType": "address",
          "name": "who",
          "type": "address"
        }
      ],
      "name": "balanceOfERC20",
      "outputs": [
        {
          "internalType": "uint256",
          "name": "",
          "type": "uint256"
        }
      ],
      "payable": false,
      "stateMutability": "view",
      "type": "function"
    },
    {
      "constant": false,
      "inputs": [
        {
          "internalType": "address",
          "name": "to",
          "type": "address"
        },
        {
          "internalType": "uint256",
          "name": "value",
          "type": "uint256"
        }
      ],
      "name": "testTransferFrom",
      "outputs": [
        {
          "internalType": "bool",
          "name": "",
          "type": "bool"
        }
      ],
      "payable": false,
      "stateMutability": "nonpayable",
      "type": "function"
    },
    {
      "constant": false,
      "inputs": [
        {
          "internalType": "address",
          "name": "to",
          "type": "address"
        },
        {
          "internalType": "uint256",
          "name": "value",
          "type": "uint256"
        }
      ],
      "name": "testTransfer",
      "outputs": [
        {
          "internalType": "bool",
          "name": "",
          "type": "bool"
        }
      ],
      "payable": false,
      "stateMutability": "nonpayable",
      "type": "function"
    },
    {
      "constant": true,
      "inputs": [
        {
          "internalType": "uint256",
          "name": "ticketId",
          "type": "uint256"
        }
      ],
      "name": "getPurchasableTicket",
      "outputs": [
        {
          "components": [
            {
              "internalType": "bool",
              "name": "forSale",
              "type": "bool"
            },
            {
              "internalType": "address",
              "name": "acceptedToken",
              "type": "address"
            },
            {
              "internalType": "uint256",
              "name": "PurchasePrice",
              "type": "uint256"
            }
          ],
          "internalType": "struct WtObjects.PurchasableTicket",
          "name": "",
          "type": "tuple"
        }
      ],
      "payable": false,
      "stateMutability": "view",
      "type": "function"
    },
    {
      "constant": false,
      "inputs": [
        {
          "internalType": "address",
          "name": "to",
          "type": "address"
        },
        {
          "internalType": "uint256",
          "name": "amount",
          "type": "uint256"
        }
      ],
      "name": "buyDai",
      "outputs": [
        {
          "internalType": "bool",
          "name": "",
          "type": "bool"
        }
      ],
      "payable": true,
      "stateMutability": "payable",
      "type": "function"
    },
    {
      "constant": false,
      "inputs": [
        {
          "internalType": "uint256",
          "name": "_ticketId",
          "type": "uint256"
        },
        {
          "internalType": "address",
          "name": "buyer",
          "type": "address"
        }
      ],
      "name": "_buyTicket",
      "outputs": [],
      "payable": false,
      "stateMutability": "nonpayable",
      "type": "function"
    }
  ],
  "bytecode": "0x608060405234801561001057600080fd5b50604051610e4f380380610e4f83398101604081905261002f916100e3565b600080546001600160a01b03191633178082556040516001600160a01b039190911691907f8be0079c531659141344cd1fd0a4f28419497f9722a3daafe3b4186f6b6457e0908290a3600380546001600160a01b03199081166001600160a01b0395861617909155600480548216938516939093179092556005805483169190931690811790925560078054821683179055600680549091169091179055610158565b80516100dd81610141565b92915050565b6000806000606084860312156100f857600080fd5b600061010486866100d2565b9350506020610115868287016100d2565b9250506040610126868287016100d2565b9150509250925092565b60006001600160a01b0382166100dd565b61014a81610130565b811461015557600080fd5b50565b610ce8806101676000396000f3fe60806040526004361061011f5760003560e01c80638f32d59b116100a0578063c0860c2c11610064578063c0860c2c146102e0578063c45a015514610300578063d544bce414610315578063d93db24f14610344578063f2fde38b146103645761011f565b80638f32d59b1461026e578063a0e7026714610283578063ba15ec0b146102a3578063baabf9b9146102b6578063bf0ae63d146102cb5761011f565b806367dd74ca116100e757806367dd74ca146101e0578063715018a6146102025780637b8d771e146102175780638a13eea7146102375780638da5cb5b1461024c5761011f565b8063037a417c1461012457806311d5c5461461014f5780631d32a07e1461017c578063244bb7f01461019e5780632e4ebd19146101c0575b600080fd5b34801561013057600080fd5b50610139610384565b6040516101469190610c08565b60405180910390f35b34801561015b57600080fd5b5061016f61016a366004610ad7565b610389565b6040516101469190610c32565b34801561018857600080fd5b506101916103d9565b6040516101469190610c40565b3480156101aa57600080fd5b506101b361045f565b6040516101469190610c24565b3480156101cc57600080fd5b506101396101db366004610a7f565b61046e565b3480156101ec57600080fd5b506102006101fb366004610ad7565b610507565b005b34801561020e57600080fd5b50610200610514565b34801561022357600080fd5b50610200610232366004610b13565b61056f565b34801561024357600080fd5b506101b361068d565b34801561025857600080fd5b5061026161069c565b6040516101469190610ba9565b34801561027a57600080fd5b506101396106ab565b34801561028f57600080fd5b5061013961029e366004610a7f565b6106bc565b6101396102b1366004610a7f565b61074b565b3480156102c257600080fd5b50610139610782565b3480156102d757600080fd5b506101b3610808565b3480156102ec57600080fd5b506102616102fb366004610ad7565b610817565b34801561030c57600080fd5b506101b361089a565b34801561032157600080fd5b50610335610330366004610ad7565b6108a9565b60405161014693929190610c16565b34801561035057600080fd5b5061019161035f366004610a3b565b6108d6565b34801561037057600080fd5b5061020061037f366004610a3b565b610961565b600190565b6103916109e4565b506000908152600160208181526040928390208351606081018552815460ff81161515825261010090046001600160a01b031692810192909252909101549181019190915290565b600554604080516318160ddd60e01b815290516000926001600160a01b03169182916318160ddd91600480820192602092909190829003018186803b15801561042157600080fd5b505afa158015610435573d6000803e3d6000fd5b505050506040513d601f19601f820116820180604052506104599190810190610af5565b91505090565b6005546001600160a01b031681565b6006546040516323b872dd60e01b8152600091600a916001600160a01b03909116906323b872dd906104a890339088908890600401610bb7565b602060405180830381600087803b1580156104c257600080fd5b505af11580156104d6573d6000803e3d6000fd5b505050506040513d601f19601f820116820180604052506104fa9190810190610ab9565b5060019150505b92915050565b610511813361056f565b50565b61051c6106ab565b61052557600080fd5b600080546040516001600160a01b03909116907f8be0079c531659141344cd1fd0a4f28419497f9722a3daafe3b4186f6b6457e0908390a3600080546001600160a01b0319169055565b600354600a906001600160a01b031663693993b261058c85610817565b84866040518463ffffffff1660e01b81526004016105ac93929190610bdf565b602060405180830381600087803b1580156105c657600080fd5b505af11580156105da573d6000803e3d6000fd5b505050506040513d601f19601f820116820180604052506105fe9190810190610ab9565b50600360009054906101000a90046001600160a01b03166001600160a01b0316631249c58b6040518163ffffffff1660e01b8152600401602060405180830381600087803b15801561064f57600080fd5b505af1158015610663573d6000803e3d6000fd5b505050506040513d601f19601f820116820180604052506106879190810190610ab9565b50505050565b6004546001600160a01b031681565b6000546001600160a01b031690565b6000546001600160a01b0316331490565b60065460405163a9059cbb60e01b81526000916001600160a01b03169063a9059cbb906106ef9086908690600401610bed565b602060405180830381600087803b15801561070957600080fd5b505af115801561071d573d6000803e3d6000fd5b505050506040513d601f19601f820116820180604052506107419190810190610ab9565b5060019392505050565b6007546040516323b872dd60e01b81526000916001600160a01b03169081906323b872dd906104a890339088908890600401610bb7565b60035460408051631249c58b60e01b815290516000926001600160a01b031691631249c58b91600480830192602092919082900301818787803b1580156107c857600080fd5b505af11580156107dc573d6000803e3d6000fd5b505050506040513d601f19601f820116820180604052506108009190810190610ab9565b506001905090565b6006546001600160a01b031681565b600354604051633835054160e01b81526000916001600160a01b031690633835054190610848908590600401610c40565b602060405180830381600087803b15801561086257600080fd5b505af1158015610876573d6000803e3d6000fd5b505050506040513d601f19601f820116820180604052506105019190810190610a61565b6003546001600160a01b031681565b6001602081905260009182526040909120805491015460ff82169161010090046001600160a01b03169083565b600480546040516370a0823160e01b81526000926001600160a01b039092169182916370a082319161090a91879101610ba9565b60206040518083038186803b15801561092257600080fd5b505afa158015610936573d6000803e3d6000fd5b505050506040513d601f19601f8201168201806040525061095a9190810190610af5565b9392505050565b6109696106ab565b61097257600080fd5b610511816001600160a01b03811661098957600080fd5b600080546040516001600160a01b03808516939216917f8be0079c531659141344cd1fd0a4f28419497f9722a3daafe3b4186f6b6457e091a3600080546001600160a01b0319166001600160a01b0392909216919091179055565b604080516060810182526000808252602082018190529181019190915290565b803561050181610c7f565b805161050181610c7f565b805161050181610c93565b803561050181610c9c565b805161050181610c9c565b600060208284031215610a4d57600080fd5b6000610a598484610a04565b949350505050565b600060208284031215610a7357600080fd5b6000610a598484610a0f565b60008060408385031215610a9257600080fd5b6000610a9e8585610a04565b9250506020610aaf85828601610a25565b9150509250929050565b600060208284031215610acb57600080fd5b6000610a598484610a1a565b600060208284031215610ae957600080fd5b6000610a598484610a25565b600060208284031215610b0757600080fd5b6000610a598484610a30565b60008060408385031215610b2657600080fd5b6000610b328585610a25565b9250506020610aaf85828601610a04565b610b4c81610c6d565b82525050565b610b4c81610c4e565b610b4c81610c59565b610b4c81610c74565b80516060830190610b7e8482610b5b565b506020820151610b916020850182610b52565b50604082015161068760408501825b610b4c81610c6a565b602081016105018284610b52565b60608101610bc58286610b43565b610bd26020830185610b52565b610a596040830184610ba0565b60608101610bc58286610b52565b60408101610bfb8285610b52565b61095a6020830184610ba0565b602081016105018284610b5b565b60608101610bc58286610b5b565b602081016105018284610b64565b606081016105018284610b6d565b602081016105018284610ba0565b600061050182610c5e565b151590565b6001600160a01b031690565b90565b6000610501825b600061050182610c4e565b610c8881610c4e565b811461051157600080fd5b610c8881610c59565b610c8881610c6a56fea365627a7a723158204175baefeaee524da80430e4f12cfb49d3ba96ac0c48b97f4a345ad744b108676c6578706572696d656e74616cf564736f6c634300050c0040",
  "source": "pragma solidity ^0.5.2;\npragma experimental ABIEncoderV2;\n\nimport \"./TicketFactory.sol\";\n\n// Storage\nimport \"./storage/WtConstants.sol\";\nimport \"./storage/WtStorage.sol\";\n\nimport \"./Erc20TestToken.sol\";\nimport \"./OceanToken.sol\";\n\n//import \"openzeppelin-solidity/contracts/token/ERC20/ERC20.sol\";\n\n\n/**\n * @title ERC20 interface\n * @dev see https://github.com/ethereum/EIPs/issues/20\n */\ninterface IERC20interface {\n    function transfer(address to, uint256 value) external returns (bool);\n\n    function approve(address spender, uint256 value) external returns (bool);\n\n    function transferFrom(address from, address to, uint256 value) external returns (bool);\n\n    function totalSupply() external view returns (uint256);\n\n    function balanceOf(address who) external view returns (uint256);\n\n    function allowance(address owner, address spender) external view returns (uint256);\n\n    event Transfer(address indexed from, address indexed to, uint256 value);\n\n    event Approval(address indexed owner, address indexed spender, uint256 value);\n}\n\n\n\n\ncontract TicketMarket is WtStorage, WtConstants {\n\n    TicketFactory public factory;\n    Erc20TestToken public erc20Token;\n    OceanToken public oceanToken;\n\n    IERC20interface public ierc20;\n\n    address oceanTokenContract;\n\n    constructor(address _ticketFactoryContract, address _erc20TestTokenContract, address _oceanTokenContract) public {\n        factory = TicketFactory(_ticketFactoryContract);\n        erc20Token = Erc20TestToken(_erc20TestTokenContract);\n        oceanToken = OceanToken(_oceanTokenContract);\n\n        oceanTokenContract = _oceanTokenContract;\n\n        ierc20 = IERC20interface(_oceanTokenContract);\n    }\n\n\n    function testFunc() public returns (bool) {\n        return WtConstants.CONFIRMED;\n    }\n\n    // @notice owner address of ERC721 token which is specified\n    // @param _ticketId is tokenId\n    function ownerOfTicket(uint _ticketId) public returns (address) {\n        return factory._ownerOf(_ticketId);\n    }\n    \n\n    // @notice test of inherited mint() from TicketFactory.sol\n    function factoryMint() public returns (bool) {\n        factory.mint();\n        return true;\n    }\n    \n\n\n    /// @notice buys a certificate\n    /// @param _ticketId the id of the ticket \n    function buyTicket(uint _ticketId) public {\n        _buyTicket(_ticketId, msg.sender);\n    }\n    \n\n    function totalSupplyERC20() public view returns (uint256) {\n        IERC20 erc20 = IERC20(oceanToken);\n        return erc20.totalSupply();\n        //return oceanToken._totalSupply();\n    }\n    \n\n    function balanceOfERC20(address who) public view returns (uint256) {\n        IERC20 erc20 = IERC20(erc20Token);\n        return erc20.balanceOf(who);\n    }\n    \n\n\n    function testTransferFrom(address to, uint256 value) public returns(bool) {\n        uint purchasePrice = 10;\n\n        //IERC20 erc20 = IERC20(oceanToken);\n        //erc20.transferFrom(from, to, value);\n        ierc20.transferFrom(msg.sender, to, value);\n\n        //return erc20Token._transferFrom(from, to, value);\n        //oceanToken.transferFrom(from, to, value);\n        return true;\n    }\n    \n\n    function testTransfer(address to, uint256 value) public returns(bool) {\n        //IERC20 erc20 = IERC20(oceanToken);\n        //ERC20 erc20 = ERC20(erc20Token);\n        //erc20.transfer(to, value);\n\n        ierc20.transfer(to, value);\n\n        //erc20Token.transfer(to, value);\n        //oceanToken.transfer(to, value);\n        return true;\n    }\n\n\n    function getPurchasableTicket(uint ticketId)\n        public view returns (PurchasableTicket memory)\n    {\n\n        return purchasableTickets[ticketId];\n    }\n\n\n\n    function buyDai(address to, uint amount) public payable returns (bool) {\n\n        ERC20 daiToken = ERC20(oceanTokenContract);\n        //ERC20 daiToken = ERC20(0x89d24a6b4ccb1b6faa2625fe562bdd9a23260359);\n        daiToken.transferFrom(msg.sender, to, amount);\n        return true;\n    }\n\n    \n\n\n    /**********************\n     * internal functions\n    ***********************/\n\n    function _buyTicket(uint _ticketId, address buyer) public {\n        //PurchasableTicket memory pTicket = getPurchasableTicket(_ticketId);\n        uint purchasePrice = 10;\n\n        //IERC20 erc20 = IERC20(erc20Token);\n        //erc20Token._transferFrom(buyer, ownerOfTicket(_ticketId), purchasePrice);\n        //erc20Token.transferFrom(buyer, factory._ownerOf(_ticketId), purchasePrice);\n        //erc20.transferFrom(buyer, factory.ownerOf(_ticketId), pTicket.PurchasePrice);\n   \n        factory._transferTicketFrom(ownerOfTicket(_ticketId), buyer, _ticketId);\n        //factory.transferFrom(factory.ownerOf(_ticketId), buyer, _ticketId);\n        \n        //_removeTokenAndPrice(_ticketId);\n\n        //unpublishForSale(_ticketId);\n\n        factory.mint();\n    }\n\n}\n",
  "sourcePath": "/Users/unomasanori/projects/DEMO_MVP/Gitcoin-Global-Communities-Hackcathon/walletConnect-ticketing-dapp/contracts/TicketMarket.sol",
  "compiler": {
    "name": "solc",
    "version": "0.5.12+commit.7709ece9.Emscripten.clang"
  },
  "schemaVersion": "3.0.19",
  "updatedAt": "2019-12-11T20:33:31.647Z",
  "networkType": "ethereum",
  "devdoc": {
    "methods": {
      "buyTicket(uint256)": {
        "params": {
          "_ticketId": "the id of the ticket "
        }
      },
      "isOwner()": {
        "return": "true if `msg.sender` is the owner of the contract."
      },
      "owner()": {
        "return": "the address of the owner."
      },
      "renounceOwnership()": {
        "details": "Allows the current owner to relinquish control of the contract."
      },
      "transferOwnership(address)": {
        "details": "Allows the current owner to transfer control of the contract to a newOwner.",
        "params": {
          "newOwner": "The address to transfer ownership to."
        }
      }
    }
  },
  "userdoc": {
    "methods": {
      "_buyTicket(uint256,address)": {
        "notice": "******************** internal functions**********************"
      },
      "buyTicket(uint256)": {
        "notice": "buys a certificate"
      },
      "renounceOwnership()": {
        "notice": "Renouncing to ownership will leave the contract without an owner. It will not be possible to call the functions with the `onlyOwner` modifier anymore."
      }
    }
  }
}