{
  "contractName": "TicketMarket",
  "abi": [
    {
      "inputs": [
        {
          "internalType": "address",
          "name": "_ticketFactoryContract",
          "type": "address"
        },
        {
          "internalType": "address",
          "name": "_erc20TestTokenContract",
          "type": "address"
        },
        {
          "internalType": "address",
          "name": "_oceanTokenContract",
          "type": "address"
        }
      ],
      "payable": false,
      "stateMutability": "nonpayable",
      "type": "constructor"
    },
    {
      "anonymous": false,
      "inputs": [
        {
          "indexed": false,
          "internalType": "uint256",
          "name": "exampleId",
          "type": "uint256"
        },
        {
          "indexed": false,
          "internalType": "string",
          "name": "exampleName",
          "type": "string"
        },
        {
          "indexed": false,
          "internalType": "address",
          "name": "exampleAddr",
          "type": "address"
        }
      ],
      "name": "ExampleEvent",
      "type": "event"
    },
    {
      "anonymous": false,
      "inputs": [
        {
          "indexed": true,
          "internalType": "uint256",
          "name": "_ticketId",
          "type": "uint256"
        },
        {
          "indexed": false,
          "internalType": "uint256",
          "name": "_price",
          "type": "uint256"
        },
        {
          "indexed": false,
          "internalType": "address",
          "name": "_token",
          "type": "address"
        }
      ],
      "name": "LogPublishForSale",
      "type": "event"
    },
    {
      "anonymous": false,
      "inputs": [
        {
          "indexed": true,
          "internalType": "address",
          "name": "previousOwner",
          "type": "address"
        },
        {
          "indexed": true,
          "internalType": "address",
          "name": "newOwner",
          "type": "address"
        }
      ],
      "name": "OwnershipTransferred",
      "type": "event"
    },
    {
      "constant": true,
      "inputs": [],
      "name": "erc20Token",
      "outputs": [
        {
          "internalType": "contract Erc20TestToken",
          "name": "",
          "type": "address"
        }
      ],
      "payable": false,
      "stateMutability": "view",
      "type": "function"
    },
    {
      "constant": true,
      "inputs": [],
      "name": "factory",
      "outputs": [
        {
          "internalType": "contract TicketFactory",
          "name": "",
          "type": "address"
        }
      ],
      "payable": false,
      "stateMutability": "view",
      "type": "function"
    },
    {
      "constant": true,
      "inputs": [],
      "name": "ierc20",
      "outputs": [
        {
          "internalType": "contract IERC20interface",
          "name": "",
          "type": "address"
        }
      ],
      "payable": false,
      "stateMutability": "view",
      "type": "function"
    },
    {
      "constant": true,
      "inputs": [],
      "name": "isOwner",
      "outputs": [
        {
          "internalType": "bool",
          "name": "",
          "type": "bool"
        }
      ],
      "payable": false,
      "stateMutability": "view",
      "type": "function"
    },
    {
      "constant": true,
      "inputs": [],
      "name": "oceanToken",
      "outputs": [
        {
          "internalType": "contract OceanToken",
          "name": "",
          "type": "address"
        }
      ],
      "payable": false,
      "stateMutability": "view",
      "type": "function"
    },
    {
      "constant": true,
      "inputs": [],
      "name": "owner",
      "outputs": [
        {
          "internalType": "address",
          "name": "",
          "type": "address"
        }
      ],
      "payable": false,
      "stateMutability": "view",
      "type": "function"
    },
    {
      "constant": true,
      "inputs": [
        {
          "internalType": "uint256",
          "name": "",
          "type": "uint256"
        }
      ],
      "name": "purchasableTickets",
      "outputs": [
        {
          "internalType": "bool",
          "name": "forSale",
          "type": "bool"
        },
        {
          "internalType": "address",
          "name": "acceptedToken",
          "type": "address"
        },
        {
          "internalType": "uint256",
          "name": "PurchasePrice",
          "type": "uint256"
        }
      ],
      "payable": false,
      "stateMutability": "view",
      "type": "function"
    },
    {
      "constant": false,
      "inputs": [],
      "name": "renounceOwnership",
      "outputs": [],
      "payable": false,
      "stateMutability": "nonpayable",
      "type": "function"
    },
    {
      "constant": false,
      "inputs": [
        {
          "internalType": "address",
          "name": "newOwner",
          "type": "address"
        }
      ],
      "name": "transferOwnership",
      "outputs": [],
      "payable": false,
      "stateMutability": "nonpayable",
      "type": "function"
    },
    {
      "constant": false,
      "inputs": [],
      "name": "testFunc",
      "outputs": [
        {
          "internalType": "bool",
          "name": "",
          "type": "bool"
        }
      ],
      "payable": false,
      "stateMutability": "nonpayable",
      "type": "function"
    },
    {
      "constant": false,
      "inputs": [
        {
          "internalType": "uint256",
          "name": "_ticketId",
          "type": "uint256"
        }
      ],
      "name": "ownerOfTicket",
      "outputs": [
        {
          "internalType": "address",
          "name": "",
          "type": "address"
        }
      ],
      "payable": false,
      "stateMutability": "nonpayable",
      "type": "function"
    },
    {
      "constant": false,
      "inputs": [
        {
          "internalType": "address",
          "name": "_callAddress",
          "type": "address"
        }
      ],
      "name": "factoryMint",
      "outputs": [
        {
          "internalType": "bool",
          "name": "",
          "type": "bool"
        }
      ],
      "payable": false,
      "stateMutability": "nonpayable",
      "type": "function"
    },
    {
      "constant": false,
      "inputs": [
        {
          "internalType": "address",
          "name": "_from",
          "type": "address"
        },
        {
          "internalType": "address",
          "name": "_to",
          "type": "address"
        },
        {
          "internalType": "uint256",
          "name": "_ticketId",
          "type": "uint256"
        }
      ],
      "name": "factoryTransferFrom",
      "outputs": [
        {
          "internalType": "bool",
          "name": "",
          "type": "bool"
        }
      ],
      "payable": false,
      "stateMutability": "nonpayable",
      "type": "function"
    },
    {
      "constant": false,
      "inputs": [
        {
          "internalType": "uint256",
          "name": "_ticketId",
          "type": "uint256"
        }
      ],
      "name": "buyTicket",
      "outputs": [],
      "payable": false,
      "stateMutability": "nonpayable",
      "type": "function"
    },
    {
      "constant": true,
      "inputs": [],
      "name": "totalSupplyERC20",
      "outputs": [
        {
          "internalType": "uint256",
          "name": "",
          "type": "uint256"
        }
      ],
      "payable": false,
      "stateMutability": "view",
      "type": "function"
    },
    {
      "constant": true,
      "inputs": [
        {
          "internalType": "address",
          "name": "who",
          "type": "address"
        }
      ],
      "name": "balanceOfERC20",
      "outputs": [
        {
          "internalType": "uint256",
          "name": "",
          "type": "uint256"
        }
      ],
      "payable": false,
      "stateMutability": "view",
      "type": "function"
    },
    {
      "constant": false,
      "inputs": [
        {
          "internalType": "address",
          "name": "from",
          "type": "address"
        },
        {
          "internalType": "address",
          "name": "to",
          "type": "address"
        },
        {
          "internalType": "uint256",
          "name": "value",
          "type": "uint256"
        }
      ],
      "name": "testTransferFrom",
      "outputs": [
        {
          "internalType": "bool",
          "name": "",
          "type": "bool"
        }
      ],
      "payable": false,
      "stateMutability": "nonpayable",
      "type": "function"
    },
    {
      "constant": false,
      "inputs": [
        {
          "internalType": "address",
          "name": "to",
          "type": "address"
        },
        {
          "internalType": "uint256",
          "name": "value",
          "type": "uint256"
        }
      ],
      "name": "testTransfer",
      "outputs": [
        {
          "internalType": "bool",
          "name": "",
          "type": "bool"
        }
      ],
      "payable": false,
      "stateMutability": "nonpayable",
      "type": "function"
    },
    {
      "constant": true,
      "inputs": [
        {
          "internalType": "uint256",
          "name": "ticketId",
          "type": "uint256"
        }
      ],
      "name": "getPurchasableTicket",
      "outputs": [
        {
          "components": [
            {
              "internalType": "bool",
              "name": "forSale",
              "type": "bool"
            },
            {
              "internalType": "address",
              "name": "acceptedToken",
              "type": "address"
            },
            {
              "internalType": "uint256",
              "name": "PurchasePrice",
              "type": "uint256"
            }
          ],
          "internalType": "struct WtObjects.PurchasableTicket",
          "name": "",
          "type": "tuple"
        }
      ],
      "payable": false,
      "stateMutability": "view",
      "type": "function"
    },
    {
      "constant": false,
      "inputs": [
        {
          "internalType": "uint256",
          "name": "_ticketId",
          "type": "uint256"
        },
        {
          "internalType": "address",
          "name": "buyer",
          "type": "address"
        },
        {
          "internalType": "uint256",
          "name": "purchasePrice",
          "type": "uint256"
        }
      ],
      "name": "_buyTicket",
      "outputs": [],
      "payable": false,
      "stateMutability": "nonpayable",
      "type": "function"
    }
  ],
  "bytecode": "0x608060405234801561001057600080fd5b50604051610df8380380610df883398101604081905261002f916100e3565b600080546001600160a01b03191633178082556040516001600160a01b039190911691907f8be0079c531659141344cd1fd0a4f28419497f9722a3daafe3b4186f6b6457e0908290a3600380546001600160a01b03199081166001600160a01b0395861617909155600480548216938516939093179092556005805483169190931690811790925560078054821683179055600680549091169091179055610158565b80516100dd81610141565b92915050565b6000806000606084860312156100f857600080fd5b600061010486866100d2565b9350506020610115868287016100d2565b9250506040610126868287016100d2565b9150509250925092565b60006001600160a01b0382166100dd565b61014a81610130565b811461015557600080fd5b50565b610c91806101676000396000f3fe608060405234801561001057600080fd5b506004361061012c5760003560e01c80638a13eea7116100ad578063c0860c2c11610071578063c0860c2c14610242578063c45a015514610255578063d544bce41461025d578063d93db24f1461027f578063f2fde38b146102925761012c565b80638a13eea7146102025780638da5cb5b1461020a5780638f32d59b1461021f578063a0e7026714610227578063bf0ae63d1461023a5761012c565b8063244bb7f0116100f4578063244bb7f0146101aa5780634e833193146101bf57806367dd74ca146101d4578063715018a6146101e75780637fb2578d146101ef5761012c565b8063037a417c1461013157806305a37e9a1461014f57806306aba6121461016257806311d5c546146101755780631d32a07e14610195575b600080fd5b6101396102a5565b6040516101469190610bb8565b60405180910390f35b61013961015d366004610a08565b6102aa565b6101396101703660046109c4565b610344565b610188610183366004610aad565b6103d0565b6040516101469190610be2565b61019d610420565b6040516101469190610bf0565b6101b26104a6565b6040516101469190610bd4565b6101d26101cd366004610ae9565b6104b5565b005b6101d26101e2366004610aad565b6105d2565b6101d26105e3565b6101396101fd366004610a08565b61063e565b6101b26106d0565b6102126106df565b6040516101469190610b67565b6101396106ee565b610139610235366004610a55565b6106ff565b6101b2610790565b610212610250366004610aad565b61079f565b6101b2610822565b61027061026b366004610aad565b610831565b60405161014693929190610bc6565b61019d61028d3660046109c4565b61085e565b6101d26102a03660046109c4565b6108e2565b600190565b6006546040516323b872dd60e01b8152600091600a916001600160a01b03909116906323b872dd906102e490889088908890600401610b75565b602060405180830381600087803b1580156102fe57600080fd5b505af1158015610312573d6000803e3d6000fd5b505050506040513d601f19601f820116820180604052506103369190810190610a8f565b5060019150505b9392505050565b6003546040516335e6a40960e01b81526000916001600160a01b0316906335e6a40990610375908590600401610b67565b602060405180830381600087803b15801561038f57600080fd5b505af11580156103a3573d6000803e3d6000fd5b505050506040513d601f19601f820116820180604052506103c79190810190610a8f565b50600192915050565b6103d861096d565b506000908152600160208181526040928390208351606081018552815460ff81161515825261010090046001600160a01b031692810192909252909101549181019190915290565b600554604080516318160ddd60e01b815290516000926001600160a01b03169182916318160ddd91600480820192602092909190829003018186803b15801561046857600080fd5b505afa15801561047c573d6000803e3d6000fd5b505050506040513d601f19601f820116820180604052506104a09190810190610acb565b91505090565b6005546001600160a01b031681565b6006546001600160a01b031663a9059cbb6104cf8561079f565b836040518363ffffffff1660e01b81526004016104ed929190610b9d565b602060405180830381600087803b15801561050757600080fd5b505af115801561051b573d6000803e3d6000fd5b505050506040513d601f19601f8201168201806040525061053f9190810190610a8f565b506003546001600160a01b031663693993b261055a8561079f565b84866040518463ffffffff1660e01b815260040161057a93929190610b75565b602060405180830381600087803b15801561059457600080fd5b505af11580156105a8573d6000803e3d6000fd5b505050506040513d601f19601f820116820180604052506105cc9190810190610a8f565b50505050565b60006105df8233836104b5565b5050565b6105eb6106ee565b6105f457600080fd5b600080546040516001600160a01b03909116907f8be0079c531659141344cd1fd0a4f28419497f9722a3daafe3b4186f6b6457e0908390a3600080546001600160a01b0319169055565b60035460405163349cc9d960e11b81526000916001600160a01b03169063693993b29061067390879087908790600401610b75565b602060405180830381600087803b15801561068d57600080fd5b505af11580156106a1573d6000803e3d6000fd5b505050506040513d601f19601f820116820180604052506106c59190810190610a8f565b506001949350505050565b6004546001600160a01b031681565b6000546001600160a01b031690565b6000546001600160a01b0316331490565b60065460405163a9059cbb60e01b81526000916001600160a01b03169063a9059cbb906107329086908690600401610b9d565b602060405180830381600087803b15801561074c57600080fd5b505af1158015610760573d6000803e3d6000fd5b505050506040513d601f19601f820116820180604052506107849190810190610a8f565b50600190505b92915050565b6006546001600160a01b031681565b600354604051633835054160e01b81526000916001600160a01b0316906338350541906107d0908590600401610bf0565b602060405180830381600087803b1580156107ea57600080fd5b505af11580156107fe573d6000803e3d6000fd5b505050506040513d601f19601f8201168201806040525061078a91908101906109ea565b6003546001600160a01b031681565b6001602081905260009182526040909120805491015460ff82169161010090046001600160a01b03169083565b600480546040516370a0823160e01b81526000926001600160a01b039092169182916370a082319161089291879101610b67565b60206040518083038186803b1580156108aa57600080fd5b505afa1580156108be573d6000803e3d6000fd5b505050506040513d601f19601f8201168201806040525061033d9190810190610acb565b6108ea6106ee565b6108f357600080fd5b6108fc816108ff565b50565b6001600160a01b03811661091257600080fd5b600080546040516001600160a01b03808516939216917f8be0079c531659141344cd1fd0a4f28419497f9722a3daafe3b4186f6b6457e091a3600080546001600160a01b0319166001600160a01b0392909216919091179055565b604080516060810182526000808252602082018190529181019190915290565b803561078a81610c28565b805161078a81610c28565b805161078a81610c3c565b803561078a81610c45565b805161078a81610c45565b6000602082840312156109d657600080fd5b60006109e2848461098d565b949350505050565b6000602082840312156109fc57600080fd5b60006109e28484610998565b600080600060608486031215610a1d57600080fd5b6000610a29868661098d565b9350506020610a3a8682870161098d565b9250506040610a4b868287016109ae565b9150509250925092565b60008060408385031215610a6857600080fd5b6000610a74858561098d565b9250506020610a85858286016109ae565b9150509250929050565b600060208284031215610aa157600080fd5b60006109e284846109a3565b600060208284031215610abf57600080fd5b60006109e284846109ae565b600060208284031215610add57600080fd5b60006109e284846109b9565b600080600060608486031215610afe57600080fd5b6000610a2986866109ae565b610b1381610bfe565b82525050565b610b1381610c09565b610b1381610c1d565b80516060830190610b3c8482610b19565b506020820151610b4f6020850182610b0a565b5060408201516105cc60408501825b610b1381610c1a565b6020810161078a8284610b0a565b60608101610b838286610b0a565b610b906020830185610b0a565b6109e26040830184610b5e565b60408101610bab8285610b0a565b61033d6020830184610b5e565b6020810161078a8284610b19565b60608101610b838286610b19565b6020810161078a8284610b22565b6060810161078a8284610b2b565b6020810161078a8284610b5e565b600061078a82610c0e565b151590565b6001600160a01b031690565b90565b600061078a82610bfe565b610c3181610bfe565b81146108fc57600080fd5b610c3181610c09565b610c3181610c1a56fea365627a7a72315820a669debd4a6674b321148e47fcf2fa58e357b13fe65338a273892f362756b8546c6578706572696d656e74616cf564736f6c634300050c0040",
  "source": "pragma solidity ^0.5.2;\npragma experimental ABIEncoderV2;\n\nimport \"./TicketFactory.sol\";\n\n// Storage\nimport \"./storage/WtConstants.sol\";\nimport \"./storage/WtStorage.sol\";\n\nimport \"./Erc20TestToken.sol\";\nimport \"./OceanToken.sol\";\n\n//import \"openzeppelin-solidity/contracts/token/ERC20/ERC20.sol\";\n\n\n/**\n * @title ERC20 interface\n * @dev see https://github.com/ethereum/EIPs/issues/20\n */\ninterface IERC20interface {\n    function transfer(address to, uint256 value) external returns (bool);\n\n    function approve(address spender, uint256 value) external returns (bool);\n\n    function transferFrom(address from, address to, uint256 value) external returns (bool);\n\n    function totalSupply() external view returns (uint256);\n\n    function balanceOf(address who) external view returns (uint256);\n\n    function allowance(address owner, address spender) external view returns (uint256);\n\n    event Transfer(address indexed from, address indexed to, uint256 value);\n\n    event Approval(address indexed owner, address indexed spender, uint256 value);\n}\n\n\n\n\ncontract TicketMarket is WtStorage, WtConstants {\n\n    TicketFactory public factory;\n    Erc20TestToken public erc20Token;\n    OceanToken public oceanToken;\n\n    IERC20interface public ierc20;\n\n    address oceanTokenContract;\n\n    constructor(address _ticketFactoryContract, address _erc20TestTokenContract, address _oceanTokenContract) public {\n        factory = TicketFactory(_ticketFactoryContract);\n        erc20Token = Erc20TestToken(_erc20TestTokenContract);\n        oceanToken = OceanToken(_oceanTokenContract);\n\n        oceanTokenContract = _oceanTokenContract;\n\n        ierc20 = IERC20interface(_oceanTokenContract);\n    }\n\n\n    function testFunc() public returns (bool) {\n        return WtConstants.CONFIRMED;\n    }\n\n    // @notice owner address of ERC721 token which is specified\n    // @param _ticketId is tokenId\n    function ownerOfTicket(uint _ticketId) public returns (address) {\n        return factory._ownerOf(_ticketId);\n    }\n    \n\n    // @notice test of inherited mint() from TicketFactory.sol\n    function factoryMint(address _callAddress) public returns (bool) {\n        //factory.mint();\n        factory.mintOnExternalContract(_callAddress);\n        return true;\n    }\n    \n    // @notice test of inherited transferFrom() from TicketFactory.sol\n    function factoryTransferFrom(address _from, address _to, uint256 _ticketId) public returns (bool) {\n        factory._transferTicketFrom(_from, _to, _ticketId);\n        return true;\n    }\n\n\n    /// @notice buys a certificate\n    /// @param _ticketId the id of the ticket \n    function buyTicket(uint _ticketId) public {\n        uint256 _purchasePrice = 0;\n        _buyTicket(_ticketId, msg.sender, _purchasePrice);\n    }\n    \n\n    function totalSupplyERC20() public view returns (uint256) {\n        IERC20 erc20 = IERC20(oceanToken);\n        return erc20.totalSupply();\n        //return oceanToken._totalSupply();\n    }\n    \n\n    function balanceOfERC20(address who) public view returns (uint256) {\n        IERC20 erc20 = IERC20(erc20Token);\n        return erc20.balanceOf(who);\n    }\n    \n\n\n    function testTransferFrom(address from, address to, uint256 value) public returns(bool) {\n        uint purchasePrice = 10;\n\n        //IERC20 erc20 = IERC20(oceanToken);\n        //erc20.transferFrom(from, to, value);\n        \n        ierc20.transferFrom(from, to, value);\n\n        //return erc20Token._transferFrom(from, to, value);\n        //oceanToken.transferFrom(from, to, value);\n        return true;\n    }\n    \n\n    function testTransfer(address to, uint256 value) public returns(bool) {\n        //IERC20 erc20 = IERC20(oceanToken);\n        //ERC20 erc20 = ERC20(erc20Token);\n        //erc20.transfer(to, value);\n\n        ierc20.transfer(to, value);\n\n        //erc20Token.transfer(to, value);\n        //oceanToken.transfer(to, value);\n        return true;\n    }\n\n\n    function getPurchasableTicket(uint ticketId)\n        public view returns (PurchasableTicket memory)\n    {\n\n        return purchasableTickets[ticketId];\n    }\n\n\n\n\n\n    /**********************\n     * internal functions\n    ***********************/\n\n    function _buyTicket(uint _ticketId, address buyer, uint256 purchasePrice) public {\n        //PurchasableTicket memory pTicket = getPurchasableTicket(_ticketId);\n        ierc20.transfer(ownerOfTicket(_ticketId), purchasePrice);\n        //IERC20 erc20 = IERC20(erc20Token);\n        //erc20Token._transferFrom(buyer, ownerOfTicket(_ticketId), purchasePrice);\n        //erc20Token.transferFrom(buyer, factory._ownerOf(_ticketId), purchasePrice);\n        //erc20.transferFrom(buyer, factory.ownerOf(_ticketId), pTicket.PurchasePrice);\n   \n        factory._transferTicketFrom(ownerOfTicket(_ticketId), buyer, _ticketId);\n        \n        //_removeTokenAndPrice(_ticketId);\n\n        //unpublishForSale(_ticketId);\n    }\n\n}\n",
  "sourcePath": "/Users/unomasanori/projects/DEMO_MVP/Gitcoin-Global-Communities-Hackcathon/walletConnect-ticketing-dapp/contracts/TicketMarket.sol",
  "compiler": {
    "name": "solc",
    "version": "0.5.12+commit.7709ece9.Emscripten.clang"
  },
  "schemaVersion": "3.0.19",
  "updatedAt": "2019-12-12T11:12:31.891Z",
  "networkType": "ethereum",
  "devdoc": {
    "methods": {
      "buyTicket(uint256)": {
        "params": {
          "_ticketId": "the id of the ticket "
        }
      },
      "isOwner()": {
        "return": "true if `msg.sender` is the owner of the contract."
      },
      "owner()": {
        "return": "the address of the owner."
      },
      "renounceOwnership()": {
        "details": "Allows the current owner to relinquish control of the contract."
      },
      "transferOwnership(address)": {
        "details": "Allows the current owner to transfer control of the contract to a newOwner.",
        "params": {
          "newOwner": "The address to transfer ownership to."
        }
      }
    }
  },
  "userdoc": {
    "methods": {
      "_buyTicket(uint256,address,uint256)": {
        "notice": "******************** internal functions**********************"
      },
      "buyTicket(uint256)": {
        "notice": "buys a certificate"
      },
      "renounceOwnership()": {
        "notice": "Renouncing to ownership will leave the contract without an owner. It will not be possible to call the functions with the `onlyOwner` modifier anymore."
      }
    }
  }
}