{
  "contractName": "TicketMarket",
  "abi": [
    {
      "inputs": [
        {
          "internalType": "address",
          "name": "_ticketFactoryContract",
          "type": "address"
        },
        {
          "internalType": "address",
          "name": "_erc20TestTokenContract",
          "type": "address"
        },
        {
          "internalType": "address",
          "name": "_oceanTokenContract",
          "type": "address"
        }
      ],
      "payable": false,
      "stateMutability": "nonpayable",
      "type": "constructor"
    },
    {
      "anonymous": false,
      "inputs": [
        {
          "indexed": false,
          "internalType": "uint256",
          "name": "exampleId",
          "type": "uint256"
        },
        {
          "indexed": false,
          "internalType": "string",
          "name": "exampleName",
          "type": "string"
        },
        {
          "indexed": false,
          "internalType": "address",
          "name": "exampleAddr",
          "type": "address"
        }
      ],
      "name": "ExampleEvent",
      "type": "event"
    },
    {
      "anonymous": false,
      "inputs": [
        {
          "indexed": true,
          "internalType": "uint256",
          "name": "_ticketId",
          "type": "uint256"
        },
        {
          "indexed": false,
          "internalType": "uint256",
          "name": "_price",
          "type": "uint256"
        },
        {
          "indexed": false,
          "internalType": "address",
          "name": "_token",
          "type": "address"
        }
      ],
      "name": "LogPublishForSale",
      "type": "event"
    },
    {
      "anonymous": false,
      "inputs": [
        {
          "indexed": true,
          "internalType": "address",
          "name": "previousOwner",
          "type": "address"
        },
        {
          "indexed": true,
          "internalType": "address",
          "name": "newOwner",
          "type": "address"
        }
      ],
      "name": "OwnershipTransferred",
      "type": "event"
    },
    {
      "constant": true,
      "inputs": [],
      "name": "erc20Token",
      "outputs": [
        {
          "internalType": "contract Erc20TestToken",
          "name": "",
          "type": "address"
        }
      ],
      "payable": false,
      "stateMutability": "view",
      "type": "function"
    },
    {
      "constant": true,
      "inputs": [],
      "name": "factory",
      "outputs": [
        {
          "internalType": "contract TicketFactory",
          "name": "",
          "type": "address"
        }
      ],
      "payable": false,
      "stateMutability": "view",
      "type": "function"
    },
    {
      "constant": true,
      "inputs": [],
      "name": "isOwner",
      "outputs": [
        {
          "internalType": "bool",
          "name": "",
          "type": "bool"
        }
      ],
      "payable": false,
      "stateMutability": "view",
      "type": "function"
    },
    {
      "constant": true,
      "inputs": [],
      "name": "oceanToken",
      "outputs": [
        {
          "internalType": "contract OceanToken",
          "name": "",
          "type": "address"
        }
      ],
      "payable": false,
      "stateMutability": "view",
      "type": "function"
    },
    {
      "constant": true,
      "inputs": [],
      "name": "owner",
      "outputs": [
        {
          "internalType": "address",
          "name": "",
          "type": "address"
        }
      ],
      "payable": false,
      "stateMutability": "view",
      "type": "function"
    },
    {
      "constant": true,
      "inputs": [
        {
          "internalType": "uint256",
          "name": "",
          "type": "uint256"
        }
      ],
      "name": "purchasableTickets",
      "outputs": [
        {
          "internalType": "bool",
          "name": "forSale",
          "type": "bool"
        },
        {
          "internalType": "address",
          "name": "acceptedToken",
          "type": "address"
        },
        {
          "internalType": "uint256",
          "name": "PurchasePrice",
          "type": "uint256"
        }
      ],
      "payable": false,
      "stateMutability": "view",
      "type": "function"
    },
    {
      "constant": false,
      "inputs": [],
      "name": "renounceOwnership",
      "outputs": [],
      "payable": false,
      "stateMutability": "nonpayable",
      "type": "function"
    },
    {
      "constant": false,
      "inputs": [
        {
          "internalType": "address",
          "name": "newOwner",
          "type": "address"
        }
      ],
      "name": "transferOwnership",
      "outputs": [],
      "payable": false,
      "stateMutability": "nonpayable",
      "type": "function"
    },
    {
      "constant": false,
      "inputs": [],
      "name": "testFunc",
      "outputs": [
        {
          "internalType": "bool",
          "name": "",
          "type": "bool"
        }
      ],
      "payable": false,
      "stateMutability": "nonpayable",
      "type": "function"
    },
    {
      "constant": false,
      "inputs": [
        {
          "internalType": "uint256",
          "name": "_ticketId",
          "type": "uint256"
        }
      ],
      "name": "ownerOfTicket",
      "outputs": [
        {
          "internalType": "address",
          "name": "",
          "type": "address"
        }
      ],
      "payable": false,
      "stateMutability": "nonpayable",
      "type": "function"
    },
    {
      "constant": false,
      "inputs": [],
      "name": "factoryMint",
      "outputs": [],
      "payable": false,
      "stateMutability": "nonpayable",
      "type": "function"
    },
    {
      "constant": false,
      "inputs": [
        {
          "internalType": "uint256",
          "name": "_ticketId",
          "type": "uint256"
        }
      ],
      "name": "buyTicket",
      "outputs": [],
      "payable": false,
      "stateMutability": "nonpayable",
      "type": "function"
    },
    {
      "constant": true,
      "inputs": [],
      "name": "totalSupplyERC20",
      "outputs": [
        {
          "internalType": "uint256",
          "name": "",
          "type": "uint256"
        }
      ],
      "payable": false,
      "stateMutability": "view",
      "type": "function"
    },
    {
      "constant": false,
      "inputs": [
        {
          "internalType": "address",
          "name": "from",
          "type": "address"
        },
        {
          "internalType": "address",
          "name": "to",
          "type": "address"
        },
        {
          "internalType": "uint256",
          "name": "value",
          "type": "uint256"
        }
      ],
      "name": "testTransferFrom",
      "outputs": [
        {
          "internalType": "bool",
          "name": "",
          "type": "bool"
        }
      ],
      "payable": false,
      "stateMutability": "nonpayable",
      "type": "function"
    },
    {
      "constant": false,
      "inputs": [
        {
          "internalType": "address",
          "name": "to",
          "type": "address"
        },
        {
          "internalType": "uint256",
          "name": "value",
          "type": "uint256"
        }
      ],
      "name": "testTransfer",
      "outputs": [
        {
          "internalType": "bool",
          "name": "",
          "type": "bool"
        }
      ],
      "payable": false,
      "stateMutability": "nonpayable",
      "type": "function"
    },
    {
      "constant": true,
      "inputs": [
        {
          "internalType": "uint256",
          "name": "ticketId",
          "type": "uint256"
        }
      ],
      "name": "getPurchasableTicket",
      "outputs": [
        {
          "components": [
            {
              "internalType": "bool",
              "name": "forSale",
              "type": "bool"
            },
            {
              "internalType": "address",
              "name": "acceptedToken",
              "type": "address"
            },
            {
              "internalType": "uint256",
              "name": "PurchasePrice",
              "type": "uint256"
            }
          ],
          "internalType": "struct WtObjects.PurchasableTicket",
          "name": "",
          "type": "tuple"
        }
      ],
      "payable": false,
      "stateMutability": "view",
      "type": "function"
    },
    {
      "constant": false,
      "inputs": [
        {
          "internalType": "uint256",
          "name": "_ticketId",
          "type": "uint256"
        },
        {
          "internalType": "address",
          "name": "buyer",
          "type": "address"
        }
      ],
      "name": "_buyTicket",
      "outputs": [],
      "payable": false,
      "stateMutability": "nonpayable",
      "type": "function"
    }
  ],
  "bytecode": "0x608060405234801561001057600080fd5b50604051610c57380380610c5783398101604081905261002f916100cb565b600080546001600160a01b03191633178082556040516001600160a01b039190911691907f8be0079c531659141344cd1fd0a4f28419497f9722a3daafe3b4186f6b6457e0908290a3600380546001600160a01b039485166001600160a01b031991821617909155600480549385169382169390931790925560058054919093169116179055610140565b80516100c581610129565b92915050565b6000806000606084860312156100e057600080fd5b60006100ec86866100ba565b93505060206100fd868287016100ba565b925050604061010e868287016100ba565b9150509250925092565b60006001600160a01b0382166100c5565b61013281610118565b811461013d57600080fd5b50565b610b088061014f6000396000f3fe608060405234801561001057600080fd5b506004361061010b5760003560e01c80638a13eea7116100a2578063baabf9b911610071578063baabf9b9146101f3578063c0860c2c146101fb578063c45a01551461020e578063d544bce414610216578063f2fde38b146102385761010b565b80638a13eea7146101bb5780638da5cb5b146101c35780638f32d59b146101d8578063a0e70267146101e05761010b565b8063244bb7f0116100de578063244bb7f01461017657806367dd74ca1461018b578063715018a6146101a05780637b8d771e146101a85761010b565b8063037a417c1461011057806305a37e9a1461012e57806311d5c546146101415780631d32a07e14610161575b600080fd5b61011861024b565b6040516101259190610a2f565b60405180910390f35b61011861013c366004610870565b610250565b61015461014f366004610915565b6102e7565b6040516101259190610a59565b610169610337565b6040516101259190610a67565b61017e6103b9565b6040516101259190610a4b565b61019e610199366004610915565b6103c8565b005b61019e6103d5565b61019e6101b6366004610951565b610430565b61017e61054e565b6101cb61055d565b60405161012591906109de565b61011861056c565b6101186101ee3660046108bd565b61057d565b61019e61060b565b6101cb610209366004610915565b610693565b61017e610716565b610229610224366004610915565b610725565b60405161012593929190610a3d565b61019e61024636600461082c565b610752565b600190565b60055460405163cb71253560e01b8152600091600a916001600160a01b039091169063cb7125359061028a908890889088906004016109ec565b602060405180830381600087803b1580156102a457600080fd5b505af11580156102b8573d6000803e3d6000fd5b505050506040513d601f19601f820116820180604052506102dc91908101906108f7565b9150505b9392505050565b6102ef6107d5565b506000908152600160208181526040928390208351606081018552815460ff81161515825261010090046001600160a01b031692810192909252909101549181019190915290565b60055460408051633eaaf86b60e01b815290516000926001600160a01b031691633eaaf86b916004808301926020929190829003018186803b15801561037c57600080fd5b505afa158015610390573d6000803e3d6000fd5b505050506040513d601f19601f820116820180604052506103b49190810190610933565b905090565b6005546001600160a01b031681565b6103d28133610430565b50565b6103dd61056c565b6103e657600080fd5b600080546040516001600160a01b03909116907f8be0079c531659141344cd1fd0a4f28419497f9722a3daafe3b4186f6b6457e0908390a3600080546001600160a01b0319169055565b600354600a906001600160a01b031663693993b261044d85610693565b84866040518463ffffffff1660e01b815260040161046d939291906109ec565b602060405180830381600087803b15801561048757600080fd5b505af115801561049b573d6000803e3d6000fd5b505050506040513d601f19601f820116820180604052506104bf91908101906108f7565b50600360009054906101000a90046001600160a01b03166001600160a01b0316631249c58b6040518163ffffffff1660e01b8152600401602060405180830381600087803b15801561051057600080fd5b505af1158015610524573d6000803e3d6000fd5b505050506040513d601f19601f8201168201806040525061054891908101906108f7565b50505050565b6004546001600160a01b031681565b6000546001600160a01b031690565b6000546001600160a01b0316331490565b600554604051631211e9e760e21b81526000916001600160a01b031690634847a79c906105b09086908690600401610a14565b602060405180830381600087803b1580156105ca57600080fd5b505af11580156105de573d6000803e3d6000fd5b505050506040513d601f19601f8201168201806040525061060291908101906108f7565b90505b92915050565b600360009054906101000a90046001600160a01b03166001600160a01b0316631249c58b6040518163ffffffff1660e01b8152600401602060405180830381600087803b15801561065b57600080fd5b505af115801561066f573d6000803e3d6000fd5b505050506040513d601f19601f820116820180604052506103d291908101906108f7565b600354604051633835054160e01b81526000916001600160a01b0316906338350541906106c4908590600401610a67565b602060405180830381600087803b1580156106de57600080fd5b505af11580156106f2573d6000803e3d6000fd5b505050506040513d601f19601f820116820180604052506106059190810190610852565b6003546001600160a01b031681565b6001602081905260009182526040909120805491015460ff82169161010090046001600160a01b03169083565b61075a61056c565b61076357600080fd5b6103d2816001600160a01b03811661077a57600080fd5b600080546040516001600160a01b03808516939216917f8be0079c531659141344cd1fd0a4f28419497f9722a3daafe3b4186f6b6457e091a3600080546001600160a01b0319166001600160a01b0392909216919091179055565b604080516060810182526000808252602082018190529181019190915290565b803561060581610a9f565b805161060581610a9f565b805161060581610ab3565b803561060581610abc565b805161060581610abc565b60006020828403121561083e57600080fd5b600061084a84846107f5565b949350505050565b60006020828403121561086457600080fd5b600061084a8484610800565b60008060006060848603121561088557600080fd5b600061089186866107f5565b93505060206108a2868287016107f5565b92505060406108b386828701610816565b9150509250925092565b600080604083850312156108d057600080fd5b60006108dc85856107f5565b92505060206108ed85828601610816565b9150509250929050565b60006020828403121561090957600080fd5b600061084a848461080b565b60006020828403121561092757600080fd5b600061084a8484610816565b60006020828403121561094557600080fd5b600061084a8484610821565b6000806040838503121561096457600080fd5b60006109708585610816565b92505060206108ed858286016107f5565b61098a81610a75565b82525050565b61098a81610a80565b61098a81610a94565b805160608301906109b38482610990565b5060208201516109c66020850182610981565b50604082015161054860408501825b61098a81610a91565b602081016106058284610981565b606081016109fa8286610981565b610a076020830185610981565b61084a60408301846109d5565b60408101610a228285610981565b6102e060208301846109d5565b602081016106058284610990565b606081016109fa8286610990565b602081016106058284610999565b6060810161060582846109a2565b6020810161060582846109d5565b600061060582610a85565b151590565b6001600160a01b031690565b90565b600061060582610a75565b610aa881610a75565b81146103d257600080fd5b610aa881610a80565b610aa881610a9156fea365627a7a72315820aa0ac513fcff8cf78d77e061079e5319fd9734dd2fddd6ffe1deb27f0f9f1ef16c6578706572696d656e74616cf564736f6c634300050c0040",
  "source": "pragma solidity ^0.5.2;\npragma experimental ABIEncoderV2;\n\nimport \"./TicketFactory.sol\";\n\n// Storage\nimport \"./storage/WtConstants.sol\";\nimport \"./storage/WtStorage.sol\";\n\nimport \"./Erc20TestToken.sol\";\nimport \"./OceanToken.sol\";\n\n\n\ncontract TicketMarket is WtStorage, WtConstants {\n\n    TicketFactory public factory;\n    Erc20TestToken public erc20Token;\n    OceanToken public oceanToken;\n\n\n    constructor(address _ticketFactoryContract, address _erc20TestTokenContract, address _oceanTokenContract) public {\n        factory = TicketFactory(_ticketFactoryContract);\n        erc20Token = Erc20TestToken(_erc20TestTokenContract);\n        oceanToken = OceanToken(_oceanTokenContract);\n    }\n\n\n    function testFunc() public returns (bool) {\n        return WtConstants.CONFIRMED;\n    }\n\n    // @notice owner address of ERC721 token which is specified\n    // @param _ticketId is tokenId\n    function ownerOfTicket(uint _ticketId) public returns (address) {\n        return factory._ownerOf(_ticketId);\n    }\n    \n\n    // @notice test of inherited mint() from TicketFactory.sol\n    function factoryMint() public {\n        factory.mint();\n    }\n    \n\n\n    /// @notice buys a certificate\n    /// @param _ticketId the id of the ticket \n    function buyTicket(uint _ticketId) public {\n        _buyTicket(_ticketId, msg.sender);\n    }\n\n\n\n    function totalSupplyERC20() public view returns (uint256) {\n        return oceanToken._totalSupply();\n    }\n    \n\n    function testTransferFrom(address from, address to, uint256 value) public returns(bool) {\n        uint purchasePrice = 10;\n\n        //return erc20Token._transferFrom(from, to, value);\n        return oceanToken._transferFrom(from, to, value);\n    }\n    \n\n    function testTransfer(address to, uint256 value) public returns(bool) {\n        //return erc20Token._transferFrom(from, to, value);\n        return oceanToken._transfer(to, value);\n    }\n\n\n    function getPurchasableTicket(uint ticketId)\n        public view returns (PurchasableTicket memory)\n    {\n\n        return purchasableTickets[ticketId];\n    }\n\n\n    /**********************\n     * internal functions\n    ***********************/\n\n    function _buyTicket(uint _ticketId, address buyer) public {\n        //PurchasableTicket memory pTicket = getPurchasableTicket(_ticketId);\n        uint purchasePrice = 10;\n\n        //IERC20 erc20 = IERC20(erc20Token);\n        //erc20Token._transferFrom(buyer, ownerOfTicket(_ticketId), purchasePrice);\n        //erc20Token.transferFrom(buyer, factory._ownerOf(_ticketId), purchasePrice);\n        //erc20.transferFrom(buyer, factory.ownerOf(_ticketId), pTicket.PurchasePrice);\n   \n        factory._transferTicketFrom(ownerOfTicket(_ticketId), buyer, _ticketId);\n        //factory.transferFrom(factory.ownerOf(_ticketId), buyer, _ticketId);\n        \n        //_removeTokenAndPrice(_ticketId);\n\n        //unpublishForSale(_ticketId);\n\n        factory.mint();\n    }\n\n}\n",
  "sourcePath": "/Users/unomasanori/projects/DEMO_MVP/Gitcoin-Global-Communities-Hackcathon/walletConnect-ticketing-dapp/contracts/TicketMarket.sol",
  "compiler": {
    "name": "solc",
    "version": "0.5.12+commit.7709ece9.Emscripten.clang"
  },
  "schemaVersion": "3.0.19",
  "updatedAt": "2019-12-10T18:35:01.197Z",
  "networkType": "ethereum",
  "devdoc": {
    "methods": {
      "buyTicket(uint256)": {
        "params": {
          "_ticketId": "the id of the ticket "
        }
      },
      "isOwner()": {
        "return": "true if `msg.sender` is the owner of the contract."
      },
      "owner()": {
        "return": "the address of the owner."
      },
      "renounceOwnership()": {
        "details": "Allows the current owner to relinquish control of the contract."
      },
      "transferOwnership(address)": {
        "details": "Allows the current owner to transfer control of the contract to a newOwner.",
        "params": {
          "newOwner": "The address to transfer ownership to."
        }
      }
    }
  },
  "userdoc": {
    "methods": {
      "_buyTicket(uint256,address)": {
        "notice": "******************** internal functions**********************"
      },
      "buyTicket(uint256)": {
        "notice": "buys a certificate"
      },
      "renounceOwnership()": {
        "notice": "Renouncing to ownership will leave the contract without an owner. It will not be possible to call the functions with the `onlyOwner` modifier anymore."
      }
    }
  }
}