{
  "contractName": "TicketFactory",
  "abi": [
    {
      "inputs": [
        {
          "internalType": "string",
          "name": "name",
          "type": "string"
        },
        {
          "internalType": "string",
          "name": "symbol",
          "type": "string"
        },
        {
          "internalType": "uint256",
          "name": "tokenId",
          "type": "uint256"
        },
        {
          "internalType": "string",
          "name": "tokenURI",
          "type": "string"
        }
      ],
      "payable": false,
      "stateMutability": "nonpayable",
      "type": "constructor"
    },
    {
      "anonymous": false,
      "inputs": [
        {
          "indexed": true,
          "internalType": "address",
          "name": "owner",
          "type": "address"
        },
        {
          "indexed": true,
          "internalType": "address",
          "name": "approved",
          "type": "address"
        },
        {
          "indexed": true,
          "internalType": "uint256",
          "name": "tokenId",
          "type": "uint256"
        }
      ],
      "name": "Approval",
      "type": "event"
    },
    {
      "anonymous": false,
      "inputs": [
        {
          "indexed": true,
          "internalType": "address",
          "name": "owner",
          "type": "address"
        },
        {
          "indexed": true,
          "internalType": "address",
          "name": "operator",
          "type": "address"
        },
        {
          "indexed": false,
          "internalType": "bool",
          "name": "approved",
          "type": "bool"
        }
      ],
      "name": "ApprovalForAll",
      "type": "event"
    },
    {
      "anonymous": false,
      "inputs": [
        {
          "indexed": true,
          "internalType": "address",
          "name": "previousOwner",
          "type": "address"
        },
        {
          "indexed": true,
          "internalType": "address",
          "name": "newOwner",
          "type": "address"
        }
      ],
      "name": "OwnershipTransferred",
      "type": "event"
    },
    {
      "anonymous": false,
      "inputs": [
        {
          "indexed": true,
          "internalType": "address",
          "name": "from",
          "type": "address"
        },
        {
          "indexed": true,
          "internalType": "address",
          "name": "to",
          "type": "address"
        },
        {
          "indexed": true,
          "internalType": "uint256",
          "name": "tokenId",
          "type": "uint256"
        }
      ],
      "name": "Transfer",
      "type": "event"
    },
    {
      "constant": false,
      "inputs": [
        {
          "internalType": "address",
          "name": "to",
          "type": "address"
        },
        {
          "internalType": "uint256",
          "name": "tokenId",
          "type": "uint256"
        }
      ],
      "name": "approve",
      "outputs": [],
      "payable": false,
      "stateMutability": "nonpayable",
      "type": "function"
    },
    {
      "constant": true,
      "inputs": [
        {
          "internalType": "address",
          "name": "owner",
          "type": "address"
        }
      ],
      "name": "balanceOf",
      "outputs": [
        {
          "internalType": "uint256",
          "name": "",
          "type": "uint256"
        }
      ],
      "payable": false,
      "stateMutability": "view",
      "type": "function"
    },
    {
      "constant": true,
      "inputs": [
        {
          "internalType": "uint256",
          "name": "tokenId",
          "type": "uint256"
        }
      ],
      "name": "getApproved",
      "outputs": [
        {
          "internalType": "address",
          "name": "",
          "type": "address"
        }
      ],
      "payable": false,
      "stateMutability": "view",
      "type": "function"
    },
    {
      "constant": true,
      "inputs": [
        {
          "internalType": "address",
          "name": "owner",
          "type": "address"
        },
        {
          "internalType": "address",
          "name": "operator",
          "type": "address"
        }
      ],
      "name": "isApprovedForAll",
      "outputs": [
        {
          "internalType": "bool",
          "name": "",
          "type": "bool"
        }
      ],
      "payable": false,
      "stateMutability": "view",
      "type": "function"
    },
    {
      "constant": true,
      "inputs": [],
      "name": "isOwner",
      "outputs": [
        {
          "internalType": "bool",
          "name": "",
          "type": "bool"
        }
      ],
      "payable": false,
      "stateMutability": "view",
      "type": "function"
    },
    {
      "constant": true,
      "inputs": [],
      "name": "name",
      "outputs": [
        {
          "internalType": "string",
          "name": "",
          "type": "string"
        }
      ],
      "payable": false,
      "stateMutability": "view",
      "type": "function"
    },
    {
      "constant": true,
      "inputs": [],
      "name": "owner",
      "outputs": [
        {
          "internalType": "address",
          "name": "",
          "type": "address"
        }
      ],
      "payable": false,
      "stateMutability": "view",
      "type": "function"
    },
    {
      "constant": true,
      "inputs": [
        {
          "internalType": "uint256",
          "name": "tokenId",
          "type": "uint256"
        }
      ],
      "name": "ownerOf",
      "outputs": [
        {
          "internalType": "address",
          "name": "",
          "type": "address"
        }
      ],
      "payable": false,
      "stateMutability": "view",
      "type": "function"
    },
    {
      "constant": false,
      "inputs": [],
      "name": "renounceOwnership",
      "outputs": [],
      "payable": false,
      "stateMutability": "nonpayable",
      "type": "function"
    },
    {
      "constant": false,
      "inputs": [
        {
          "internalType": "address",
          "name": "from",
          "type": "address"
        },
        {
          "internalType": "address",
          "name": "to",
          "type": "address"
        },
        {
          "internalType": "uint256",
          "name": "tokenId",
          "type": "uint256"
        }
      ],
      "name": "safeTransferFrom",
      "outputs": [],
      "payable": false,
      "stateMutability": "nonpayable",
      "type": "function"
    },
    {
      "constant": false,
      "inputs": [
        {
          "internalType": "address",
          "name": "from",
          "type": "address"
        },
        {
          "internalType": "address",
          "name": "to",
          "type": "address"
        },
        {
          "internalType": "uint256",
          "name": "tokenId",
          "type": "uint256"
        },
        {
          "internalType": "bytes",
          "name": "_data",
          "type": "bytes"
        }
      ],
      "name": "safeTransferFrom",
      "outputs": [],
      "payable": false,
      "stateMutability": "nonpayable",
      "type": "function"
    },
    {
      "constant": false,
      "inputs": [
        {
          "internalType": "address",
          "name": "to",
          "type": "address"
        },
        {
          "internalType": "bool",
          "name": "approved",
          "type": "bool"
        }
      ],
      "name": "setApprovalForAll",
      "outputs": [],
      "payable": false,
      "stateMutability": "nonpayable",
      "type": "function"
    },
    {
      "constant": true,
      "inputs": [
        {
          "internalType": "bytes4",
          "name": "interfaceId",
          "type": "bytes4"
        }
      ],
      "name": "supportsInterface",
      "outputs": [
        {
          "internalType": "bool",
          "name": "",
          "type": "bool"
        }
      ],
      "payable": false,
      "stateMutability": "view",
      "type": "function"
    },
    {
      "constant": true,
      "inputs": [],
      "name": "symbol",
      "outputs": [
        {
          "internalType": "string",
          "name": "",
          "type": "string"
        }
      ],
      "payable": false,
      "stateMutability": "view",
      "type": "function"
    },
    {
      "constant": true,
      "inputs": [
        {
          "internalType": "uint256",
          "name": "index",
          "type": "uint256"
        }
      ],
      "name": "tokenByIndex",
      "outputs": [
        {
          "internalType": "uint256",
          "name": "",
          "type": "uint256"
        }
      ],
      "payable": false,
      "stateMutability": "view",
      "type": "function"
    },
    {
      "constant": true,
      "inputs": [
        {
          "internalType": "address",
          "name": "owner",
          "type": "address"
        },
        {
          "internalType": "uint256",
          "name": "index",
          "type": "uint256"
        }
      ],
      "name": "tokenOfOwnerByIndex",
      "outputs": [
        {
          "internalType": "uint256",
          "name": "",
          "type": "uint256"
        }
      ],
      "payable": false,
      "stateMutability": "view",
      "type": "function"
    },
    {
      "constant": true,
      "inputs": [
        {
          "internalType": "uint256",
          "name": "tokenId",
          "type": "uint256"
        }
      ],
      "name": "tokenURI",
      "outputs": [
        {
          "internalType": "string",
          "name": "",
          "type": "string"
        }
      ],
      "payable": false,
      "stateMutability": "view",
      "type": "function"
    },
    {
      "constant": true,
      "inputs": [],
      "name": "totalSupply",
      "outputs": [
        {
          "internalType": "uint256",
          "name": "",
          "type": "uint256"
        }
      ],
      "payable": false,
      "stateMutability": "view",
      "type": "function"
    },
    {
      "constant": false,
      "inputs": [
        {
          "internalType": "address",
          "name": "from",
          "type": "address"
        },
        {
          "internalType": "address",
          "name": "to",
          "type": "address"
        },
        {
          "internalType": "uint256",
          "name": "tokenId",
          "type": "uint256"
        }
      ],
      "name": "transferFrom",
      "outputs": [],
      "payable": false,
      "stateMutability": "nonpayable",
      "type": "function"
    },
    {
      "constant": false,
      "inputs": [
        {
          "internalType": "address",
          "name": "newOwner",
          "type": "address"
        }
      ],
      "name": "transferOwnership",
      "outputs": [],
      "payable": false,
      "stateMutability": "nonpayable",
      "type": "function"
    },
    {
      "constant": false,
      "inputs": [],
      "name": "testFunc",
      "outputs": [
        {
          "internalType": "bool",
          "name": "",
          "type": "bool"
        }
      ],
      "payable": false,
      "stateMutability": "nonpayable",
      "type": "function"
    },
    {
      "constant": true,
      "inputs": [],
      "name": "_totalSupply",
      "outputs": [
        {
          "internalType": "uint256",
          "name": "",
          "type": "uint256"
        }
      ],
      "payable": false,
      "stateMutability": "view",
      "type": "function"
    },
    {
      "constant": false,
      "inputs": [
        {
          "internalType": "uint256",
          "name": "_ticketId",
          "type": "uint256"
        }
      ],
      "name": "_ownerOf",
      "outputs": [
        {
          "internalType": "address",
          "name": "",
          "type": "address"
        }
      ],
      "payable": false,
      "stateMutability": "nonpayable",
      "type": "function"
    },
    {
      "constant": false,
      "inputs": [],
      "name": "mint",
      "outputs": [
        {
          "internalType": "bool",
          "name": "",
          "type": "bool"
        }
      ],
      "payable": false,
      "stateMutability": "nonpayable",
      "type": "function"
    },
    {
      "constant": false,
      "inputs": [
        {
          "internalType": "address",
          "name": "_from",
          "type": "address"
        },
        {
          "internalType": "address",
          "name": "_to",
          "type": "address"
        },
        {
          "internalType": "uint256",
          "name": "_ticketId",
          "type": "uint256"
        }
      ],
      "name": "_transferTicketFrom",
      "outputs": [
        {
          "internalType": "bool",
          "name": "",
          "type": "bool"
        }
      ],
      "payable": false,
      "stateMutability": "nonpayable",
      "type": "function"
    }
  ],
  "bytecode": "0x60806040526064600d553480156200001657600080fd5b5060405162001a1638038062001a16833981016040819052620000399162000547565b83838181620000717f01ffc9a7000000000000000000000000000000000000000000000000000000006001600160e01b03620001bd16565b620000a57f80ac58cd000000000000000000000000000000000000000000000000000000006001600160e01b03620001bd16565b620000d97f780e9d63000000000000000000000000000000000000000000000000000000006001600160e01b03620001bd16565b8151620000ee90600990602085019062000439565b5080516200010490600a90602084019062000439565b50620001397f5b5e139f000000000000000000000000000000000000000000000000000000006001600160e01b03620001bd16565b5050600c80546001600160a01b0319163317908190556040516001600160a01b03919091169250600091507f8be0079c531659141344cd1fd0a4f28419497f9722a3daafe3b4186f6b6457e0908290a36200019e33836001600160e01b036200022a16565b620001b382826001600160e01b036200026e16565b5050505062000694565b7fffffffff000000000000000000000000000000000000000000000000000000008082161415620001ed57600080fd5b7fffffffff00000000000000000000000000000000000000000000000000000000166000908152602081905260409020805460ff19166001179055565b620002418282620002b260201b62000ace1760201c565b6200025682826001600160e01b036200037e16565b6200026a816001600160e01b03620003bc16565b5050565b62000282826001600160e01b036200040016565b6200028c57600080fd5b6000828152600b602090815260409091208251620002ad9284019062000439565b505050565b6001600160a01b038216620002c657600080fd5b620002da816001600160e01b036200040016565b15620002e557600080fd5b600081815260016020818152604080842080546001600160a01b0319166001600160a01b0388169081179091558452600382529092205462000333929091906200041d811b62000e0a17901c565b6001600160a01b0383166000818152600360205260408082209390935591518392907fddf252ad1be2c89b69c2b068fc378daa952ba7f163c4a11628f55a4df523b3ef908290a45050565b6001600160a01b0390911660009081526005602081815260408084208054868652600684529185208290559282526001810183559183529091200155565b600780546000838152600860205260408120829055600182018355919091527fa66cc928b5edb82af9bd49922954155ab7b0942694bea4ce44661d9a8736c6880155565b6000908152600160205260409020546001600160a01b0316151590565b6000828201838110156200043057600080fd5b90505b92915050565b828054600181600116156101000203166002900490600052602060002090601f016020900481019282601f106200047c57805160ff1916838001178555620004ac565b82800160010185558215620004ac579182015b82811115620004ac5782518255916020019190600101906200048f565b50620004ba929150620004be565b5090565b620004db91905b80821115620004ba5760008155600101620004c5565b90565b600082601f830112620004f057600080fd5b81516200050762000501826200061f565b620005f8565b915080825260208301602083018583830111156200052457600080fd5b6200053183828462000647565b50505092915050565b805162000433816200067a565b600080600080608085870312156200055e57600080fd5b84516001600160401b038111156200057557600080fd5b6200058387828801620004de565b94505060208501516001600160401b03811115620005a057600080fd5b620005ae87828801620004de565b9350506040620005c1878288016200053a565b92505060608501516001600160401b03811115620005de57600080fd5b620005ec87828801620004de565b91505092959194509250565b6040518181016001600160401b03811182821017156200061757600080fd5b604052919050565b60006001600160401b038211156200063657600080fd5b506020601f91909101601f19160190565b60005b83811015620006645781810151838201526020016200064a565b8381111562000674576000848401525b50505050565b6200068581620004db565b81146200069157600080fd5b50565b61137280620006a46000396000f3fe608060405234801561001057600080fd5b50600436106101735760003560e01c80634f6ccce7116100de5780638f32d59b11610097578063b88d4fde11610071578063b88d4fde146102e3578063c87b56dd146102f6578063e985e9c514610309578063f2fde38b1461031c57610173565b80638f32d59b146102c057806395d89b41146102c8578063a22cb465146102d057610173565b80634f6ccce7146102645780636352211e14610277578063693993b21461028a57806370a082311461029d578063715018a6146102b05780638da5cb5b146102b857610173565b806318160ddd1161013057806318160ddd146101fb57806323b872dd146102105780632f745c591461022357806338350541146102365780633eaaf86b1461024957806342842e0e1461025157610173565b806301ffc9a714610178578063037a417c146101a157806306fdde03146101a9578063081812fc146101be578063095ea7b3146101de5780631249c58b146101f3575b600080fd5b61018b6101863660046110ae565b61032f565b60405161019891906111eb565b60405180910390f35b61018b61034e565b6101b1610354565b60405161019891906111f9565b6101d16101cc3660046110ea565b6103ea565b6040516101989190611199565b6101f16101ec36600461107e565b61041a565b005b61018b6104c7565b610203610512565b604051610198919061121a565b6101f161021e366004610f88565b610518565b61020361023136600461107e565b61053b565b6101d16102443660046110ea565b610589565b610203610594565b6101f161025f366004610f88565b6105a3565b6102036102723660046110ea565b6105be565b6101d16102853660046110ea565b6105f2565b61018b610298366004610f88565b610614565b6102036102ab366004610f30565b610628565b6101f1610659565b6101d16106b4565b61018b6106c3565b6101b16106d4565b6101f16102de36600461104e565b610735565b6101f16102f1366004610fd5565b6107ba565b6101b16103043660046110ea565b6107e0565b61018b610317366004610f4e565b610893565b6101f161032a366004610f30565b6108c1565b6001600160e01b03191660009081526020819052604090205460ff1690565b60015b90565b60098054604080516020601f60026000196101006001881615020190951694909404938401819004810282018101909252828152606093909290918301828280156103e05780601f106103b5576101008083540402835291602001916103e0565b820191906000526020600020905b8154815290600101906020018083116103c357829003601f168201915b5050505050905090565b60006103f5826108de565b6103fe57600080fd5b506000908152600260205260409020546001600160a01b031690565b6000610425826105f2565b9050806001600160a01b0316836001600160a01b0316141561044657600080fd5b336001600160a01b038216148061046257506104628133610893565b61046b57600080fd5b60008281526002602052604080822080546001600160a01b0319166001600160a01b0387811691821790925591518593918516917f8c5be1e5ebec7d5bd14f71427d1e84f3dd0314c0f7b2291e5b200ac8c7c3b92591a4505050565b60006064600d5411156104f55760405162461bcd60e51b81526004016104ec9061120a565b60405180910390fd5b60006104ff610594565b600101905061050e33826108fb565b5090565b60075490565b610522338261091c565b61052b57600080fd5b61053683838361097b565b505050565b600061054683610628565b821061055157600080fd5b6001600160a01b038316600090815260056020526040902080548390811061057557fe5b906000526020600020015490505b92915050565b6000610583826105f2565b600061059e610512565b905090565b610536838383604051806020016040528060008152506107ba565b60006105c8610512565b82106105d357600080fd5b600782815481106105e057fe5b90600052602060002001549050919050565b6000818152600160205260408120546001600160a01b03168061058357600080fd5b6000610621848484610518565b9392505050565b60006001600160a01b03821661063d57600080fd5b506001600160a01b031660009081526003602052604090205490565b6106616106c3565b61066a57600080fd5b600c546040516000916001600160a01b0316907f8be0079c531659141344cd1fd0a4f28419497f9722a3daafe3b4186f6b6457e0908390a3600c80546001600160a01b0319169055565b600c546001600160a01b031690565b600c546001600160a01b0316331490565b600a8054604080516020601f60026000196101006001881615020190951694909404938401819004810282018101909252828152606093909290918301828280156103e05780601f106103b5576101008083540402835291602001916103e0565b6001600160a01b03821633141561074b57600080fd5b3360008181526004602090815260408083206001600160a01b038716808552925291829020805460ff191685151517905590519091907f17307eab39ab6107e8899845ad3d59bd9653f200f220920489ca2b5937696c31906107ae9085906111eb565b60405180910390a35050565b6107c5848484610518565b6107d18484848461099a565b6107da57600080fd5b50505050565b60606107eb826108de565b6107f457600080fd5b6000828152600b602090815260409182902080548351601f6002600019610100600186161502019093169290920491820184900484028101840190945280845290918301828280156108875780601f1061085c57610100808354040283529160200191610887565b820191906000526020600020905b81548152906001019060200180831161086a57829003601f168201915b50505050509050919050565b6001600160a01b03918216600090815260046020908152604080832093909416825291909152205460ff1690565b6108c96106c3565b6108d257600080fd5b6108db81610a5f565b50565b6000908152600160205260409020546001600160a01b0316151590565b6109058282610ace565b61090f8282610b80565b61091881610bbe565b5050565b600080610928836105f2565b9050806001600160a01b0316846001600160a01b031614806109635750836001600160a01b0316610958846103ea565b6001600160a01b0316145b8061097357506109738185610893565b949350505050565b610986838383610c02565b6109908382610d0f565b6105368282610b80565b60006109ae846001600160a01b0316610e04565b6109ba57506001610973565b604051630a85bd0160e11b81526000906001600160a01b0386169063150b7a02906109ef9033908a90899089906004016111a7565b602060405180830381600087803b158015610a0957600080fd5b505af1158015610a1d573d6000803e3d6000fd5b505050506040513d601f19601f82011682018060405250610a4191908101906110cc565b6001600160e01b031916630a85bd0160e11b14915050949350505050565b6001600160a01b038116610a7257600080fd5b600c546040516001600160a01b038084169216907f8be0079c531659141344cd1fd0a4f28419497f9722a3daafe3b4186f6b6457e090600090a3600c80546001600160a01b0319166001600160a01b0392909216919091179055565b6001600160a01b038216610ae157600080fd5b610aea816108de565b15610af457600080fd5b600081815260016020818152604080842080546001600160a01b0319166001600160a01b0388169081179091558452600390915290912054610b3591610e0a565b6001600160a01b0383166000818152600360205260408082209390935591518392907fddf252ad1be2c89b69c2b068fc378daa952ba7f163c4a11628f55a4df523b3ef908290a45050565b6001600160a01b0390911660009081526005602081815260408084208054868652600684529185208290559282526001810183559183529091200155565b600780546000838152600860205260408120829055600182018355919091527fa66cc928b5edb82af9bd49922954155ab7b0942694bea4ce44661d9a8736c6880155565b826001600160a01b0316610c15826105f2565b6001600160a01b031614610c2857600080fd5b6001600160a01b038216610c3b57600080fd5b610c4481610e1c565b6001600160a01b038316600090815260036020526040902054610c6e90600163ffffffff610e5716565b6001600160a01b038085166000908152600360205260408082209390935590841681522054610ca490600163ffffffff610e0a16565b6001600160a01b038084166000818152600360209081526040808320959095558582526001905283812080546001600160a01b031916831790559251849391928716917fddf252ad1be2c89b69c2b068fc378daa952ba7f163c4a11628f55a4df523b3ef91a4505050565b6001600160a01b038216600090815260056020526040812054610d3990600163ffffffff610e5716565b600083815260066020526040902054909150808214610dd4576001600160a01b0384166000908152600560205260408120805484908110610d7657fe5b906000526020600020015490508060056000876001600160a01b03166001600160a01b031681526020019081526020016000208381548110610db457fe5b600091825260208083209091019290925591825260069052604090208190555b6001600160a01b0384166000908152600560205260409020805490610dfd906000198301610e6c565b5050505050565b3b151590565b60008282018381101561062157600080fd5b6000818152600260205260409020546001600160a01b0316156108db57600090815260026020526040902080546001600160a01b0319169055565b600082821115610e6657600080fd5b50900390565b8154818355818111156105365760008381526020902061053691810190830161035191905b8082111561050e5760008155600101610e91565b803561058381611300565b803561058381611314565b80356105838161131d565b80516105838161131d565b600082601f830112610ee257600080fd5b8135610ef5610ef08261124f565b611228565b91508082526020830160208301858383011115610f1157600080fd5b610f1c8382846112be565b50505092915050565b803561058381611326565b600060208284031215610f4257600080fd5b60006109738484610ea5565b60008060408385031215610f6157600080fd5b6000610f6d8585610ea5565b9250506020610f7e85828601610ea5565b9150509250929050565b600080600060608486031215610f9d57600080fd5b6000610fa98686610ea5565b9350506020610fba86828701610ea5565b9250506040610fcb86828701610f25565b9150509250925092565b60008060008060808587031215610feb57600080fd5b6000610ff78787610ea5565b945050602061100887828801610ea5565b935050604061101987828801610f25565b925050606085013567ffffffffffffffff81111561103657600080fd5b61104287828801610ed1565b91505092959194509250565b6000806040838503121561106157600080fd5b600061106d8585610ea5565b9250506020610f7e85828601610eb0565b6000806040838503121561109157600080fd5b600061109d8585610ea5565b9250506020610f7e85828601610f25565b6000602082840312156110c057600080fd5b60006109738484610ebb565b6000602082840312156110de57600080fd5b60006109738484610ec6565b6000602082840312156110fc57600080fd5b60006109738484610f25565b611111816112ad565b82525050565b61111181611284565b6111118161128f565b600061113482611277565b61113e818561127b565b935061114e8185602086016112ca565b611157816112f6565b9093019392505050565b600061116e60138361127b565b725469636b657420697320736f6c64206f75742160681b815260200192915050565b61111181610351565b602081016105838284611117565b608081016111b58287611108565b6111c26020830186611117565b6111cf6040830185611190565b81810360608301526111e18184611129565b9695505050505050565b602081016105838284611120565b602080825281016106218184611129565b6020808252810161058381611161565b602081016105838284611190565b60405181810167ffffffffffffffff8111828210171561124757600080fd5b604052919050565b600067ffffffffffffffff82111561126657600080fd5b506020601f91909101601f19160190565b5190565b90815260200190565b6000610583826112a1565b151590565b6001600160e01b03191690565b6001600160a01b031690565b600061058382600061058382611284565b82818337506000910152565b60005b838110156112e55781810151838201526020016112cd565b838111156107da5750506000910152565b601f01601f191690565b61130981611284565b81146108db57600080fd5b6113098161128f565b61130981611294565b6113098161035156fea365627a7a72315820c201fa1beb21ea7e873b573b1488c1cfc866a64f09c574e5bc8ee05ad6edaad26c6578706572696d656e74616cf564736f6c634300050c0040",
  "source": "pragma solidity ^0.5.2;\npragma experimental ABIEncoderV2;\n\n// Storage\nimport \"./storage/WtConstants.sol\";\n\nimport \"openzeppelin-solidity/contracts/token/ERC721/ERC721Full.sol\";\nimport \"openzeppelin-solidity/contracts/ownership/Ownable.sol\";\n\n\ncontract TicketFactory is ERC721Full, WtConstants, Ownable {\n\n    uint256 ticketCap = 100;\n\n    constructor(\n        string memory name, \n        string memory symbol,\n        uint tokenId,\n        string memory tokenURI\n    ) \n        ERC721Full(name, symbol)\n        public \n    {\n        _mint(msg.sender, tokenId);\n        _setTokenURI(tokenId, tokenURI);\n    }\n\n\n    function testFunc() public returns (bool) {\n        return WtConstants.CONFIRMED;\n    }\n\n    function _totalSupply() public view returns (uint256) {\n        return totalSupply();\n    }\n\n\n    // @notice owner address of ERC721 token which is specified\n    // @param _ticketId is tokenId\n    function _ownerOf(uint _ticketId) public returns (address) {\n        return ownerOf(_ticketId);\n    }\n\n\n    function mint() public returns (bool)  {\n\n        require (ticketCap <= 100, \"Ticket is sold out!\");\n        \n        uint256 _tokenId = _totalSupply() + 1;\n        _mint(msg.sender, _tokenId);\n    }\n\n    function _transferTicketFrom(address _from, address _to, uint256 _ticketId) public returns (bool) {\n        transferFrom(_from , _to, _ticketId);\n    }\n    \n\n\n}\n",
  "sourcePath": "/Users/unomasanori/projects/DEMO_MVP/Gitcoin-Global-Communities-Hackcathon/walletConnect-ticketing-dapp/contracts/TicketFactory.sol",
  "compiler": {
    "name": "solc",
    "version": "0.5.12+commit.7709ece9.Emscripten.clang"
  },
  "schemaVersion": "3.0.19",
  "updatedAt": "2019-12-11T10:36:31.028Z",
  "networkType": "ethereum",
  "devdoc": {
    "methods": {
      "approve(address,uint256)": {
        "details": "Approves another address to transfer the given token ID The zero address indicates there is no approved address. There can only be one approved address per token at a given time. Can only be called by the token owner or an approved operator.",
        "params": {
          "to": "address to be approved for the given token ID",
          "tokenId": "uint256 ID of the token to be approved"
        }
      },
      "balanceOf(address)": {
        "details": "Gets the balance of the specified address",
        "params": {
          "owner": "address to query the balance of"
        },
        "return": "uint256 representing the amount owned by the passed address"
      },
      "getApproved(uint256)": {
        "details": "Gets the approved address for a token ID, or zero if no address set Reverts if the token ID does not exist.",
        "params": {
          "tokenId": "uint256 ID of the token to query the approval of"
        },
        "return": "address currently approved for the given token ID"
      },
      "isApprovedForAll(address,address)": {
        "details": "Tells whether an operator is approved by a given owner",
        "params": {
          "operator": "operator address which you want to query the approval of",
          "owner": "owner address which you want to query the approval of"
        },
        "return": "bool whether the given operator is approved by the given owner"
      },
      "isOwner()": {
        "return": "true if `msg.sender` is the owner of the contract."
      },
      "name()": {
        "details": "Gets the token name",
        "return": "string representing the token name"
      },
      "owner()": {
        "return": "the address of the owner."
      },
      "ownerOf(uint256)": {
        "details": "Gets the owner of the specified token ID",
        "params": {
          "tokenId": "uint256 ID of the token to query the owner of"
        },
        "return": "owner address currently marked as the owner of the given token ID"
      },
      "renounceOwnership()": {
        "details": "Allows the current owner to relinquish control of the contract."
      },
      "safeTransferFrom(address,address,uint256)": {
        "details": "Safely transfers the ownership of a given token ID to another address If the target address is a contract, it must implement `onERC721Received`, which is called upon a safe transfer, and return the magic value `bytes4(keccak256(\"onERC721Received(address,address,uint256,bytes)\"))`; otherwise, the transfer is reverted.     * Requires the msg sender to be the owner, approved, or operator",
        "params": {
          "from": "current owner of the token",
          "to": "address to receive the ownership of the given token ID",
          "tokenId": "uint256 ID of the token to be transferred"
        }
      },
      "safeTransferFrom(address,address,uint256,bytes)": {
        "details": "Safely transfers the ownership of a given token ID to another address If the target address is a contract, it must implement `onERC721Received`, which is called upon a safe transfer, and return the magic value `bytes4(keccak256(\"onERC721Received(address,address,uint256,bytes)\"))`; otherwise, the transfer is reverted. Requires the msg sender to be the owner, approved, or operator",
        "params": {
          "_data": "bytes data to send along with a safe transfer check",
          "from": "current owner of the token",
          "to": "address to receive the ownership of the given token ID",
          "tokenId": "uint256 ID of the token to be transferred"
        }
      },
      "setApprovalForAll(address,bool)": {
        "details": "Sets or unsets the approval of a given operator An operator is allowed to transfer all tokens of the sender on their behalf",
        "params": {
          "approved": "representing the status of the approval to be set",
          "to": "operator address to set the approval"
        }
      },
      "supportsInterface(bytes4)": {
        "details": "implement supportsInterface(bytes4) using a lookup table"
      },
      "symbol()": {
        "details": "Gets the token symbol",
        "return": "string representing the token symbol"
      },
      "tokenByIndex(uint256)": {
        "details": "Gets the token ID at a given index of all the tokens in this contract Reverts if the index is greater or equal to the total number of tokens",
        "params": {
          "index": "uint256 representing the index to be accessed of the tokens list"
        },
        "return": "uint256 token ID at the given index of the tokens list"
      },
      "tokenOfOwnerByIndex(address,uint256)": {
        "details": "Gets the token ID at a given index of the tokens list of the requested owner",
        "params": {
          "index": "uint256 representing the index to be accessed of the requested tokens list",
          "owner": "address owning the tokens list to be accessed"
        },
        "return": "uint256 token ID at the given index of the tokens list owned by the requested address"
      },
      "tokenURI(uint256)": {
        "details": "Returns an URI for a given token ID Throws if the token ID does not exist. May return an empty string.",
        "params": {
          "tokenId": "uint256 ID of the token to query"
        }
      },
      "totalSupply()": {
        "details": "Gets the total amount of tokens stored by the contract",
        "return": "uint256 representing the total amount of tokens"
      },
      "transferFrom(address,address,uint256)": {
        "details": "Transfers the ownership of a given token ID to another address Usage of this method is discouraged, use `safeTransferFrom` whenever possible Requires the msg sender to be the owner, approved, or operator",
        "params": {
          "from": "current owner of the token",
          "to": "address to receive the ownership of the given token ID",
          "tokenId": "uint256 ID of the token to be transferred"
        }
      },
      "transferOwnership(address)": {
        "details": "Allows the current owner to transfer control of the contract to a newOwner.",
        "params": {
          "newOwner": "The address to transfer ownership to."
        }
      }
    }
  },
  "userdoc": {
    "methods": {
      "renounceOwnership()": {
        "notice": "Renouncing to ownership will leave the contract without an owner. It will not be possible to call the functions with the `onlyOwner` modifier anymore."
      }
    }
  }
}