{
  "contractName": "TicketFactory",
  "abi": [
    {
      "inputs": [
        {
          "internalType": "string",
          "name": "name",
          "type": "string"
        },
        {
          "internalType": "string",
          "name": "symbol",
          "type": "string"
        },
        {
          "internalType": "uint256",
          "name": "tokenId",
          "type": "uint256"
        },
        {
          "internalType": "string",
          "name": "tokenURI",
          "type": "string"
        }
      ],
      "payable": false,
      "stateMutability": "nonpayable",
      "type": "constructor"
    },
    {
      "anonymous": false,
      "inputs": [
        {
          "indexed": true,
          "internalType": "address",
          "name": "owner",
          "type": "address"
        },
        {
          "indexed": true,
          "internalType": "address",
          "name": "approved",
          "type": "address"
        },
        {
          "indexed": true,
          "internalType": "uint256",
          "name": "tokenId",
          "type": "uint256"
        }
      ],
      "name": "Approval",
      "type": "event"
    },
    {
      "anonymous": false,
      "inputs": [
        {
          "indexed": true,
          "internalType": "address",
          "name": "owner",
          "type": "address"
        },
        {
          "indexed": true,
          "internalType": "address",
          "name": "operator",
          "type": "address"
        },
        {
          "indexed": false,
          "internalType": "bool",
          "name": "approved",
          "type": "bool"
        }
      ],
      "name": "ApprovalForAll",
      "type": "event"
    },
    {
      "anonymous": false,
      "inputs": [
        {
          "indexed": true,
          "internalType": "address",
          "name": "previousOwner",
          "type": "address"
        },
        {
          "indexed": true,
          "internalType": "address",
          "name": "newOwner",
          "type": "address"
        }
      ],
      "name": "OwnershipTransferred",
      "type": "event"
    },
    {
      "anonymous": false,
      "inputs": [
        {
          "indexed": true,
          "internalType": "address",
          "name": "from",
          "type": "address"
        },
        {
          "indexed": true,
          "internalType": "address",
          "name": "to",
          "type": "address"
        },
        {
          "indexed": true,
          "internalType": "uint256",
          "name": "tokenId",
          "type": "uint256"
        }
      ],
      "name": "Transfer",
      "type": "event"
    },
    {
      "constant": false,
      "inputs": [
        {
          "internalType": "address",
          "name": "to",
          "type": "address"
        },
        {
          "internalType": "uint256",
          "name": "tokenId",
          "type": "uint256"
        }
      ],
      "name": "approve",
      "outputs": [],
      "payable": false,
      "stateMutability": "nonpayable",
      "type": "function"
    },
    {
      "constant": true,
      "inputs": [
        {
          "internalType": "address",
          "name": "owner",
          "type": "address"
        }
      ],
      "name": "balanceOf",
      "outputs": [
        {
          "internalType": "uint256",
          "name": "",
          "type": "uint256"
        }
      ],
      "payable": false,
      "stateMutability": "view",
      "type": "function"
    },
    {
      "constant": true,
      "inputs": [
        {
          "internalType": "uint256",
          "name": "tokenId",
          "type": "uint256"
        }
      ],
      "name": "getApproved",
      "outputs": [
        {
          "internalType": "address",
          "name": "",
          "type": "address"
        }
      ],
      "payable": false,
      "stateMutability": "view",
      "type": "function"
    },
    {
      "constant": true,
      "inputs": [
        {
          "internalType": "address",
          "name": "owner",
          "type": "address"
        },
        {
          "internalType": "address",
          "name": "operator",
          "type": "address"
        }
      ],
      "name": "isApprovedForAll",
      "outputs": [
        {
          "internalType": "bool",
          "name": "",
          "type": "bool"
        }
      ],
      "payable": false,
      "stateMutability": "view",
      "type": "function"
    },
    {
      "constant": true,
      "inputs": [],
      "name": "isOwner",
      "outputs": [
        {
          "internalType": "bool",
          "name": "",
          "type": "bool"
        }
      ],
      "payable": false,
      "stateMutability": "view",
      "type": "function"
    },
    {
      "constant": true,
      "inputs": [],
      "name": "name",
      "outputs": [
        {
          "internalType": "string",
          "name": "",
          "type": "string"
        }
      ],
      "payable": false,
      "stateMutability": "view",
      "type": "function"
    },
    {
      "constant": true,
      "inputs": [],
      "name": "owner",
      "outputs": [
        {
          "internalType": "address",
          "name": "",
          "type": "address"
        }
      ],
      "payable": false,
      "stateMutability": "view",
      "type": "function"
    },
    {
      "constant": true,
      "inputs": [
        {
          "internalType": "uint256",
          "name": "tokenId",
          "type": "uint256"
        }
      ],
      "name": "ownerOf",
      "outputs": [
        {
          "internalType": "address",
          "name": "",
          "type": "address"
        }
      ],
      "payable": false,
      "stateMutability": "view",
      "type": "function"
    },
    {
      "constant": false,
      "inputs": [],
      "name": "renounceOwnership",
      "outputs": [],
      "payable": false,
      "stateMutability": "nonpayable",
      "type": "function"
    },
    {
      "constant": false,
      "inputs": [
        {
          "internalType": "address",
          "name": "from",
          "type": "address"
        },
        {
          "internalType": "address",
          "name": "to",
          "type": "address"
        },
        {
          "internalType": "uint256",
          "name": "tokenId",
          "type": "uint256"
        }
      ],
      "name": "safeTransferFrom",
      "outputs": [],
      "payable": false,
      "stateMutability": "nonpayable",
      "type": "function"
    },
    {
      "constant": false,
      "inputs": [
        {
          "internalType": "address",
          "name": "from",
          "type": "address"
        },
        {
          "internalType": "address",
          "name": "to",
          "type": "address"
        },
        {
          "internalType": "uint256",
          "name": "tokenId",
          "type": "uint256"
        },
        {
          "internalType": "bytes",
          "name": "_data",
          "type": "bytes"
        }
      ],
      "name": "safeTransferFrom",
      "outputs": [],
      "payable": false,
      "stateMutability": "nonpayable",
      "type": "function"
    },
    {
      "constant": false,
      "inputs": [
        {
          "internalType": "address",
          "name": "to",
          "type": "address"
        },
        {
          "internalType": "bool",
          "name": "approved",
          "type": "bool"
        }
      ],
      "name": "setApprovalForAll",
      "outputs": [],
      "payable": false,
      "stateMutability": "nonpayable",
      "type": "function"
    },
    {
      "constant": true,
      "inputs": [
        {
          "internalType": "bytes4",
          "name": "interfaceId",
          "type": "bytes4"
        }
      ],
      "name": "supportsInterface",
      "outputs": [
        {
          "internalType": "bool",
          "name": "",
          "type": "bool"
        }
      ],
      "payable": false,
      "stateMutability": "view",
      "type": "function"
    },
    {
      "constant": true,
      "inputs": [],
      "name": "symbol",
      "outputs": [
        {
          "internalType": "string",
          "name": "",
          "type": "string"
        }
      ],
      "payable": false,
      "stateMutability": "view",
      "type": "function"
    },
    {
      "constant": true,
      "inputs": [
        {
          "internalType": "uint256",
          "name": "index",
          "type": "uint256"
        }
      ],
      "name": "tokenByIndex",
      "outputs": [
        {
          "internalType": "uint256",
          "name": "",
          "type": "uint256"
        }
      ],
      "payable": false,
      "stateMutability": "view",
      "type": "function"
    },
    {
      "constant": true,
      "inputs": [
        {
          "internalType": "address",
          "name": "owner",
          "type": "address"
        },
        {
          "internalType": "uint256",
          "name": "index",
          "type": "uint256"
        }
      ],
      "name": "tokenOfOwnerByIndex",
      "outputs": [
        {
          "internalType": "uint256",
          "name": "",
          "type": "uint256"
        }
      ],
      "payable": false,
      "stateMutability": "view",
      "type": "function"
    },
    {
      "constant": true,
      "inputs": [
        {
          "internalType": "uint256",
          "name": "tokenId",
          "type": "uint256"
        }
      ],
      "name": "tokenURI",
      "outputs": [
        {
          "internalType": "string",
          "name": "",
          "type": "string"
        }
      ],
      "payable": false,
      "stateMutability": "view",
      "type": "function"
    },
    {
      "constant": true,
      "inputs": [],
      "name": "totalSupply",
      "outputs": [
        {
          "internalType": "uint256",
          "name": "",
          "type": "uint256"
        }
      ],
      "payable": false,
      "stateMutability": "view",
      "type": "function"
    },
    {
      "constant": false,
      "inputs": [
        {
          "internalType": "address",
          "name": "from",
          "type": "address"
        },
        {
          "internalType": "address",
          "name": "to",
          "type": "address"
        },
        {
          "internalType": "uint256",
          "name": "tokenId",
          "type": "uint256"
        }
      ],
      "name": "transferFrom",
      "outputs": [],
      "payable": false,
      "stateMutability": "nonpayable",
      "type": "function"
    },
    {
      "constant": false,
      "inputs": [
        {
          "internalType": "address",
          "name": "newOwner",
          "type": "address"
        }
      ],
      "name": "transferOwnership",
      "outputs": [],
      "payable": false,
      "stateMutability": "nonpayable",
      "type": "function"
    },
    {
      "constant": false,
      "inputs": [],
      "name": "testFunc",
      "outputs": [
        {
          "internalType": "bool",
          "name": "",
          "type": "bool"
        }
      ],
      "payable": false,
      "stateMutability": "nonpayable",
      "type": "function"
    },
    {
      "constant": true,
      "inputs": [],
      "name": "_totalSupply",
      "outputs": [
        {
          "internalType": "uint256",
          "name": "",
          "type": "uint256"
        }
      ],
      "payable": false,
      "stateMutability": "view",
      "type": "function"
    }
  ],
  "bytecode": "0x60806040523480156200001157600080fd5b50604051620018af380380620018af833981016040819052620000349162000542565b838381816200006c7f01ffc9a7000000000000000000000000000000000000000000000000000000006001600160e01b03620001b816565b620000a07f80ac58cd000000000000000000000000000000000000000000000000000000006001600160e01b03620001b816565b620000d47f780e9d63000000000000000000000000000000000000000000000000000000006001600160e01b03620001b816565b8151620000e990600990602085019062000434565b508051620000ff90600a90602084019062000434565b50620001347f5b5e139f000000000000000000000000000000000000000000000000000000006001600160e01b03620001b816565b5050600c80546001600160a01b0319163317908190556040516001600160a01b03919091169250600091507f8be0079c531659141344cd1fd0a4f28419497f9722a3daafe3b4186f6b6457e0908290a36200019933836001600160e01b036200022516565b620001ae82826001600160e01b036200026916565b505050506200068f565b7fffffffff000000000000000000000000000000000000000000000000000000008082161415620001e857600080fd5b7fffffffff00000000000000000000000000000000000000000000000000000000166000908152602081905260409020805460ff19166001179055565b6200023c8282620002ad60201b6200111b1760201c565b6200025182826001600160e01b036200037916565b62000265816001600160e01b03620003b716565b5050565b6200027d826001600160e01b03620003fb16565b6200028757600080fd5b6000828152600b602090815260409091208251620002a89284019062000434565b505050565b6001600160a01b038216620002c157600080fd5b620002d5816001600160e01b03620003fb16565b15620002e057600080fd5b600081815260016020818152604080842080546001600160a01b0319166001600160a01b038816908117909155845260038252909220546200032e9290919062000418811b62000c7a17901c565b6001600160a01b0383166000818152600360205260408082209390935591518392907fddf252ad1be2c89b69c2b068fc378daa952ba7f163c4a11628f55a4df523b3ef908290a45050565b6001600160a01b0390911660009081526005602081815260408084208054868652600684529185208290559282526001810183559183529091200155565b600780546000838152600860205260408120829055600182018355919091527fa66cc928b5edb82af9bd49922954155ab7b0942694bea4ce44661d9a8736c6880155565b6000908152600160205260409020546001600160a01b0316151590565b6000828201838110156200042b57600080fd5b90505b92915050565b828054600181600116156101000203166002900490600052602060002090601f016020900481019282601f106200047757805160ff1916838001178555620004a7565b82800160010185558215620004a7579182015b82811115620004a75782518255916020019190600101906200048a565b50620004b5929150620004b9565b5090565b620004d691905b80821115620004b55760008155600101620004c0565b90565b600082601f830112620004eb57600080fd5b815162000502620004fc826200061a565b620005f3565b915080825260208301602083018583830111156200051f57600080fd5b6200052c83828462000642565b50505092915050565b80516200042e8162000675565b600080600080608085870312156200055957600080fd5b84516001600160401b038111156200057057600080fd5b6200057e87828801620004d9565b94505060208501516001600160401b038111156200059b57600080fd5b620005a987828801620004d9565b9350506040620005bc8782880162000535565b92505060608501516001600160401b03811115620005d957600080fd5b620005e787828801620004d9565b91505092959194509250565b6040518181016001600160401b03811182821017156200061257600080fd5b604052919050565b60006001600160401b038211156200063157600080fd5b506020601f91909101601f19160190565b60005b838110156200065f57818101518382015260200162000645565b838111156200066f576000848401525b50505050565b6200068081620004d6565b81146200068c57600080fd5b50565b611210806200069f6000396000f3fe608060405234801561001057600080fd5b50600436106101425760003560e01c80636352211e116100b857806395d89b411161007c57806395d89b4114610269578063a22cb46514610271578063b88d4fde14610284578063c87b56dd14610297578063e985e9c5146102aa578063f2fde38b146102bd57610142565b80636352211e1461022b57806370a082311461023e578063715018a6146102515780638da5cb5b146102595780638f32d59b1461026157610142565b806318160ddd1161010a57806318160ddd146101c257806323b872dd146101d75780632f745c59146101ea5780633eaaf86b146101fd57806342842e0e146102055780634f6ccce71461021857610142565b806301ffc9a714610147578063037a417c1461017057806306fdde0314610178578063081812fc1461018d578063095ea7b3146101ad575b600080fd5b61015a610155366004610ed9565b6102d0565b6040516101679190610fe7565b60405180910390f35b61015a6102ef565b6101806102f5565b6040516101679190610ff5565b6101a061019b366004610f15565b61038b565b6040516101679190610f95565b6101c06101bb366004610ea9565b6103bb565b005b6101ca610468565b6040516101679190611006565b6101c06101e5366004610db3565b61046e565b6101ca6101f8366004610ea9565b610491565b6101ca6104df565b6101c0610213366004610db3565b6104ee565b6101ca610226366004610f15565b610509565b6101a0610239366004610f15565b61053d565b6101ca61024c366004610d5b565b61055f565b6101c0610590565b6101a06105eb565b61015a6105fa565b61018061060b565b6101c061027f366004610e79565b61066c565b6101c0610292366004610e00565b6106f1565b6101806102a5366004610f15565b610717565b61015a6102b8366004610d79565b6107ca565b6101c06102cb366004610d5b565b6107f8565b6001600160e01b03191660009081526020819052604090205460ff1690565b60015b90565b60098054604080516020601f60026000196101006001881615020190951694909404938401819004810282018101909252828152606093909290918301828280156103815780601f1061035657610100808354040283529160200191610381565b820191906000526020600020905b81548152906001019060200180831161036457829003601f168201915b5050505050905090565b600061039682610815565b61039f57600080fd5b506000908152600260205260409020546001600160a01b031690565b60006103c68261053d565b9050806001600160a01b0316836001600160a01b031614156103e757600080fd5b336001600160a01b0382161480610403575061040381336107ca565b61040c57600080fd5b60008281526002602052604080822080546001600160a01b0319166001600160a01b0387811691821790925591518593918516917f8c5be1e5ebec7d5bd14f71427d1e84f3dd0314c0f7b2291e5b200ac8c7c3b92591a4505050565b60075490565b6104783382610832565b61048157600080fd5b61048c838383610891565b505050565b600061049c8361055f565b82106104a757600080fd5b6001600160a01b03831660009081526005602052604090208054839081106104cb57fe5b906000526020600020015490505b92915050565b60006104e9610468565b905090565b61048c838383604051806020016040528060008152506106f1565b6000610513610468565b821061051e57600080fd5b6007828154811061052b57fe5b90600052602060002001549050919050565b6000818152600160205260408120546001600160a01b0316806104d957600080fd5b60006001600160a01b03821661057457600080fd5b506001600160a01b031660009081526003602052604090205490565b6105986105fa565b6105a157600080fd5b600c546040516000916001600160a01b0316907f8be0079c531659141344cd1fd0a4f28419497f9722a3daafe3b4186f6b6457e0908390a3600c80546001600160a01b0319169055565b600c546001600160a01b031690565b600c546001600160a01b0316331490565b600a8054604080516020601f60026000196101006001881615020190951694909404938401819004810282018101909252828152606093909290918301828280156103815780601f1061035657610100808354040283529160200191610381565b6001600160a01b03821633141561068257600080fd5b3360008181526004602090815260408083206001600160a01b038716808552925291829020805460ff191685151517905590519091907f17307eab39ab6107e8899845ad3d59bd9653f200f220920489ca2b5937696c31906106e5908590610fe7565b60405180910390a35050565b6106fc84848461046e565b610708848484846108b0565b61071157600080fd5b50505050565b606061072282610815565b61072b57600080fd5b6000828152600b602090815260409182902080548351601f6002600019610100600186161502019093169290920491820184900484028101840190945280845290918301828280156107be5780601f10610793576101008083540402835291602001916107be565b820191906000526020600020905b8154815290600101906020018083116107a157829003601f168201915b50505050509050919050565b6001600160a01b03918216600090815260046020908152604080832093909416825291909152205460ff1690565b6108006105fa565b61080957600080fd5b61081281610975565b50565b6000908152600160205260409020546001600160a01b0316151590565b60008061083e8361053d565b9050806001600160a01b0316846001600160a01b031614806108795750836001600160a01b031661086e8461038b565b6001600160a01b0316145b80610889575061088981856107ca565b949350505050565b61089c8383836109e4565b6108a68382610af1565b61048c8282610be6565b60006108c4846001600160a01b0316610c24565b6108d057506001610889565b604051630a85bd0160e11b81526000906001600160a01b0386169063150b7a02906109059033908a9089908990600401610fa3565b602060405180830381600087803b15801561091f57600080fd5b505af1158015610933573d6000803e3d6000fd5b505050506040513d601f19601f820116820180604052506109579190810190610ef7565b6001600160e01b031916630a85bd0160e11b14915050949350505050565b6001600160a01b03811661098857600080fd5b600c546040516001600160a01b038084169216907f8be0079c531659141344cd1fd0a4f28419497f9722a3daafe3b4186f6b6457e090600090a3600c80546001600160a01b0319166001600160a01b0392909216919091179055565b826001600160a01b03166109f78261053d565b6001600160a01b031614610a0a57600080fd5b6001600160a01b038216610a1d57600080fd5b610a2681610c2a565b6001600160a01b038316600090815260036020526040902054610a5090600163ffffffff610c6516565b6001600160a01b038085166000908152600360205260408082209390935590841681522054610a8690600163ffffffff610c7a16565b6001600160a01b038084166000818152600360209081526040808320959095558582526001905283812080546001600160a01b031916831790559251849391928716917fddf252ad1be2c89b69c2b068fc378daa952ba7f163c4a11628f55a4df523b3ef91a4505050565b6001600160a01b038216600090815260056020526040812054610b1b90600163ffffffff610c6516565b600083815260066020526040902054909150808214610bb6576001600160a01b0384166000908152600560205260408120805484908110610b5857fe5b906000526020600020015490508060056000876001600160a01b03166001600160a01b031681526020019081526020016000208381548110610b9657fe5b600091825260208083209091019290925591825260069052604090208190555b6001600160a01b0384166000908152600560205260409020805490610bdf906000198301610c93565b5050505050565b6001600160a01b0390911660009081526005602081815260408084208054868652600684529185208290559282526001810183559183529091200155565b3b151590565b6000818152600260205260409020546001600160a01b03161561081257600090815260026020526040902080546001600160a01b0319169055565b600082821115610c7457600080fd5b50900390565b600082820183811015610c8c57600080fd5b9392505050565b81548183558181111561048c5760008381526020902061048c9181019083016102f291905b80821115610ccc5760008155600101610cb8565b5090565b80356104d9816110ec565b80356104d981611100565b80356104d981611109565b80516104d981611109565b600082601f830112610d0d57600080fd5b8135610d20610d1b8261103b565b611014565b91508082526020830160208301858383011115610d3c57600080fd5b610d478382846110aa565b50505092915050565b80356104d981611112565b600060208284031215610d6d57600080fd5b60006108898484610cd0565b60008060408385031215610d8c57600080fd5b6000610d988585610cd0565b9250506020610da985828601610cd0565b9150509250929050565b600080600060608486031215610dc857600080fd5b6000610dd48686610cd0565b9350506020610de586828701610cd0565b9250506040610df686828701610d50565b9150509250925092565b60008060008060808587031215610e1657600080fd5b6000610e228787610cd0565b9450506020610e3387828801610cd0565b9350506040610e4487828801610d50565b925050606085013567ffffffffffffffff811115610e6157600080fd5b610e6d87828801610cfc565b91505092959194509250565b60008060408385031215610e8c57600080fd5b6000610e988585610cd0565b9250506020610da985828601610cdb565b60008060408385031215610ebc57600080fd5b6000610ec88585610cd0565b9250506020610da985828601610d50565b600060208284031215610eeb57600080fd5b60006108898484610ce6565b600060208284031215610f0957600080fd5b60006108898484610cf1565b600060208284031215610f2757600080fd5b60006108898484610d50565b610f3c81611099565b82525050565b610f3c81611070565b610f3c8161107b565b6000610f5f82611063565b610f698185611067565b9350610f798185602086016110b6565b610f82816110e2565b9093019392505050565b610f3c816102f2565b602081016104d98284610f42565b60808101610fb18287610f33565b610fbe6020830186610f42565b610fcb6040830185610f8c565b8181036060830152610fdd8184610f54565b9695505050505050565b602081016104d98284610f4b565b60208082528101610c8c8184610f54565b602081016104d98284610f8c565b60405181810167ffffffffffffffff8111828210171561103357600080fd5b604052919050565b600067ffffffffffffffff82111561105257600080fd5b506020601f91909101601f19160190565b5190565b90815260200190565b60006104d98261108d565b151590565b6001600160e01b03191690565b6001600160a01b031690565b60006104d98260006104d982611070565b82818337506000910152565b60005b838110156110d15781810151838201526020016110b9565b838111156107115750506000910152565b601f01601f191690565b6110f581611070565b811461081257600080fd5b6110f58161107b565b6110f581611080565b6110f5816102f2565b6001600160a01b03821661112e57600080fd5b61113781610815565b1561114157600080fd5b600081815260016020818152604080842080546001600160a01b0319166001600160a01b038816908117909155845260039091529091205461118291610c7a565b6001600160a01b0383166000818152600360205260408082209390935591518392907fddf252ad1be2c89b69c2b068fc378daa952ba7f163c4a11628f55a4df523b3ef908290a4505056fea365627a7a72315820eb099ad77ffaf2ef2afe584741374f7fff01915a3721f8cd336002e1d309153f6c6578706572696d656e74616cf564736f6c634300050c0040",
  "source": "pragma solidity ^0.5.2;\npragma experimental ABIEncoderV2;\n\n// Storage\nimport \"./storage/WtConstants.sol\";\n\nimport \"openzeppelin-solidity/contracts/token/ERC721/ERC721Full.sol\";\nimport \"openzeppelin-solidity/contracts/ownership/Ownable.sol\";\n\n\ncontract TicketFactory is ERC721Full, WtConstants, Ownable {\n\n    constructor(\n        string memory name, \n        string memory symbol,\n        uint tokenId,\n        string memory tokenURI\n    ) \n        ERC721Full(name, symbol)\n        public \n    {\n        _mint(msg.sender, tokenId);\n        _setTokenURI(tokenId, tokenURI);\n    }\n\n\n    function testFunc() public returns (bool) {\n        return WtConstants.CONFIRMED;\n    }\n\n    function _totalSupply() public view returns (uint256) {\n        return totalSupply();\n    }\n    \n\n}\n",
  "sourcePath": "/Users/unomasanori/projects/DEMO_MVP/Gitcoin-Global-Communities-Hackcathon/walletConnect-ticketing-dapp/contracts/TicketFactory.sol",
  "compiler": {
    "name": "solc",
    "version": "0.5.12+commit.7709ece9.Emscripten.clang"
  },
  "schemaVersion": "3.0.19",
  "updatedAt": "2019-12-06T14:19:17.873Z",
  "networkType": "ethereum",
  "devdoc": {
    "methods": {
      "approve(address,uint256)": {
        "details": "Approves another address to transfer the given token ID The zero address indicates there is no approved address. There can only be one approved address per token at a given time. Can only be called by the token owner or an approved operator.",
        "params": {
          "to": "address to be approved for the given token ID",
          "tokenId": "uint256 ID of the token to be approved"
        }
      },
      "balanceOf(address)": {
        "details": "Gets the balance of the specified address",
        "params": {
          "owner": "address to query the balance of"
        },
        "return": "uint256 representing the amount owned by the passed address"
      },
      "getApproved(uint256)": {
        "details": "Gets the approved address for a token ID, or zero if no address set Reverts if the token ID does not exist.",
        "params": {
          "tokenId": "uint256 ID of the token to query the approval of"
        },
        "return": "address currently approved for the given token ID"
      },
      "isApprovedForAll(address,address)": {
        "details": "Tells whether an operator is approved by a given owner",
        "params": {
          "operator": "operator address which you want to query the approval of",
          "owner": "owner address which you want to query the approval of"
        },
        "return": "bool whether the given operator is approved by the given owner"
      },
      "isOwner()": {
        "return": "true if `msg.sender` is the owner of the contract."
      },
      "name()": {
        "details": "Gets the token name",
        "return": "string representing the token name"
      },
      "owner()": {
        "return": "the address of the owner."
      },
      "ownerOf(uint256)": {
        "details": "Gets the owner of the specified token ID",
        "params": {
          "tokenId": "uint256 ID of the token to query the owner of"
        },
        "return": "owner address currently marked as the owner of the given token ID"
      },
      "renounceOwnership()": {
        "details": "Allows the current owner to relinquish control of the contract."
      },
      "safeTransferFrom(address,address,uint256)": {
        "details": "Safely transfers the ownership of a given token ID to another address If the target address is a contract, it must implement `onERC721Received`, which is called upon a safe transfer, and return the magic value `bytes4(keccak256(\"onERC721Received(address,address,uint256,bytes)\"))`; otherwise, the transfer is reverted.     * Requires the msg sender to be the owner, approved, or operator",
        "params": {
          "from": "current owner of the token",
          "to": "address to receive the ownership of the given token ID",
          "tokenId": "uint256 ID of the token to be transferred"
        }
      },
      "safeTransferFrom(address,address,uint256,bytes)": {
        "details": "Safely transfers the ownership of a given token ID to another address If the target address is a contract, it must implement `onERC721Received`, which is called upon a safe transfer, and return the magic value `bytes4(keccak256(\"onERC721Received(address,address,uint256,bytes)\"))`; otherwise, the transfer is reverted. Requires the msg sender to be the owner, approved, or operator",
        "params": {
          "_data": "bytes data to send along with a safe transfer check",
          "from": "current owner of the token",
          "to": "address to receive the ownership of the given token ID",
          "tokenId": "uint256 ID of the token to be transferred"
        }
      },
      "setApprovalForAll(address,bool)": {
        "details": "Sets or unsets the approval of a given operator An operator is allowed to transfer all tokens of the sender on their behalf",
        "params": {
          "approved": "representing the status of the approval to be set",
          "to": "operator address to set the approval"
        }
      },
      "supportsInterface(bytes4)": {
        "details": "implement supportsInterface(bytes4) using a lookup table"
      },
      "symbol()": {
        "details": "Gets the token symbol",
        "return": "string representing the token symbol"
      },
      "tokenByIndex(uint256)": {
        "details": "Gets the token ID at a given index of all the tokens in this contract Reverts if the index is greater or equal to the total number of tokens",
        "params": {
          "index": "uint256 representing the index to be accessed of the tokens list"
        },
        "return": "uint256 token ID at the given index of the tokens list"
      },
      "tokenOfOwnerByIndex(address,uint256)": {
        "details": "Gets the token ID at a given index of the tokens list of the requested owner",
        "params": {
          "index": "uint256 representing the index to be accessed of the requested tokens list",
          "owner": "address owning the tokens list to be accessed"
        },
        "return": "uint256 token ID at the given index of the tokens list owned by the requested address"
      },
      "tokenURI(uint256)": {
        "details": "Returns an URI for a given token ID Throws if the token ID does not exist. May return an empty string.",
        "params": {
          "tokenId": "uint256 ID of the token to query"
        }
      },
      "totalSupply()": {
        "details": "Gets the total amount of tokens stored by the contract",
        "return": "uint256 representing the total amount of tokens"
      },
      "transferFrom(address,address,uint256)": {
        "details": "Transfers the ownership of a given token ID to another address Usage of this method is discouraged, use `safeTransferFrom` whenever possible Requires the msg sender to be the owner, approved, or operator",
        "params": {
          "from": "current owner of the token",
          "to": "address to receive the ownership of the given token ID",
          "tokenId": "uint256 ID of the token to be transferred"
        }
      },
      "transferOwnership(address)": {
        "details": "Allows the current owner to transfer control of the contract to a newOwner.",
        "params": {
          "newOwner": "The address to transfer ownership to."
        }
      }
    }
  },
  "userdoc": {
    "methods": {
      "renounceOwnership()": {
        "notice": "Renouncing to ownership will leave the contract without an owner. It will not be possible to call the functions with the `onlyOwner` modifier anymore."
      }
    }
  }
}