{
  "contractName": "TicketFactory",
  "abi": [
    {
      "inputs": [
        {
          "internalType": "string",
          "name": "name",
          "type": "string"
        },
        {
          "internalType": "string",
          "name": "symbol",
          "type": "string"
        },
        {
          "internalType": "uint256",
          "name": "tokenId",
          "type": "uint256"
        },
        {
          "internalType": "string",
          "name": "tokenURI",
          "type": "string"
        }
      ],
      "payable": false,
      "stateMutability": "nonpayable",
      "type": "constructor"
    },
    {
      "anonymous": false,
      "inputs": [
        {
          "indexed": true,
          "internalType": "address",
          "name": "owner",
          "type": "address"
        },
        {
          "indexed": true,
          "internalType": "address",
          "name": "approved",
          "type": "address"
        },
        {
          "indexed": true,
          "internalType": "uint256",
          "name": "tokenId",
          "type": "uint256"
        }
      ],
      "name": "Approval",
      "type": "event"
    },
    {
      "anonymous": false,
      "inputs": [
        {
          "indexed": true,
          "internalType": "address",
          "name": "owner",
          "type": "address"
        },
        {
          "indexed": true,
          "internalType": "address",
          "name": "operator",
          "type": "address"
        },
        {
          "indexed": false,
          "internalType": "bool",
          "name": "approved",
          "type": "bool"
        }
      ],
      "name": "ApprovalForAll",
      "type": "event"
    },
    {
      "anonymous": false,
      "inputs": [
        {
          "indexed": true,
          "internalType": "address",
          "name": "previousOwner",
          "type": "address"
        },
        {
          "indexed": true,
          "internalType": "address",
          "name": "newOwner",
          "type": "address"
        }
      ],
      "name": "OwnershipTransferred",
      "type": "event"
    },
    {
      "anonymous": false,
      "inputs": [
        {
          "indexed": true,
          "internalType": "address",
          "name": "from",
          "type": "address"
        },
        {
          "indexed": true,
          "internalType": "address",
          "name": "to",
          "type": "address"
        },
        {
          "indexed": true,
          "internalType": "uint256",
          "name": "tokenId",
          "type": "uint256"
        }
      ],
      "name": "Transfer",
      "type": "event"
    },
    {
      "constant": false,
      "inputs": [
        {
          "internalType": "address",
          "name": "to",
          "type": "address"
        },
        {
          "internalType": "uint256",
          "name": "tokenId",
          "type": "uint256"
        }
      ],
      "name": "approve",
      "outputs": [],
      "payable": false,
      "stateMutability": "nonpayable",
      "type": "function"
    },
    {
      "constant": true,
      "inputs": [
        {
          "internalType": "address",
          "name": "owner",
          "type": "address"
        }
      ],
      "name": "balanceOf",
      "outputs": [
        {
          "internalType": "uint256",
          "name": "",
          "type": "uint256"
        }
      ],
      "payable": false,
      "stateMutability": "view",
      "type": "function"
    },
    {
      "constant": true,
      "inputs": [
        {
          "internalType": "uint256",
          "name": "tokenId",
          "type": "uint256"
        }
      ],
      "name": "getApproved",
      "outputs": [
        {
          "internalType": "address",
          "name": "",
          "type": "address"
        }
      ],
      "payable": false,
      "stateMutability": "view",
      "type": "function"
    },
    {
      "constant": true,
      "inputs": [
        {
          "internalType": "address",
          "name": "owner",
          "type": "address"
        },
        {
          "internalType": "address",
          "name": "operator",
          "type": "address"
        }
      ],
      "name": "isApprovedForAll",
      "outputs": [
        {
          "internalType": "bool",
          "name": "",
          "type": "bool"
        }
      ],
      "payable": false,
      "stateMutability": "view",
      "type": "function"
    },
    {
      "constant": true,
      "inputs": [],
      "name": "isOwner",
      "outputs": [
        {
          "internalType": "bool",
          "name": "",
          "type": "bool"
        }
      ],
      "payable": false,
      "stateMutability": "view",
      "type": "function"
    },
    {
      "constant": true,
      "inputs": [],
      "name": "name",
      "outputs": [
        {
          "internalType": "string",
          "name": "",
          "type": "string"
        }
      ],
      "payable": false,
      "stateMutability": "view",
      "type": "function"
    },
    {
      "constant": true,
      "inputs": [],
      "name": "owner",
      "outputs": [
        {
          "internalType": "address",
          "name": "",
          "type": "address"
        }
      ],
      "payable": false,
      "stateMutability": "view",
      "type": "function"
    },
    {
      "constant": true,
      "inputs": [
        {
          "internalType": "uint256",
          "name": "tokenId",
          "type": "uint256"
        }
      ],
      "name": "ownerOf",
      "outputs": [
        {
          "internalType": "address",
          "name": "",
          "type": "address"
        }
      ],
      "payable": false,
      "stateMutability": "view",
      "type": "function"
    },
    {
      "constant": false,
      "inputs": [],
      "name": "renounceOwnership",
      "outputs": [],
      "payable": false,
      "stateMutability": "nonpayable",
      "type": "function"
    },
    {
      "constant": false,
      "inputs": [
        {
          "internalType": "address",
          "name": "from",
          "type": "address"
        },
        {
          "internalType": "address",
          "name": "to",
          "type": "address"
        },
        {
          "internalType": "uint256",
          "name": "tokenId",
          "type": "uint256"
        }
      ],
      "name": "safeTransferFrom",
      "outputs": [],
      "payable": false,
      "stateMutability": "nonpayable",
      "type": "function"
    },
    {
      "constant": false,
      "inputs": [
        {
          "internalType": "address",
          "name": "from",
          "type": "address"
        },
        {
          "internalType": "address",
          "name": "to",
          "type": "address"
        },
        {
          "internalType": "uint256",
          "name": "tokenId",
          "type": "uint256"
        },
        {
          "internalType": "bytes",
          "name": "_data",
          "type": "bytes"
        }
      ],
      "name": "safeTransferFrom",
      "outputs": [],
      "payable": false,
      "stateMutability": "nonpayable",
      "type": "function"
    },
    {
      "constant": false,
      "inputs": [
        {
          "internalType": "address",
          "name": "to",
          "type": "address"
        },
        {
          "internalType": "bool",
          "name": "approved",
          "type": "bool"
        }
      ],
      "name": "setApprovalForAll",
      "outputs": [],
      "payable": false,
      "stateMutability": "nonpayable",
      "type": "function"
    },
    {
      "constant": true,
      "inputs": [
        {
          "internalType": "bytes4",
          "name": "interfaceId",
          "type": "bytes4"
        }
      ],
      "name": "supportsInterface",
      "outputs": [
        {
          "internalType": "bool",
          "name": "",
          "type": "bool"
        }
      ],
      "payable": false,
      "stateMutability": "view",
      "type": "function"
    },
    {
      "constant": true,
      "inputs": [],
      "name": "symbol",
      "outputs": [
        {
          "internalType": "string",
          "name": "",
          "type": "string"
        }
      ],
      "payable": false,
      "stateMutability": "view",
      "type": "function"
    },
    {
      "constant": true,
      "inputs": [
        {
          "internalType": "uint256",
          "name": "index",
          "type": "uint256"
        }
      ],
      "name": "tokenByIndex",
      "outputs": [
        {
          "internalType": "uint256",
          "name": "",
          "type": "uint256"
        }
      ],
      "payable": false,
      "stateMutability": "view",
      "type": "function"
    },
    {
      "constant": true,
      "inputs": [
        {
          "internalType": "address",
          "name": "owner",
          "type": "address"
        },
        {
          "internalType": "uint256",
          "name": "index",
          "type": "uint256"
        }
      ],
      "name": "tokenOfOwnerByIndex",
      "outputs": [
        {
          "internalType": "uint256",
          "name": "",
          "type": "uint256"
        }
      ],
      "payable": false,
      "stateMutability": "view",
      "type": "function"
    },
    {
      "constant": true,
      "inputs": [
        {
          "internalType": "uint256",
          "name": "tokenId",
          "type": "uint256"
        }
      ],
      "name": "tokenURI",
      "outputs": [
        {
          "internalType": "string",
          "name": "",
          "type": "string"
        }
      ],
      "payable": false,
      "stateMutability": "view",
      "type": "function"
    },
    {
      "constant": true,
      "inputs": [],
      "name": "totalSupply",
      "outputs": [
        {
          "internalType": "uint256",
          "name": "",
          "type": "uint256"
        }
      ],
      "payable": false,
      "stateMutability": "view",
      "type": "function"
    },
    {
      "constant": false,
      "inputs": [
        {
          "internalType": "address",
          "name": "from",
          "type": "address"
        },
        {
          "internalType": "address",
          "name": "to",
          "type": "address"
        },
        {
          "internalType": "uint256",
          "name": "tokenId",
          "type": "uint256"
        }
      ],
      "name": "transferFrom",
      "outputs": [],
      "payable": false,
      "stateMutability": "nonpayable",
      "type": "function"
    },
    {
      "constant": false,
      "inputs": [
        {
          "internalType": "address",
          "name": "newOwner",
          "type": "address"
        }
      ],
      "name": "transferOwnership",
      "outputs": [],
      "payable": false,
      "stateMutability": "nonpayable",
      "type": "function"
    },
    {
      "constant": false,
      "inputs": [],
      "name": "testFunc",
      "outputs": [
        {
          "internalType": "bool",
          "name": "",
          "type": "bool"
        }
      ],
      "payable": false,
      "stateMutability": "nonpayable",
      "type": "function"
    },
    {
      "constant": true,
      "inputs": [],
      "name": "_totalSupply",
      "outputs": [
        {
          "internalType": "uint256",
          "name": "",
          "type": "uint256"
        }
      ],
      "payable": false,
      "stateMutability": "view",
      "type": "function"
    },
    {
      "constant": false,
      "inputs": [
        {
          "internalType": "uint256",
          "name": "_ticketId",
          "type": "uint256"
        }
      ],
      "name": "_ownerOf",
      "outputs": [
        {
          "internalType": "address",
          "name": "",
          "type": "address"
        }
      ],
      "payable": false,
      "stateMutability": "nonpayable",
      "type": "function"
    },
    {
      "constant": false,
      "inputs": [],
      "name": "mint",
      "outputs": [
        {
          "internalType": "bool",
          "name": "",
          "type": "bool"
        }
      ],
      "payable": false,
      "stateMutability": "nonpayable",
      "type": "function"
    },
    {
      "constant": false,
      "inputs": [
        {
          "internalType": "address",
          "name": "_callAddress",
          "type": "address"
        }
      ],
      "name": "mintOnExternalContract",
      "outputs": [
        {
          "internalType": "bool",
          "name": "",
          "type": "bool"
        }
      ],
      "payable": false,
      "stateMutability": "nonpayable",
      "type": "function"
    },
    {
      "constant": false,
      "inputs": [
        {
          "internalType": "address",
          "name": "_from",
          "type": "address"
        },
        {
          "internalType": "address",
          "name": "_to",
          "type": "address"
        },
        {
          "internalType": "uint256",
          "name": "_ticketId",
          "type": "uint256"
        }
      ],
      "name": "_transferTicketFrom",
      "outputs": [
        {
          "internalType": "bool",
          "name": "",
          "type": "bool"
        }
      ],
      "payable": false,
      "stateMutability": "nonpayable",
      "type": "function"
    }
  ],
  "bytecode": "0x60806040526064600d553480156200001657600080fd5b5060405162001a8838038062001a88833981016040819052620000399162000547565b83838181620000717f01ffc9a7000000000000000000000000000000000000000000000000000000006001600160e01b03620001bd16565b620000a57f80ac58cd000000000000000000000000000000000000000000000000000000006001600160e01b03620001bd16565b620000d97f780e9d63000000000000000000000000000000000000000000000000000000006001600160e01b03620001bd16565b8151620000ee90600990602085019062000439565b5080516200010490600a90602084019062000439565b50620001397f5b5e139f000000000000000000000000000000000000000000000000000000006001600160e01b03620001bd16565b5050600c80546001600160a01b0319163317908190556040516001600160a01b03919091169250600091507f8be0079c531659141344cd1fd0a4f28419497f9722a3daafe3b4186f6b6457e0908290a36200019e33836001600160e01b036200022a16565b620001b382826001600160e01b036200026e16565b5050505062000694565b7fffffffff000000000000000000000000000000000000000000000000000000008082161415620001ed57600080fd5b7fffffffff00000000000000000000000000000000000000000000000000000000166000908152602081905260409020805460ff19166001179055565b620002418282620002b260201b62000b401760201c565b6200025682826001600160e01b036200037e16565b6200026a816001600160e01b03620003bc16565b5050565b62000282826001600160e01b036200040016565b6200028c57600080fd5b6000828152600b602090815260409091208251620002ad9284019062000439565b505050565b6001600160a01b038216620002c657600080fd5b620002da816001600160e01b036200040016565b15620002e557600080fd5b600081815260016020818152604080842080546001600160a01b0319166001600160a01b0388169081179091558452600382529092205462000333929091906200041d811b62000e7c17901c565b6001600160a01b0383166000818152600360205260408082209390935591518392907fddf252ad1be2c89b69c2b068fc378daa952ba7f163c4a11628f55a4df523b3ef908290a45050565b6001600160a01b0390911660009081526005602081815260408084208054868652600684529185208290559282526001810183559183529091200155565b600780546000838152600860205260408120829055600182018355919091527fa66cc928b5edb82af9bd49922954155ab7b0942694bea4ce44661d9a8736c6880155565b6000908152600160205260409020546001600160a01b0316151590565b6000828201838110156200043057600080fd5b90505b92915050565b828054600181600116156101000203166002900490600052602060002090601f016020900481019282601f106200047c57805160ff1916838001178555620004ac565b82800160010185558215620004ac579182015b82811115620004ac5782518255916020019190600101906200048f565b50620004ba929150620004be565b5090565b620004db91905b80821115620004ba5760008155600101620004c5565b90565b600082601f830112620004f057600080fd5b81516200050762000501826200061f565b620005f8565b915080825260208301602083018583830111156200052457600080fd5b6200053183828462000647565b50505092915050565b805162000433816200067a565b600080600080608085870312156200055e57600080fd5b84516001600160401b038111156200057557600080fd5b6200058387828801620004de565b94505060208501516001600160401b03811115620005a057600080fd5b620005ae87828801620004de565b9350506040620005c1878288016200053a565b92505060608501516001600160401b03811115620005de57600080fd5b620005ec87828801620004de565b91505092959194509250565b6040518181016001600160401b03811182821017156200061757600080fd5b604052919050565b60006001600160401b038211156200063657600080fd5b506020601f91909101601f19160190565b60005b83811015620006645781810151838201526020016200064a565b8381111562000674576000848401525b50505050565b6200068581620004db565b81146200069157600080fd5b50565b6113e480620006a46000396000f3fe608060405234801561001057600080fd5b506004361061018e5760003560e01c80634f6ccce7116100de5780638f32d59b11610097578063b88d4fde11610071578063b88d4fde14610311578063c87b56dd14610324578063e985e9c514610337578063f2fde38b1461034a5761018e565b80638f32d59b146102ee57806395d89b41146102f6578063a22cb465146102fe5761018e565b80634f6ccce7146102925780636352211e146102a5578063693993b2146102b857806370a08231146102cb578063715018a6146102de5780638da5cb5b146102e65761018e565b806318160ddd1161014b57806335e6a4091161012557806335e6a4091461025157806338350541146102645780633eaaf86b1461027757806342842e0e1461027f5761018e565b806318160ddd1461021657806323b872dd1461022b5780632f745c591461023e5761018e565b806301ffc9a714610193578063037a417c146101bc57806306fdde03146101c4578063081812fc146101d9578063095ea7b3146101f95780631249c58b1461020e575b600080fd5b6101a66101a1366004611120565b61035d565b6040516101b3919061125d565b60405180910390f35b6101a661037c565b6101cc610382565b6040516101b3919061126b565b6101ec6101e736600461115c565b610418565b6040516101b3919061120b565b61020c6102073660046110f0565b610448565b005b6101a66104f5565b61021e610540565b6040516101b3919061128c565b61020c610239366004610ffa565b610546565b61021e61024c3660046110f0565b610569565b6101a661025f366004610fa2565b6105b7565b6101ec61027236600461115c565b6105fb565b61021e610606565b61020c61028d366004610ffa565b610615565b61021e6102a036600461115c565b610630565b6101ec6102b336600461115c565b610664565b6101a66102c6366004610ffa565b610686565b61021e6102d9366004610fa2565b61069a565b61020c6106cb565b6101ec610726565b6101a6610735565b6101cc610746565b61020c61030c3660046110c0565b6107a7565b61020c61031f366004611047565b61082c565b6101cc61033236600461115c565b610852565b6101a6610345366004610fc0565b610905565b61020c610358366004610fa2565b610933565b6001600160e01b03191660009081526020819052604090205460ff1690565b60015b90565b60098054604080516020601f600260001961010060018816150201909516949094049384018190048102820181019092528281526060939092909183018282801561040e5780601f106103e35761010080835404028352916020019161040e565b820191906000526020600020905b8154815290600101906020018083116103f157829003601f168201915b5050505050905090565b600061042382610950565b61042c57600080fd5b506000908152600260205260409020546001600160a01b031690565b600061045382610664565b9050806001600160a01b0316836001600160a01b0316141561047457600080fd5b336001600160a01b038216148061049057506104908133610905565b61049957600080fd5b60008281526002602052604080822080546001600160a01b0319166001600160a01b0387811691821790925591518593918516917f8c5be1e5ebec7d5bd14f71427d1e84f3dd0314c0f7b2291e5b200ac8c7c3b92591a4505050565b60006064600d5411156105235760405162461bcd60e51b815260040161051a9061127c565b60405180910390fd5b600061052d610606565b600101905061053c338261096d565b5090565b60075490565b610550338261098e565b61055957600080fd5b6105648383836109ed565b505050565b60006105748361069a565b821061057f57600080fd5b6001600160a01b03831660009081526005602052604090208054839081106105a357fe5b906000526020600020015490505b92915050565b60006064600d5411156105dc5760405162461bcd60e51b815260040161051a9061127c565b60006105e6610606565b60010190506105f5838261096d565b50919050565b60006105b182610664565b6000610610610540565b905090565b6105648383836040518060200160405280600081525061082c565b600061063a610540565b821061064557600080fd5b6007828154811061065257fe5b90600052602060002001549050919050565b6000818152600160205260408120546001600160a01b0316806105b157600080fd5b6000610693848484610546565b9392505050565b60006001600160a01b0382166106af57600080fd5b506001600160a01b031660009081526003602052604090205490565b6106d3610735565b6106dc57600080fd5b600c546040516000916001600160a01b0316907f8be0079c531659141344cd1fd0a4f28419497f9722a3daafe3b4186f6b6457e0908390a3600c80546001600160a01b0319169055565b600c546001600160a01b031690565b600c546001600160a01b0316331490565b600a8054604080516020601f600260001961010060018816150201909516949094049384018190048102820181019092528281526060939092909183018282801561040e5780601f106103e35761010080835404028352916020019161040e565b6001600160a01b0382163314156107bd57600080fd5b3360008181526004602090815260408083206001600160a01b038716808552925291829020805460ff191685151517905590519091907f17307eab39ab6107e8899845ad3d59bd9653f200f220920489ca2b5937696c319061082090859061125d565b60405180910390a35050565b610837848484610546565b61084384848484610a0c565b61084c57600080fd5b50505050565b606061085d82610950565b61086657600080fd5b6000828152600b602090815260409182902080548351601f6002600019610100600186161502019093169290920491820184900484028101840190945280845290918301828280156108f95780601f106108ce576101008083540402835291602001916108f9565b820191906000526020600020905b8154815290600101906020018083116108dc57829003601f168201915b50505050509050919050565b6001600160a01b03918216600090815260046020908152604080832093909416825291909152205460ff1690565b61093b610735565b61094457600080fd5b61094d81610ad1565b50565b6000908152600160205260409020546001600160a01b0316151590565b6109778282610b40565b6109818282610bf2565b61098a81610c30565b5050565b60008061099a83610664565b9050806001600160a01b0316846001600160a01b031614806109d55750836001600160a01b03166109ca84610418565b6001600160a01b0316145b806109e557506109e58185610905565b949350505050565b6109f8838383610c74565b610a028382610d81565b6105648282610bf2565b6000610a20846001600160a01b0316610e76565b610a2c575060016109e5565b604051630a85bd0160e11b81526000906001600160a01b0386169063150b7a0290610a619033908a9089908990600401611219565b602060405180830381600087803b158015610a7b57600080fd5b505af1158015610a8f573d6000803e3d6000fd5b505050506040513d601f19601f82011682018060405250610ab3919081019061113e565b6001600160e01b031916630a85bd0160e11b14915050949350505050565b6001600160a01b038116610ae457600080fd5b600c546040516001600160a01b038084169216907f8be0079c531659141344cd1fd0a4f28419497f9722a3daafe3b4186f6b6457e090600090a3600c80546001600160a01b0319166001600160a01b0392909216919091179055565b6001600160a01b038216610b5357600080fd5b610b5c81610950565b15610b6657600080fd5b600081815260016020818152604080842080546001600160a01b0319166001600160a01b0388169081179091558452600390915290912054610ba791610e7c565b6001600160a01b0383166000818152600360205260408082209390935591518392907fddf252ad1be2c89b69c2b068fc378daa952ba7f163c4a11628f55a4df523b3ef908290a45050565b6001600160a01b0390911660009081526005602081815260408084208054868652600684529185208290559282526001810183559183529091200155565b600780546000838152600860205260408120829055600182018355919091527fa66cc928b5edb82af9bd49922954155ab7b0942694bea4ce44661d9a8736c6880155565b826001600160a01b0316610c8782610664565b6001600160a01b031614610c9a57600080fd5b6001600160a01b038216610cad57600080fd5b610cb681610e8e565b6001600160a01b038316600090815260036020526040902054610ce090600163ffffffff610ec916565b6001600160a01b038085166000908152600360205260408082209390935590841681522054610d1690600163ffffffff610e7c16565b6001600160a01b038084166000818152600360209081526040808320959095558582526001905283812080546001600160a01b031916831790559251849391928716917fddf252ad1be2c89b69c2b068fc378daa952ba7f163c4a11628f55a4df523b3ef91a4505050565b6001600160a01b038216600090815260056020526040812054610dab90600163ffffffff610ec916565b600083815260066020526040902054909150808214610e46576001600160a01b0384166000908152600560205260408120805484908110610de857fe5b906000526020600020015490508060056000876001600160a01b03166001600160a01b031681526020019081526020016000208381548110610e2657fe5b600091825260208083209091019290925591825260069052604090208190555b6001600160a01b0384166000908152600560205260409020805490610e6f906000198301610ede565b5050505050565b3b151590565b60008282018381101561069357600080fd5b6000818152600260205260409020546001600160a01b03161561094d57600090815260026020526040902080546001600160a01b0319169055565b600082821115610ed857600080fd5b50900390565b8154818355818111156105645760008381526020902061056491810190830161037f91905b8082111561053c5760008155600101610f03565b80356105b181611372565b80356105b181611386565b80356105b18161138f565b80516105b18161138f565b600082601f830112610f5457600080fd5b8135610f67610f62826112c1565b61129a565b91508082526020830160208301858383011115610f8357600080fd5b610f8e838284611330565b50505092915050565b80356105b181611398565b600060208284031215610fb457600080fd5b60006109e58484610f17565b60008060408385031215610fd357600080fd5b6000610fdf8585610f17565b9250506020610ff085828601610f17565b9150509250929050565b60008060006060848603121561100f57600080fd5b600061101b8686610f17565b935050602061102c86828701610f17565b925050604061103d86828701610f97565b9150509250925092565b6000806000806080858703121561105d57600080fd5b60006110698787610f17565b945050602061107a87828801610f17565b935050604061108b87828801610f97565b925050606085013567ffffffffffffffff8111156110a857600080fd5b6110b487828801610f43565b91505092959194509250565b600080604083850312156110d357600080fd5b60006110df8585610f17565b9250506020610ff085828601610f22565b6000806040838503121561110357600080fd5b600061110f8585610f17565b9250506020610ff085828601610f97565b60006020828403121561113257600080fd5b60006109e58484610f2d565b60006020828403121561115057600080fd5b60006109e58484610f38565b60006020828403121561116e57600080fd5b60006109e58484610f97565b6111838161131f565b82525050565b611183816112f6565b61118381611301565b60006111a6826112e9565b6111b081856112ed565b93506111c081856020860161133c565b6111c981611368565b9093019392505050565b60006111e06013836112ed565b725469636b657420697320736f6c64206f75742160681b815260200192915050565b6111838161037f565b602081016105b18284611189565b60808101611227828761117a565b6112346020830186611189565b6112416040830185611202565b8181036060830152611253818461119b565b9695505050505050565b602081016105b18284611192565b60208082528101610693818461119b565b602080825281016105b1816111d3565b602081016105b18284611202565b60405181810167ffffffffffffffff811182821017156112b957600080fd5b604052919050565b600067ffffffffffffffff8211156112d857600080fd5b506020601f91909101601f19160190565b5190565b90815260200190565b60006105b182611313565b151590565b6001600160e01b03191690565b6001600160a01b031690565b60006105b18260006105b1826112f6565b82818337506000910152565b60005b8381101561135757818101518382015260200161133f565b8381111561084c5750506000910152565b601f01601f191690565b61137b816112f6565b811461094d57600080fd5b61137b81611301565b61137b81611306565b61137b8161037f56fea365627a7a72315820ca79d91316ccf9dc8750ec37ba2cb43b4e3233e68d0ecc37f0b46563bd67d80a6c6578706572696d656e74616cf564736f6c634300050c0040",
  "source": "pragma solidity ^0.5.2;\npragma experimental ABIEncoderV2;\n\n// Storage\nimport \"./storage/WtConstants.sol\";\n\nimport \"openzeppelin-solidity/contracts/token/ERC721/ERC721Full.sol\";\nimport \"openzeppelin-solidity/contracts/ownership/Ownable.sol\";\n\n\ncontract TicketFactory is ERC721Full, WtConstants, Ownable {\n\n    uint256 ticketCap = 100;\n\n    constructor(\n        string memory name, \n        string memory symbol,\n        uint tokenId,\n        string memory tokenURI\n    ) \n        ERC721Full(name, symbol)\n        public \n    {\n        _mint(msg.sender, tokenId);\n        _setTokenURI(tokenId, tokenURI);\n    }\n\n\n    function testFunc() public returns (bool) {\n        return WtConstants.CONFIRMED;\n    }\n\n    function _totalSupply() public view returns (uint256) {\n        return totalSupply();\n    }\n\n\n    // @notice owner address of ERC721 token which is specified\n    // @param _ticketId is tokenId\n    function _ownerOf(uint _ticketId) public returns (address) {\n        return ownerOf(_ticketId);\n    }\n\n\n    function mint() public returns (bool)  {\n        require (ticketCap <= 100, \"Ticket is sold out!\");\n        \n        uint256 _tokenId = _totalSupply() + 1;\n        _mint(msg.sender, _tokenId);\n    }\n\n    // @dev This function is used in case of calling mint() function on external contract.\n    function mintOnExternalContract(address _callAddress) public returns (bool)  {\n        require (ticketCap <= 100, \"Ticket is sold out!\");\n        \n        uint256 _tokenId = _totalSupply() + 1;\n        _mint(_callAddress, _tokenId);\n    }\n\n\n    function _transferTicketFrom(address _from, address _to, uint256 _ticketId) public returns (bool) {\n        transferFrom(_from , _to, _ticketId);\n    }\n\n\n}\n",
  "sourcePath": "/Users/unomasanori/projects/DEMO_MVP/Gitcoin-Global-Communities-Hackcathon/walletConnect-ticketing-dapp/contracts/TicketFactory.sol",
  "compiler": {
    "name": "solc",
    "version": "0.5.12+commit.7709ece9.Emscripten.clang"
  },
  "schemaVersion": "3.0.19",
  "updatedAt": "2019-12-12T11:03:46.302Z",
  "networkType": "ethereum",
  "devdoc": {
    "methods": {
      "approve(address,uint256)": {
        "details": "Approves another address to transfer the given token ID The zero address indicates there is no approved address. There can only be one approved address per token at a given time. Can only be called by the token owner or an approved operator.",
        "params": {
          "to": "address to be approved for the given token ID",
          "tokenId": "uint256 ID of the token to be approved"
        }
      },
      "balanceOf(address)": {
        "details": "Gets the balance of the specified address",
        "params": {
          "owner": "address to query the balance of"
        },
        "return": "uint256 representing the amount owned by the passed address"
      },
      "getApproved(uint256)": {
        "details": "Gets the approved address for a token ID, or zero if no address set Reverts if the token ID does not exist.",
        "params": {
          "tokenId": "uint256 ID of the token to query the approval of"
        },
        "return": "address currently approved for the given token ID"
      },
      "isApprovedForAll(address,address)": {
        "details": "Tells whether an operator is approved by a given owner",
        "params": {
          "operator": "operator address which you want to query the approval of",
          "owner": "owner address which you want to query the approval of"
        },
        "return": "bool whether the given operator is approved by the given owner"
      },
      "isOwner()": {
        "return": "true if `msg.sender` is the owner of the contract."
      },
      "name()": {
        "details": "Gets the token name",
        "return": "string representing the token name"
      },
      "owner()": {
        "return": "the address of the owner."
      },
      "ownerOf(uint256)": {
        "details": "Gets the owner of the specified token ID",
        "params": {
          "tokenId": "uint256 ID of the token to query the owner of"
        },
        "return": "owner address currently marked as the owner of the given token ID"
      },
      "renounceOwnership()": {
        "details": "Allows the current owner to relinquish control of the contract."
      },
      "safeTransferFrom(address,address,uint256)": {
        "details": "Safely transfers the ownership of a given token ID to another address If the target address is a contract, it must implement `onERC721Received`, which is called upon a safe transfer, and return the magic value `bytes4(keccak256(\"onERC721Received(address,address,uint256,bytes)\"))`; otherwise, the transfer is reverted.     * Requires the msg sender to be the owner, approved, or operator",
        "params": {
          "from": "current owner of the token",
          "to": "address to receive the ownership of the given token ID",
          "tokenId": "uint256 ID of the token to be transferred"
        }
      },
      "safeTransferFrom(address,address,uint256,bytes)": {
        "details": "Safely transfers the ownership of a given token ID to another address If the target address is a contract, it must implement `onERC721Received`, which is called upon a safe transfer, and return the magic value `bytes4(keccak256(\"onERC721Received(address,address,uint256,bytes)\"))`; otherwise, the transfer is reverted. Requires the msg sender to be the owner, approved, or operator",
        "params": {
          "_data": "bytes data to send along with a safe transfer check",
          "from": "current owner of the token",
          "to": "address to receive the ownership of the given token ID",
          "tokenId": "uint256 ID of the token to be transferred"
        }
      },
      "setApprovalForAll(address,bool)": {
        "details": "Sets or unsets the approval of a given operator An operator is allowed to transfer all tokens of the sender on their behalf",
        "params": {
          "approved": "representing the status of the approval to be set",
          "to": "operator address to set the approval"
        }
      },
      "supportsInterface(bytes4)": {
        "details": "implement supportsInterface(bytes4) using a lookup table"
      },
      "symbol()": {
        "details": "Gets the token symbol",
        "return": "string representing the token symbol"
      },
      "tokenByIndex(uint256)": {
        "details": "Gets the token ID at a given index of all the tokens in this contract Reverts if the index is greater or equal to the total number of tokens",
        "params": {
          "index": "uint256 representing the index to be accessed of the tokens list"
        },
        "return": "uint256 token ID at the given index of the tokens list"
      },
      "tokenOfOwnerByIndex(address,uint256)": {
        "details": "Gets the token ID at a given index of the tokens list of the requested owner",
        "params": {
          "index": "uint256 representing the index to be accessed of the requested tokens list",
          "owner": "address owning the tokens list to be accessed"
        },
        "return": "uint256 token ID at the given index of the tokens list owned by the requested address"
      },
      "tokenURI(uint256)": {
        "details": "Returns an URI for a given token ID Throws if the token ID does not exist. May return an empty string.",
        "params": {
          "tokenId": "uint256 ID of the token to query"
        }
      },
      "totalSupply()": {
        "details": "Gets the total amount of tokens stored by the contract",
        "return": "uint256 representing the total amount of tokens"
      },
      "transferFrom(address,address,uint256)": {
        "details": "Transfers the ownership of a given token ID to another address Usage of this method is discouraged, use `safeTransferFrom` whenever possible Requires the msg sender to be the owner, approved, or operator",
        "params": {
          "from": "current owner of the token",
          "to": "address to receive the ownership of the given token ID",
          "tokenId": "uint256 ID of the token to be transferred"
        }
      },
      "transferOwnership(address)": {
        "details": "Allows the current owner to transfer control of the contract to a newOwner.",
        "params": {
          "newOwner": "The address to transfer ownership to."
        }
      }
    }
  },
  "userdoc": {
    "methods": {
      "renounceOwnership()": {
        "notice": "Renouncing to ownership will leave the contract without an owner. It will not be possible to call the functions with the `onlyOwner` modifier anymore."
      }
    }
  }
}