{
  "contractName": "TicketMarket",
  "abi": [
    {
      "inputs": [
        {
          "internalType": "address",
          "name": "_ticketFactoryContract",
          "type": "address"
        },
        {
          "internalType": "address",
          "name": "_erc20TestTokenContract",
          "type": "address"
        },
        {
          "internalType": "address",
          "name": "_oceanTokenContract",
          "type": "address"
        }
      ],
      "payable": false,
      "stateMutability": "nonpayable",
      "type": "constructor"
    },
    {
      "anonymous": false,
      "inputs": [
        {
          "indexed": false,
          "internalType": "uint256",
          "name": "exampleId",
          "type": "uint256"
        },
        {
          "indexed": false,
          "internalType": "string",
          "name": "exampleName",
          "type": "string"
        },
        {
          "indexed": false,
          "internalType": "address",
          "name": "exampleAddr",
          "type": "address"
        }
      ],
      "name": "ExampleEvent",
      "type": "event"
    },
    {
      "anonymous": false,
      "inputs": [
        {
          "indexed": true,
          "internalType": "uint256",
          "name": "_ticketId",
          "type": "uint256"
        },
        {
          "indexed": false,
          "internalType": "uint256",
          "name": "_price",
          "type": "uint256"
        },
        {
          "indexed": false,
          "internalType": "address",
          "name": "_token",
          "type": "address"
        }
      ],
      "name": "LogPublishForSale",
      "type": "event"
    },
    {
      "anonymous": false,
      "inputs": [
        {
          "indexed": true,
          "internalType": "address",
          "name": "previousOwner",
          "type": "address"
        },
        {
          "indexed": true,
          "internalType": "address",
          "name": "newOwner",
          "type": "address"
        }
      ],
      "name": "OwnershipTransferred",
      "type": "event"
    },
    {
      "constant": true,
      "inputs": [],
      "name": "erc20Token",
      "outputs": [
        {
          "internalType": "contract Erc20TestToken",
          "name": "",
          "type": "address"
        }
      ],
      "payable": false,
      "stateMutability": "view",
      "type": "function"
    },
    {
      "constant": true,
      "inputs": [],
      "name": "factory",
      "outputs": [
        {
          "internalType": "contract TicketFactory",
          "name": "",
          "type": "address"
        }
      ],
      "payable": false,
      "stateMutability": "view",
      "type": "function"
    },
    {
      "constant": true,
      "inputs": [],
      "name": "isOwner",
      "outputs": [
        {
          "internalType": "bool",
          "name": "",
          "type": "bool"
        }
      ],
      "payable": false,
      "stateMutability": "view",
      "type": "function"
    },
    {
      "constant": true,
      "inputs": [],
      "name": "oceanToken",
      "outputs": [
        {
          "internalType": "contract OceanToken",
          "name": "",
          "type": "address"
        }
      ],
      "payable": false,
      "stateMutability": "view",
      "type": "function"
    },
    {
      "constant": true,
      "inputs": [],
      "name": "owner",
      "outputs": [
        {
          "internalType": "address",
          "name": "",
          "type": "address"
        }
      ],
      "payable": false,
      "stateMutability": "view",
      "type": "function"
    },
    {
      "constant": true,
      "inputs": [
        {
          "internalType": "uint256",
          "name": "",
          "type": "uint256"
        }
      ],
      "name": "purchasableTickets",
      "outputs": [
        {
          "internalType": "bool",
          "name": "forSale",
          "type": "bool"
        },
        {
          "internalType": "address",
          "name": "acceptedToken",
          "type": "address"
        },
        {
          "internalType": "uint256",
          "name": "PurchasePrice",
          "type": "uint256"
        }
      ],
      "payable": false,
      "stateMutability": "view",
      "type": "function"
    },
    {
      "constant": false,
      "inputs": [],
      "name": "renounceOwnership",
      "outputs": [],
      "payable": false,
      "stateMutability": "nonpayable",
      "type": "function"
    },
    {
      "constant": false,
      "inputs": [
        {
          "internalType": "address",
          "name": "newOwner",
          "type": "address"
        }
      ],
      "name": "transferOwnership",
      "outputs": [],
      "payable": false,
      "stateMutability": "nonpayable",
      "type": "function"
    },
    {
      "constant": false,
      "inputs": [],
      "name": "testFunc",
      "outputs": [
        {
          "internalType": "bool",
          "name": "",
          "type": "bool"
        }
      ],
      "payable": false,
      "stateMutability": "nonpayable",
      "type": "function"
    },
    {
      "constant": false,
      "inputs": [
        {
          "internalType": "uint256",
          "name": "_ticketId",
          "type": "uint256"
        }
      ],
      "name": "ownerOfTicket",
      "outputs": [
        {
          "internalType": "address",
          "name": "",
          "type": "address"
        }
      ],
      "payable": false,
      "stateMutability": "nonpayable",
      "type": "function"
    },
    {
      "constant": false,
      "inputs": [],
      "name": "factoryMint",
      "outputs": [],
      "payable": false,
      "stateMutability": "nonpayable",
      "type": "function"
    },
    {
      "constant": false,
      "inputs": [
        {
          "internalType": "uint256",
          "name": "_ticketId",
          "type": "uint256"
        }
      ],
      "name": "buyTicket",
      "outputs": [],
      "payable": false,
      "stateMutability": "nonpayable",
      "type": "function"
    },
    {
      "constant": true,
      "inputs": [],
      "name": "totalSupplyERC20",
      "outputs": [
        {
          "internalType": "uint256",
          "name": "",
          "type": "uint256"
        }
      ],
      "payable": false,
      "stateMutability": "view",
      "type": "function"
    },
    {
      "constant": false,
      "inputs": [
        {
          "internalType": "address",
          "name": "from",
          "type": "address"
        },
        {
          "internalType": "address",
          "name": "to",
          "type": "address"
        },
        {
          "internalType": "uint256",
          "name": "value",
          "type": "uint256"
        }
      ],
      "name": "testTransferFrom",
      "outputs": [
        {
          "internalType": "bool",
          "name": "",
          "type": "bool"
        }
      ],
      "payable": false,
      "stateMutability": "nonpayable",
      "type": "function"
    },
    {
      "constant": false,
      "inputs": [
        {
          "internalType": "address",
          "name": "to",
          "type": "address"
        },
        {
          "internalType": "uint256",
          "name": "value",
          "type": "uint256"
        }
      ],
      "name": "testTransfer",
      "outputs": [
        {
          "internalType": "bool",
          "name": "",
          "type": "bool"
        }
      ],
      "payable": false,
      "stateMutability": "nonpayable",
      "type": "function"
    },
    {
      "constant": true,
      "inputs": [
        {
          "internalType": "uint256",
          "name": "ticketId",
          "type": "uint256"
        }
      ],
      "name": "getPurchasableTicket",
      "outputs": [
        {
          "components": [
            {
              "internalType": "bool",
              "name": "forSale",
              "type": "bool"
            },
            {
              "internalType": "address",
              "name": "acceptedToken",
              "type": "address"
            },
            {
              "internalType": "uint256",
              "name": "PurchasePrice",
              "type": "uint256"
            }
          ],
          "internalType": "struct WtObjects.PurchasableTicket",
          "name": "",
          "type": "tuple"
        }
      ],
      "payable": false,
      "stateMutability": "view",
      "type": "function"
    },
    {
      "constant": false,
      "inputs": [
        {
          "internalType": "uint256",
          "name": "_ticketId",
          "type": "uint256"
        },
        {
          "internalType": "address",
          "name": "buyer",
          "type": "address"
        }
      ],
      "name": "_buyTicket",
      "outputs": [],
      "payable": false,
      "stateMutability": "nonpayable",
      "type": "function"
    }
  ],
  "bytecode": "0x608060405234801561001057600080fd5b50604051610c68380380610c6883398101604081905261002f916100cb565b600080546001600160a01b03191633178082556040516001600160a01b039190911691907f8be0079c531659141344cd1fd0a4f28419497f9722a3daafe3b4186f6b6457e0908290a3600380546001600160a01b039485166001600160a01b031991821617909155600480549385169382169390931790925560058054919093169116179055610140565b80516100c581610129565b92915050565b6000806000606084860312156100e057600080fd5b60006100ec86866100ba565b93505060206100fd868287016100ba565b925050604061010e868287016100ba565b9150509250925092565b60006001600160a01b0382166100c5565b61013281610118565b811461013d57600080fd5b50565b610b198061014f6000396000f3fe608060405234801561001057600080fd5b506004361061010b5760003560e01c80638a13eea7116100a2578063baabf9b911610071578063baabf9b9146101f3578063c0860c2c146101fb578063c45a01551461020e578063d544bce414610216578063f2fde38b146102385761010b565b80638a13eea7146101bb5780638da5cb5b146101c35780638f32d59b146101d8578063a0e70267146101e05761010b565b8063244bb7f0116100de578063244bb7f01461017657806367dd74ca1461018b578063715018a6146101a05780637b8d771e146101a85761010b565b8063037a417c1461011057806305a37e9a1461012e57806311d5c546146101415780631d32a07e14610161575b600080fd5b61011861024b565b6040516101259190610a40565b60405180910390f35b61011861013c366004610881565b610250565b61015461014f366004610926565b6102ed565b6040516101259190610a6a565b61016961033d565b6040516101259190610a78565b61017e6103c3565b6040516101259190610a5c565b61019e610199366004610926565b6103d2565b005b61019e6103df565b61019e6101b6366004610962565b61043a565b61017e610558565b6101cb610567565b60405161012591906109ef565b610118610576565b6101186101ee3660046108ce565b610587565b61019e61061c565b6101cb610209366004610926565b6106a4565b61017e610727565b610229610224366004610926565b610736565b60405161012593929190610a4e565b61019e61024636600461083d565b610763565b600190565b6005546040516323b872dd60e01b8152600091600a916001600160a01b039091169081906323b872dd9061028c908990899089906004016109fd565b602060405180830381600087803b1580156102a657600080fd5b505af11580156102ba573d6000803e3d6000fd5b505050506040513d601f19601f820116820180604052506102de9190810190610908565b506001925050505b9392505050565b6102f56107e6565b506000908152600160208181526040928390208351606081018552815460ff81161515825261010090046001600160a01b031692810192909252909101549181019190915290565b600554604080516318160ddd60e01b815290516000926001600160a01b03169182916318160ddd91600480820192602092909190829003018186803b15801561038557600080fd5b505afa158015610399573d6000803e3d6000fd5b505050506040513d601f19601f820116820180604052506103bd9190810190610944565b91505090565b6005546001600160a01b031681565b6103dc813361043a565b50565b6103e7610576565b6103f057600080fd5b600080546040516001600160a01b03909116907f8be0079c531659141344cd1fd0a4f28419497f9722a3daafe3b4186f6b6457e0908390a3600080546001600160a01b0319169055565b600354600a906001600160a01b031663693993b2610457856106a4565b84866040518463ffffffff1660e01b8152600401610477939291906109fd565b602060405180830381600087803b15801561049157600080fd5b505af11580156104a5573d6000803e3d6000fd5b505050506040513d601f19601f820116820180604052506104c99190810190610908565b50600360009054906101000a90046001600160a01b03166001600160a01b0316631249c58b6040518163ffffffff1660e01b8152600401602060405180830381600087803b15801561051a57600080fd5b505af115801561052e573d6000803e3d6000fd5b505050506040513d601f19601f820116820180604052506105529190810190610908565b50505050565b6004546001600160a01b031681565b6000546001600160a01b031690565b6000546001600160a01b0316331490565b6004805460405163a9059cbb60e01b81526000926001600160a01b0390921691829163a9059cbb916105bd918891889101610a25565b602060405180830381600087803b1580156105d757600080fd5b505af11580156105eb573d6000803e3d6000fd5b505050506040513d601f19601f8201168201806040525061060f9190810190610908565b5060019150505b92915050565b600360009054906101000a90046001600160a01b03166001600160a01b0316631249c58b6040518163ffffffff1660e01b8152600401602060405180830381600087803b15801561066c57600080fd5b505af1158015610680573d6000803e3d6000fd5b505050506040513d601f19601f820116820180604052506103dc9190810190610908565b600354604051633835054160e01b81526000916001600160a01b0316906338350541906106d5908590600401610a78565b602060405180830381600087803b1580156106ef57600080fd5b505af1158015610703573d6000803e3d6000fd5b505050506040513d601f19601f820116820180604052506106169190810190610863565b6003546001600160a01b031681565b6001602081905260009182526040909120805491015460ff82169161010090046001600160a01b03169083565b61076b610576565b61077457600080fd5b6103dc816001600160a01b03811661078b57600080fd5b600080546040516001600160a01b03808516939216917f8be0079c531659141344cd1fd0a4f28419497f9722a3daafe3b4186f6b6457e091a3600080546001600160a01b0319166001600160a01b0392909216919091179055565b604080516060810182526000808252602082018190529181019190915290565b803561061681610ab0565b805161061681610ab0565b805161061681610ac4565b803561061681610acd565b805161061681610acd565b60006020828403121561084f57600080fd5b600061085b8484610806565b949350505050565b60006020828403121561087557600080fd5b600061085b8484610811565b60008060006060848603121561089657600080fd5b60006108a28686610806565b93505060206108b386828701610806565b92505060406108c486828701610827565b9150509250925092565b600080604083850312156108e157600080fd5b60006108ed8585610806565b92505060206108fe85828601610827565b9150509250929050565b60006020828403121561091a57600080fd5b600061085b848461081c565b60006020828403121561093857600080fd5b600061085b8484610827565b60006020828403121561095657600080fd5b600061085b8484610832565b6000806040838503121561097557600080fd5b60006109818585610827565b92505060206108fe85828601610806565b61099b81610a86565b82525050565b61099b81610a91565b61099b81610aa5565b805160608301906109c484826109a1565b5060208201516109d76020850182610992565b50604082015161055260408501825b61099b81610aa2565b602081016106168284610992565b60608101610a0b8286610992565b610a186020830185610992565b61085b60408301846109e6565b60408101610a338285610992565b6102e660208301846109e6565b6020810161061682846109a1565b60608101610a0b82866109a1565b6020810161061682846109aa565b6060810161061682846109b3565b6020810161061682846109e6565b600061061682610a96565b151590565b6001600160a01b031690565b90565b600061061682610a86565b610ab981610a86565b81146103dc57600080fd5b610ab981610a91565b610ab981610aa256fea365627a7a723158209569857e8a26fad227b1c7d32813359a5fb7ef8af232128757163748bdaa51266c6578706572696d656e74616cf564736f6c634300050c0040",
  "source": "pragma solidity ^0.5.2;\npragma experimental ABIEncoderV2;\n\nimport \"./TicketFactory.sol\";\n\n// Storage\nimport \"./storage/WtConstants.sol\";\nimport \"./storage/WtStorage.sol\";\n\nimport \"./Erc20TestToken.sol\";\nimport \"./OceanToken.sol\";\n\n\n\ncontract TicketMarket is WtStorage, WtConstants {\n\n    TicketFactory public factory;\n    Erc20TestToken public erc20Token;\n    OceanToken public oceanToken;\n\n\n    constructor(address _ticketFactoryContract, address _erc20TestTokenContract, address _oceanTokenContract) public {\n        factory = TicketFactory(_ticketFactoryContract);\n        erc20Token = Erc20TestToken(_erc20TestTokenContract);\n        oceanToken = OceanToken(_oceanTokenContract);\n    }\n\n\n    function testFunc() public returns (bool) {\n        return WtConstants.CONFIRMED;\n    }\n\n    // @notice owner address of ERC721 token which is specified\n    // @param _ticketId is tokenId\n    function ownerOfTicket(uint _ticketId) public returns (address) {\n        return factory._ownerOf(_ticketId);\n    }\n    \n\n    // @notice test of inherited mint() from TicketFactory.sol\n    function factoryMint() public {\n        factory.mint();\n    }\n    \n\n\n    /// @notice buys a certificate\n    /// @param _ticketId the id of the ticket \n    function buyTicket(uint _ticketId) public {\n        _buyTicket(_ticketId, msg.sender);\n    }\n\n\n\n    function totalSupplyERC20() public view returns (uint256) {\n        IERC20 erc20 = IERC20(oceanToken);\n        return erc20.totalSupply();\n        //return oceanToken._totalSupply();\n    }\n    \n\n    function testTransferFrom(address from, address to, uint256 value) public returns(bool) {\n        uint purchasePrice = 10;\n\n        IERC20 erc20 = IERC20(oceanToken);\n        erc20.transferFrom(from, to, value);\n\n        //return erc20Token._transferFrom(from, to, value);\n        //oceanToken.transferFrom(from, to, value);\n        return true;\n    }\n    \n\n    function testTransfer(address to, uint256 value) public returns(bool) {\n\n        IERC20 erc20 = IERC20(erc20Token);\n        erc20.transfer(to, value);\n\n        //return erc20Token._transferFrom(from, to, value);\n        //oceanToken.transfer(to, value);\n        return true;\n    }\n\n\n    function getPurchasableTicket(uint ticketId)\n        public view returns (PurchasableTicket memory)\n    {\n\n        return purchasableTickets[ticketId];\n    }\n\n\n    /**********************\n     * internal functions\n    ***********************/\n\n    function _buyTicket(uint _ticketId, address buyer) public {\n        //PurchasableTicket memory pTicket = getPurchasableTicket(_ticketId);\n        uint purchasePrice = 10;\n\n        //IERC20 erc20 = IERC20(erc20Token);\n        //erc20Token._transferFrom(buyer, ownerOfTicket(_ticketId), purchasePrice);\n        //erc20Token.transferFrom(buyer, factory._ownerOf(_ticketId), purchasePrice);\n        //erc20.transferFrom(buyer, factory.ownerOf(_ticketId), pTicket.PurchasePrice);\n   \n        factory._transferTicketFrom(ownerOfTicket(_ticketId), buyer, _ticketId);\n        //factory.transferFrom(factory.ownerOf(_ticketId), buyer, _ticketId);\n        \n        //_removeTokenAndPrice(_ticketId);\n\n        //unpublishForSale(_ticketId);\n\n        factory.mint();\n    }\n\n}\n",
  "sourcePath": "/Users/unomasanori/projects/DEMO_MVP/Gitcoin-Global-Communities-Hackcathon/walletConnect-ticketing-dapp/contracts/TicketMarket.sol",
  "compiler": {
    "name": "solc",
    "version": "0.5.12+commit.7709ece9.Emscripten.clang"
  },
  "schemaVersion": "3.0.19",
  "updatedAt": "2019-12-11T10:14:57.684Z",
  "devdoc": {
    "methods": {
      "buyTicket(uint256)": {
        "params": {
          "_ticketId": "the id of the ticket "
        }
      },
      "isOwner()": {
        "return": "true if `msg.sender` is the owner of the contract."
      },
      "owner()": {
        "return": "the address of the owner."
      },
      "renounceOwnership()": {
        "details": "Allows the current owner to relinquish control of the contract."
      },
      "transferOwnership(address)": {
        "details": "Allows the current owner to transfer control of the contract to a newOwner.",
        "params": {
          "newOwner": "The address to transfer ownership to."
        }
      }
    }
  },
  "userdoc": {
    "methods": {
      "_buyTicket(uint256,address)": {
        "notice": "******************** internal functions**********************"
      },
      "buyTicket(uint256)": {
        "notice": "buys a certificate"
      },
      "renounceOwnership()": {
        "notice": "Renouncing to ownership will leave the contract without an owner. It will not be possible to call the functions with the `onlyOwner` modifier anymore."
      }
    }
  }
}