{
  "contractName": "TicketMarket",
  "abi": [
    {
      "inputs": [
        {
          "internalType": "address",
          "name": "_ticketFactoryContract",
          "type": "address"
        },
        {
          "internalType": "address",
          "name": "_erc20TestTokenContract",
          "type": "address"
        },
        {
          "internalType": "address",
          "name": "_oceanTokenContract",
          "type": "address"
        }
      ],
      "payable": false,
      "stateMutability": "nonpayable",
      "type": "constructor"
    },
    {
      "anonymous": false,
      "inputs": [
        {
          "indexed": false,
          "internalType": "uint256",
          "name": "exampleId",
          "type": "uint256"
        },
        {
          "indexed": false,
          "internalType": "string",
          "name": "exampleName",
          "type": "string"
        },
        {
          "indexed": false,
          "internalType": "address",
          "name": "exampleAddr",
          "type": "address"
        }
      ],
      "name": "ExampleEvent",
      "type": "event"
    },
    {
      "anonymous": false,
      "inputs": [
        {
          "indexed": true,
          "internalType": "uint256",
          "name": "_ticketId",
          "type": "uint256"
        },
        {
          "indexed": false,
          "internalType": "uint256",
          "name": "_price",
          "type": "uint256"
        },
        {
          "indexed": false,
          "internalType": "address",
          "name": "_token",
          "type": "address"
        }
      ],
      "name": "LogPublishForSale",
      "type": "event"
    },
    {
      "anonymous": false,
      "inputs": [
        {
          "indexed": true,
          "internalType": "address",
          "name": "previousOwner",
          "type": "address"
        },
        {
          "indexed": true,
          "internalType": "address",
          "name": "newOwner",
          "type": "address"
        }
      ],
      "name": "OwnershipTransferred",
      "type": "event"
    },
    {
      "constant": true,
      "inputs": [],
      "name": "erc20Token",
      "outputs": [
        {
          "internalType": "contract Erc20TestToken",
          "name": "",
          "type": "address"
        }
      ],
      "payable": false,
      "stateMutability": "view",
      "type": "function"
    },
    {
      "constant": true,
      "inputs": [],
      "name": "factory",
      "outputs": [
        {
          "internalType": "contract TicketFactory",
          "name": "",
          "type": "address"
        }
      ],
      "payable": false,
      "stateMutability": "view",
      "type": "function"
    },
    {
      "constant": true,
      "inputs": [],
      "name": "ierc20",
      "outputs": [
        {
          "internalType": "contract IERC20interface",
          "name": "",
          "type": "address"
        }
      ],
      "payable": false,
      "stateMutability": "view",
      "type": "function"
    },
    {
      "constant": true,
      "inputs": [],
      "name": "isOwner",
      "outputs": [
        {
          "internalType": "bool",
          "name": "",
          "type": "bool"
        }
      ],
      "payable": false,
      "stateMutability": "view",
      "type": "function"
    },
    {
      "constant": true,
      "inputs": [],
      "name": "oceanToken",
      "outputs": [
        {
          "internalType": "contract OceanToken",
          "name": "",
          "type": "address"
        }
      ],
      "payable": false,
      "stateMutability": "view",
      "type": "function"
    },
    {
      "constant": true,
      "inputs": [],
      "name": "owner",
      "outputs": [
        {
          "internalType": "address",
          "name": "",
          "type": "address"
        }
      ],
      "payable": false,
      "stateMutability": "view",
      "type": "function"
    },
    {
      "constant": true,
      "inputs": [
        {
          "internalType": "uint256",
          "name": "",
          "type": "uint256"
        }
      ],
      "name": "purchasableTickets",
      "outputs": [
        {
          "internalType": "bool",
          "name": "forSale",
          "type": "bool"
        },
        {
          "internalType": "address",
          "name": "acceptedToken",
          "type": "address"
        },
        {
          "internalType": "uint256",
          "name": "PurchasePrice",
          "type": "uint256"
        }
      ],
      "payable": false,
      "stateMutability": "view",
      "type": "function"
    },
    {
      "constant": false,
      "inputs": [],
      "name": "renounceOwnership",
      "outputs": [],
      "payable": false,
      "stateMutability": "nonpayable",
      "type": "function"
    },
    {
      "constant": false,
      "inputs": [
        {
          "internalType": "address",
          "name": "newOwner",
          "type": "address"
        }
      ],
      "name": "transferOwnership",
      "outputs": [],
      "payable": false,
      "stateMutability": "nonpayable",
      "type": "function"
    },
    {
      "constant": false,
      "inputs": [],
      "name": "testFunc",
      "outputs": [
        {
          "internalType": "bool",
          "name": "",
          "type": "bool"
        }
      ],
      "payable": false,
      "stateMutability": "nonpayable",
      "type": "function"
    },
    {
      "constant": false,
      "inputs": [
        {
          "internalType": "uint256",
          "name": "_ticketId",
          "type": "uint256"
        }
      ],
      "name": "ownerOfTicket",
      "outputs": [
        {
          "internalType": "address",
          "name": "",
          "type": "address"
        }
      ],
      "payable": false,
      "stateMutability": "nonpayable",
      "type": "function"
    },
    {
      "constant": false,
      "inputs": [
        {
          "internalType": "address",
          "name": "_callAddress",
          "type": "address"
        }
      ],
      "name": "factoryMint",
      "outputs": [
        {
          "internalType": "bool",
          "name": "",
          "type": "bool"
        }
      ],
      "payable": false,
      "stateMutability": "nonpayable",
      "type": "function"
    },
    {
      "constant": false,
      "inputs": [
        {
          "internalType": "uint256",
          "name": "_ticketId",
          "type": "uint256"
        }
      ],
      "name": "buyTicket",
      "outputs": [],
      "payable": false,
      "stateMutability": "nonpayable",
      "type": "function"
    },
    {
      "constant": true,
      "inputs": [],
      "name": "totalSupplyERC20",
      "outputs": [
        {
          "internalType": "uint256",
          "name": "",
          "type": "uint256"
        }
      ],
      "payable": false,
      "stateMutability": "view",
      "type": "function"
    },
    {
      "constant": true,
      "inputs": [
        {
          "internalType": "address",
          "name": "who",
          "type": "address"
        }
      ],
      "name": "balanceOfERC20",
      "outputs": [
        {
          "internalType": "uint256",
          "name": "",
          "type": "uint256"
        }
      ],
      "payable": false,
      "stateMutability": "view",
      "type": "function"
    },
    {
      "constant": false,
      "inputs": [
        {
          "internalType": "address",
          "name": "from",
          "type": "address"
        },
        {
          "internalType": "address",
          "name": "to",
          "type": "address"
        },
        {
          "internalType": "uint256",
          "name": "value",
          "type": "uint256"
        }
      ],
      "name": "testTransferFrom",
      "outputs": [
        {
          "internalType": "bool",
          "name": "",
          "type": "bool"
        }
      ],
      "payable": false,
      "stateMutability": "nonpayable",
      "type": "function"
    },
    {
      "constant": false,
      "inputs": [
        {
          "internalType": "address",
          "name": "to",
          "type": "address"
        },
        {
          "internalType": "uint256",
          "name": "value",
          "type": "uint256"
        }
      ],
      "name": "testTransfer",
      "outputs": [
        {
          "internalType": "bool",
          "name": "",
          "type": "bool"
        }
      ],
      "payable": false,
      "stateMutability": "nonpayable",
      "type": "function"
    },
    {
      "constant": true,
      "inputs": [
        {
          "internalType": "uint256",
          "name": "ticketId",
          "type": "uint256"
        }
      ],
      "name": "getPurchasableTicket",
      "outputs": [
        {
          "components": [
            {
              "internalType": "bool",
              "name": "forSale",
              "type": "bool"
            },
            {
              "internalType": "address",
              "name": "acceptedToken",
              "type": "address"
            },
            {
              "internalType": "uint256",
              "name": "PurchasePrice",
              "type": "uint256"
            }
          ],
          "internalType": "struct WtObjects.PurchasableTicket",
          "name": "",
          "type": "tuple"
        }
      ],
      "payable": false,
      "stateMutability": "view",
      "type": "function"
    },
    {
      "constant": false,
      "inputs": [
        {
          "internalType": "uint256",
          "name": "_ticketId",
          "type": "uint256"
        },
        {
          "internalType": "address",
          "name": "buyer",
          "type": "address"
        },
        {
          "internalType": "uint256",
          "name": "purchasePrice",
          "type": "uint256"
        }
      ],
      "name": "_buyTicket",
      "outputs": [],
      "payable": false,
      "stateMutability": "nonpayable",
      "type": "function"
    }
  ],
  "bytecode": "0x608060405234801561001057600080fd5b50604051610d46380380610d4683398101604081905261002f916100e3565b600080546001600160a01b03191633178082556040516001600160a01b039190911691907f8be0079c531659141344cd1fd0a4f28419497f9722a3daafe3b4186f6b6457e0908290a3600380546001600160a01b03199081166001600160a01b0395861617909155600480548216938516939093179092556005805483169190931690811790925560078054821683179055600680549091169091179055610158565b80516100dd81610141565b92915050565b6000806000606084860312156100f857600080fd5b600061010486866100d2565b9350506020610115868287016100d2565b9250506040610126868287016100d2565b9150509250925092565b60006001600160a01b0382166100dd565b61014a81610130565b811461015557600080fd5b50565b610bdf806101676000396000f3fe608060405234801561001057600080fd5b50600436106101215760003560e01c80638a13eea7116100ad578063c0860c2c11610071578063c0860c2c14610224578063c45a015514610237578063d544bce41461023f578063d93db24f14610261578063f2fde38b1461027457610121565b80638a13eea7146101e45780638da5cb5b146101ec5780638f32d59b14610201578063a0e7026714610209578063bf0ae63d1461021c57610121565b80631d32a07e116100f45780631d32a07e1461018a578063244bb7f01461019f5780634e833193146101b457806367dd74ca146101c9578063715018a6146101dc57610121565b8063037a417c1461012657806305a37e9a1461014457806306aba6121461015757806311d5c5461461016a575b600080fd5b61012e610287565b60405161013b9190610b06565b60405180910390f35b61012e610152366004610956565b61028c565b61012e610165366004610912565b610326565b61017d6101783660046109fb565b6103b2565b60405161013b9190610b30565b610192610402565b60405161013b9190610b3e565b6101a7610488565b60405161013b9190610b22565b6101c76101c2366004610a37565b610497565b005b6101c76101d73660046109fb565b6105b0565b6101c76105c3565b6101a761061e565b6101f461062d565b60405161013b9190610ab5565b61012e61063c565b61012e6102173660046109a3565b61064d565b6101a76106de565b6101f46102323660046109fb565b6106ed565b6101a7610770565b61025261024d3660046109fb565b61077f565b60405161013b93929190610b14565b61019261026f366004610912565b6107ac565b6101c7610282366004610912565b610830565b600190565b6006546040516323b872dd60e01b8152600091600a916001600160a01b03909116906323b872dd906102c690889088908890600401610ac3565b602060405180830381600087803b1580156102e057600080fd5b505af11580156102f4573d6000803e3d6000fd5b505050506040513d601f19601f8201168201806040525061031891908101906109dd565b5060019150505b9392505050565b6003546040516335e6a40960e01b81526000916001600160a01b0316906335e6a40990610357908590600401610ab5565b602060405180830381600087803b15801561037157600080fd5b505af1158015610385573d6000803e3d6000fd5b505050506040513d601f19601f820116820180604052506103a991908101906109dd565b50600192915050565b6103ba6108bb565b506000908152600160208181526040928390208351606081018552815460ff81161515825261010090046001600160a01b031692810192909252909101549181019190915290565b600554604080516318160ddd60e01b815290516000926001600160a01b03169182916318160ddd91600480820192602092909190829003018186803b15801561044a57600080fd5b505afa15801561045e573d6000803e3d6000fd5b505050506040513d601f19601f820116820180604052506104829190810190610a19565b91505090565b6005546001600160a01b031681565b6006546001600160a01b031663a9059cbb6104b1856106ed565b836040518363ffffffff1660e01b81526004016104cf929190610aeb565b602060405180830381600087803b1580156104e957600080fd5b505af11580156104fd573d6000803e3d6000fd5b505050506040513d601f19601f8201168201806040525061052191908101906109dd565b50600360009054906101000a90046001600160a01b03166001600160a01b0316631249c58b6040518163ffffffff1660e01b8152600401602060405180830381600087803b15801561057257600080fd5b505af1158015610586573d6000803e3d6000fd5b505050506040513d601f19601f820116820180604052506105aa91908101906109dd565b50505050565b629896806105bf823383610497565b5050565b6105cb61063c565b6105d457600080fd5b600080546040516001600160a01b03909116907f8be0079c531659141344cd1fd0a4f28419497f9722a3daafe3b4186f6b6457e0908390a3600080546001600160a01b0319169055565b6004546001600160a01b031681565b6000546001600160a01b031690565b6000546001600160a01b0316331490565b60065460405163a9059cbb60e01b81526000916001600160a01b03169063a9059cbb906106809086908690600401610aeb565b602060405180830381600087803b15801561069a57600080fd5b505af11580156106ae573d6000803e3d6000fd5b505050506040513d601f19601f820116820180604052506106d291908101906109dd565b50600190505b92915050565b6006546001600160a01b031681565b600354604051633835054160e01b81526000916001600160a01b03169063383505419061071e908590600401610b3e565b602060405180830381600087803b15801561073857600080fd5b505af115801561074c573d6000803e3d6000fd5b505050506040513d601f19601f820116820180604052506106d89190810190610938565b6003546001600160a01b031681565b6001602081905260009182526040909120805491015460ff82169161010090046001600160a01b03169083565b600480546040516370a0823160e01b81526000926001600160a01b039092169182916370a08231916107e091879101610ab5565b60206040518083038186803b1580156107f857600080fd5b505afa15801561080c573d6000803e3d6000fd5b505050506040513d601f19601f8201168201806040525061031f9190810190610a19565b61083861063c565b61084157600080fd5b61084a8161084d565b50565b6001600160a01b03811661086057600080fd5b600080546040516001600160a01b03808516939216917f8be0079c531659141344cd1fd0a4f28419497f9722a3daafe3b4186f6b6457e091a3600080546001600160a01b0319166001600160a01b0392909216919091179055565b604080516060810182526000808252602082018190529181019190915290565b80356106d881610b76565b80516106d881610b76565b80516106d881610b8a565b80356106d881610b93565b80516106d881610b93565b60006020828403121561092457600080fd5b600061093084846108db565b949350505050565b60006020828403121561094a57600080fd5b600061093084846108e6565b60008060006060848603121561096b57600080fd5b600061097786866108db565b9350506020610988868287016108db565b9250506040610999868287016108fc565b9150509250925092565b600080604083850312156109b657600080fd5b60006109c285856108db565b92505060206109d3858286016108fc565b9150509250929050565b6000602082840312156109ef57600080fd5b600061093084846108f1565b600060208284031215610a0d57600080fd5b600061093084846108fc565b600060208284031215610a2b57600080fd5b60006109308484610907565b600080600060608486031215610a4c57600080fd5b600061097786866108fc565b610a6181610b4c565b82525050565b610a6181610b57565b610a6181610b6b565b80516060830190610a8a8482610a67565b506020820151610a9d6020850182610a58565b5060408201516105aa60408501825b610a6181610b68565b602081016106d88284610a58565b60608101610ad18286610a58565b610ade6020830185610a58565b6109306040830184610aac565b60408101610af98285610a58565b61031f6020830184610aac565b602081016106d88284610a67565b60608101610ad18286610a67565b602081016106d88284610a70565b606081016106d88284610a79565b602081016106d88284610aac565b60006106d882610b5c565b151590565b6001600160a01b031690565b90565b60006106d882610b4c565b610b7f81610b4c565b811461084a57600080fd5b610b7f81610b57565b610b7f81610b6856fea365627a7a723158201f34a2a3c2d2893f3c690e6489996c0d618efde3f5fd4c14b39ccccab58083d56c6578706572696d656e74616cf564736f6c634300050c0040",
  "source": "pragma solidity ^0.5.2;\npragma experimental ABIEncoderV2;\n\nimport \"./TicketFactory.sol\";\n\n// Storage\nimport \"./storage/WtConstants.sol\";\nimport \"./storage/WtStorage.sol\";\n\nimport \"./Erc20TestToken.sol\";\nimport \"./OceanToken.sol\";\n\n//import \"openzeppelin-solidity/contracts/token/ERC20/ERC20.sol\";\n\n\n/**\n * @title ERC20 interface\n * @dev see https://github.com/ethereum/EIPs/issues/20\n */\ninterface IERC20interface {\n    function transfer(address to, uint256 value) external returns (bool);\n\n    function approve(address spender, uint256 value) external returns (bool);\n\n    function transferFrom(address from, address to, uint256 value) external returns (bool);\n\n    function totalSupply() external view returns (uint256);\n\n    function balanceOf(address who) external view returns (uint256);\n\n    function allowance(address owner, address spender) external view returns (uint256);\n\n    event Transfer(address indexed from, address indexed to, uint256 value);\n\n    event Approval(address indexed owner, address indexed spender, uint256 value);\n}\n\n\n\n\ncontract TicketMarket is WtStorage, WtConstants {\n\n    TicketFactory public factory;\n    Erc20TestToken public erc20Token;\n    OceanToken public oceanToken;\n\n    IERC20interface public ierc20;\n\n    address oceanTokenContract;\n\n    constructor(address _ticketFactoryContract, address _erc20TestTokenContract, address _oceanTokenContract) public {\n        factory = TicketFactory(_ticketFactoryContract);\n        erc20Token = Erc20TestToken(_erc20TestTokenContract);\n        oceanToken = OceanToken(_oceanTokenContract);\n\n        oceanTokenContract = _oceanTokenContract;\n\n        ierc20 = IERC20interface(_oceanTokenContract);\n    }\n\n\n    function testFunc() public returns (bool) {\n        return WtConstants.CONFIRMED;\n    }\n\n    // @notice owner address of ERC721 token which is specified\n    // @param _ticketId is tokenId\n    function ownerOfTicket(uint _ticketId) public returns (address) {\n        return factory._ownerOf(_ticketId);\n    }\n    \n\n    // @notice test of inherited mint() from TicketFactory.sol\n    function factoryMint(address _callAddress) public returns (bool) {\n        //factory.mint();\n        factory.mintOnExternalContract(_callAddress);\n        return true;\n    }\n    \n\n\n    /// @notice buys a certificate\n    /// @param _ticketId the id of the ticket \n    function buyTicket(uint _ticketId) public {\n        uint256 _purchasePrice = 1e7;\n        _buyTicket(_ticketId, msg.sender, _purchasePrice);\n    }\n    \n\n    function totalSupplyERC20() public view returns (uint256) {\n        IERC20 erc20 = IERC20(oceanToken);\n        return erc20.totalSupply();\n        //return oceanToken._totalSupply();\n    }\n    \n\n    function balanceOfERC20(address who) public view returns (uint256) {\n        IERC20 erc20 = IERC20(erc20Token);\n        return erc20.balanceOf(who);\n    }\n    \n\n\n    function testTransferFrom(address from, address to, uint256 value) public returns(bool) {\n        uint purchasePrice = 10;\n\n        //IERC20 erc20 = IERC20(oceanToken);\n        //erc20.transferFrom(from, to, value);\n        ierc20.transferFrom(from, to, value);\n\n        //return erc20Token._transferFrom(from, to, value);\n        //oceanToken.transferFrom(from, to, value);\n        return true;\n    }\n    \n\n    function testTransfer(address to, uint256 value) public returns(bool) {\n        //IERC20 erc20 = IERC20(oceanToken);\n        //ERC20 erc20 = ERC20(erc20Token);\n        //erc20.transfer(to, value);\n\n        ierc20.transfer(to, value);\n\n        //erc20Token.transfer(to, value);\n        //oceanToken.transfer(to, value);\n        return true;\n    }\n\n\n    function getPurchasableTicket(uint ticketId)\n        public view returns (PurchasableTicket memory)\n    {\n\n        return purchasableTickets[ticketId];\n    }\n\n\n\n\n\n    /**********************\n     * internal functions\n    ***********************/\n\n    function _buyTicket(uint _ticketId, address buyer, uint256 purchasePrice) public {\n        //PurchasableTicket memory pTicket = getPurchasableTicket(_ticketId);\n        //uint purchasePrice = 10;\n\n        ierc20.transfer(ownerOfTicket(_ticketId), purchasePrice);\n        //IERC20 erc20 = IERC20(erc20Token);\n        //erc20Token._transferFrom(buyer, ownerOfTicket(_ticketId), purchasePrice);\n        //erc20Token.transferFrom(buyer, factory._ownerOf(_ticketId), purchasePrice);\n        //erc20.transferFrom(buyer, factory.ownerOf(_ticketId), pTicket.PurchasePrice);\n   \n        //factory._transferTicketFrom(ownerOfTicket(_ticketId), buyer, _ticketId);\n        //factory.transferFrom(factory.ownerOf(_ticketId), buyer, _ticketId);\n        \n        //_removeTokenAndPrice(_ticketId);\n\n        //unpublishForSale(_ticketId);\n\n        factory.mint();\n    }\n\n}\n",
  "sourcePath": "/Users/unomasanori/projects/DEMO_MVP/Gitcoin-Global-Communities-Hackcathon/walletConnect-ticketing-dapp/contracts/TicketMarket.sol",
  "compiler": {
    "name": "solc",
    "version": "0.5.12+commit.7709ece9.Emscripten.clang"
  },
  "schemaVersion": "3.0.19",
  "updatedAt": "2019-12-12T09:25:16.963Z",
  "networkType": "ethereum",
  "devdoc": {
    "methods": {
      "buyTicket(uint256)": {
        "params": {
          "_ticketId": "the id of the ticket "
        }
      },
      "isOwner()": {
        "return": "true if `msg.sender` is the owner of the contract."
      },
      "owner()": {
        "return": "the address of the owner."
      },
      "renounceOwnership()": {
        "details": "Allows the current owner to relinquish control of the contract."
      },
      "transferOwnership(address)": {
        "details": "Allows the current owner to transfer control of the contract to a newOwner.",
        "params": {
          "newOwner": "The address to transfer ownership to."
        }
      }
    }
  },
  "userdoc": {
    "methods": {
      "_buyTicket(uint256,address,uint256)": {
        "notice": "******************** internal functions**********************"
      },
      "buyTicket(uint256)": {
        "notice": "buys a certificate"
      },
      "renounceOwnership()": {
        "notice": "Renouncing to ownership will leave the contract without an owner. It will not be possible to call the functions with the `onlyOwner` modifier anymore."
      }
    }
  }
}