{
  "contractName": "TicketMarket",
  "abi": [
    {
      "inputs": [
        {
          "internalType": "address",
          "name": "_ticketFactoryContract",
          "type": "address"
        },
        {
          "internalType": "address",
          "name": "_erc20TestTokenContract",
          "type": "address"
        },
        {
          "internalType": "address",
          "name": "_oceanTokenContract",
          "type": "address"
        }
      ],
      "payable": false,
      "stateMutability": "nonpayable",
      "type": "constructor"
    },
    {
      "anonymous": false,
      "inputs": [
        {
          "indexed": false,
          "internalType": "uint256",
          "name": "exampleId",
          "type": "uint256"
        },
        {
          "indexed": false,
          "internalType": "string",
          "name": "exampleName",
          "type": "string"
        },
        {
          "indexed": false,
          "internalType": "address",
          "name": "exampleAddr",
          "type": "address"
        }
      ],
      "name": "ExampleEvent",
      "type": "event"
    },
    {
      "anonymous": false,
      "inputs": [
        {
          "indexed": true,
          "internalType": "uint256",
          "name": "_ticketId",
          "type": "uint256"
        },
        {
          "indexed": false,
          "internalType": "uint256",
          "name": "_price",
          "type": "uint256"
        },
        {
          "indexed": false,
          "internalType": "address",
          "name": "_token",
          "type": "address"
        }
      ],
      "name": "LogPublishForSale",
      "type": "event"
    },
    {
      "anonymous": false,
      "inputs": [
        {
          "indexed": true,
          "internalType": "address",
          "name": "previousOwner",
          "type": "address"
        },
        {
          "indexed": true,
          "internalType": "address",
          "name": "newOwner",
          "type": "address"
        }
      ],
      "name": "OwnershipTransferred",
      "type": "event"
    },
    {
      "constant": true,
      "inputs": [],
      "name": "erc20Token",
      "outputs": [
        {
          "internalType": "contract Erc20TestToken",
          "name": "",
          "type": "address"
        }
      ],
      "payable": false,
      "stateMutability": "view",
      "type": "function"
    },
    {
      "constant": true,
      "inputs": [],
      "name": "factory",
      "outputs": [
        {
          "internalType": "contract TicketFactory",
          "name": "",
          "type": "address"
        }
      ],
      "payable": false,
      "stateMutability": "view",
      "type": "function"
    },
    {
      "constant": true,
      "inputs": [],
      "name": "isOwner",
      "outputs": [
        {
          "internalType": "bool",
          "name": "",
          "type": "bool"
        }
      ],
      "payable": false,
      "stateMutability": "view",
      "type": "function"
    },
    {
      "constant": true,
      "inputs": [],
      "name": "oceanToken",
      "outputs": [
        {
          "internalType": "contract OceanToken",
          "name": "",
          "type": "address"
        }
      ],
      "payable": false,
      "stateMutability": "view",
      "type": "function"
    },
    {
      "constant": true,
      "inputs": [],
      "name": "owner",
      "outputs": [
        {
          "internalType": "address",
          "name": "",
          "type": "address"
        }
      ],
      "payable": false,
      "stateMutability": "view",
      "type": "function"
    },
    {
      "constant": true,
      "inputs": [
        {
          "internalType": "uint256",
          "name": "",
          "type": "uint256"
        }
      ],
      "name": "purchasableTickets",
      "outputs": [
        {
          "internalType": "bool",
          "name": "forSale",
          "type": "bool"
        },
        {
          "internalType": "address",
          "name": "acceptedToken",
          "type": "address"
        },
        {
          "internalType": "uint256",
          "name": "PurchasePrice",
          "type": "uint256"
        }
      ],
      "payable": false,
      "stateMutability": "view",
      "type": "function"
    },
    {
      "constant": false,
      "inputs": [],
      "name": "renounceOwnership",
      "outputs": [],
      "payable": false,
      "stateMutability": "nonpayable",
      "type": "function"
    },
    {
      "constant": false,
      "inputs": [
        {
          "internalType": "address",
          "name": "newOwner",
          "type": "address"
        }
      ],
      "name": "transferOwnership",
      "outputs": [],
      "payable": false,
      "stateMutability": "nonpayable",
      "type": "function"
    },
    {
      "constant": false,
      "inputs": [],
      "name": "testFunc",
      "outputs": [
        {
          "internalType": "bool",
          "name": "",
          "type": "bool"
        }
      ],
      "payable": false,
      "stateMutability": "nonpayable",
      "type": "function"
    },
    {
      "constant": false,
      "inputs": [
        {
          "internalType": "uint256",
          "name": "_ticketId",
          "type": "uint256"
        }
      ],
      "name": "ownerOfTicket",
      "outputs": [
        {
          "internalType": "address",
          "name": "",
          "type": "address"
        }
      ],
      "payable": false,
      "stateMutability": "nonpayable",
      "type": "function"
    },
    {
      "constant": false,
      "inputs": [
        {
          "internalType": "uint256",
          "name": "_ticketId",
          "type": "uint256"
        }
      ],
      "name": "buyTicket",
      "outputs": [],
      "payable": false,
      "stateMutability": "nonpayable",
      "type": "function"
    },
    {
      "constant": true,
      "inputs": [],
      "name": "totalSupplyERC20",
      "outputs": [
        {
          "internalType": "uint256",
          "name": "",
          "type": "uint256"
        }
      ],
      "payable": false,
      "stateMutability": "view",
      "type": "function"
    },
    {
      "constant": false,
      "inputs": [
        {
          "internalType": "address",
          "name": "from",
          "type": "address"
        },
        {
          "internalType": "address",
          "name": "to",
          "type": "address"
        },
        {
          "internalType": "uint256",
          "name": "value",
          "type": "uint256"
        }
      ],
      "name": "testTransferFrom",
      "outputs": [
        {
          "internalType": "bool",
          "name": "",
          "type": "bool"
        }
      ],
      "payable": true,
      "stateMutability": "payable",
      "type": "function"
    },
    {
      "constant": false,
      "inputs": [
        {
          "internalType": "address",
          "name": "to",
          "type": "address"
        },
        {
          "internalType": "uint256",
          "name": "value",
          "type": "uint256"
        }
      ],
      "name": "testTransfer",
      "outputs": [
        {
          "internalType": "bool",
          "name": "",
          "type": "bool"
        }
      ],
      "payable": true,
      "stateMutability": "payable",
      "type": "function"
    },
    {
      "constant": true,
      "inputs": [
        {
          "internalType": "uint256",
          "name": "ticketId",
          "type": "uint256"
        }
      ],
      "name": "getPurchasableTicket",
      "outputs": [
        {
          "components": [
            {
              "internalType": "bool",
              "name": "forSale",
              "type": "bool"
            },
            {
              "internalType": "address",
              "name": "acceptedToken",
              "type": "address"
            },
            {
              "internalType": "uint256",
              "name": "PurchasePrice",
              "type": "uint256"
            }
          ],
          "internalType": "struct WtObjects.PurchasableTicket",
          "name": "",
          "type": "tuple"
        }
      ],
      "payable": false,
      "stateMutability": "view",
      "type": "function"
    }
  ],
  "bytecode": "0x608060405234801561001057600080fd5b50604051610c44380380610c4483398101604081905261002f916100cb565b600080546001600160a01b03191633178082556040516001600160a01b039190911691907f8be0079c531659141344cd1fd0a4f28419497f9722a3daafe3b4186f6b6457e0908290a3600380546001600160a01b039485166001600160a01b031991821617909155600480549385169382169390931790925560058054919093169116179055610140565b80516100c581610129565b92915050565b6000806000606084860312156100e057600080fd5b60006100ec86866100ba565b93505060206100fd868287016100ba565b925050604061010e868287016100ba565b9150509250925092565b60006001600160a01b0382166100c5565b61013281610118565b811461013d57600080fd5b50565b610af58061014f6000396000f3fe6080604052600436106100e85760003560e01c80638a13eea71161008a578063c0860c2c11610059578063c0860c2c14610232578063c45a015514610252578063d544bce414610267578063f2fde38b14610296576100e8565b80638a13eea7146101d35780638da5cb5b146101e85780638f32d59b1461020a578063a0e702671461021f576100e8565b80631d32a07e116100c65780631d32a07e14610158578063244bb7f01461017a57806367dd74ca1461019c578063715018a6146101be576100e8565b8063037a417c146100ed57806305a37e9a1461011857806311d5c5461461012b575b600080fd5b3480156100f957600080fd5b506101026102b6565b60405161010f9190610a1c565b60405180910390f35b610102610126366004610886565b6102bb565b34801561013757600080fd5b5061014b61014636600461092b565b61032f565b60405161010f9190610a46565b34801561016457600080fd5b5061016d61037f565b60405161010f9190610a54565b34801561018657600080fd5b5061018f610401565b60405161010f9190610a38565b3480156101a857600080fd5b506101bc6101b736600461092b565b610410565b005b3480156101ca57600080fd5b506101bc61041d565b3480156101df57600080fd5b5061018f610478565b3480156101f457600080fd5b506101fd610487565b60405161010f91906109c4565b34801561021657600080fd5b50610102610496565b61010261022d3660046108d3565b6104a7565b34801561023e57600080fd5b506101fd61024d36600461092b565b610512565b34801561025e57600080fd5b5061018f61059b565b34801561027357600080fd5b5061028761028236600461092b565b6105aa565b60405161010f93929190610a2a565b3480156102a257600080fd5b506101bc6102b1366004610842565b6105d7565b600190565b60055460405163cb71253560e01b8152600091600a916001600160a01b039091169063cb712535906102f5908890889088906004016109d2565b600060405180830381600087803b15801561030f57600080fd5b505af1158015610323573d6000803e3d6000fd5b50505050509392505050565b6103376107eb565b506000908152600160208181526040928390208351606081018552815460ff81161515825261010090046001600160a01b031692810192909252909101549181019190915290565b60055460408051633eaaf86b60e01b815290516000926001600160a01b031691633eaaf86b916004808301926020929190829003018186803b1580156103c457600080fd5b505afa1580156103d8573d6000803e3d6000fd5b505050506040513d601f19601f820116820180604052506103fc9190810190610949565b905090565b6005546001600160a01b031681565b61041a81336105f1565b50565b610425610496565b61042e57600080fd5b600080546040516001600160a01b03909116907f8be0079c531659141344cd1fd0a4f28419497f9722a3daafe3b4186f6b6457e0908390a3600080546001600160a01b0319169055565b6004546001600160a01b031681565b6000546001600160a01b031690565b6000546001600160a01b0316331490565b600554604051631211e9e760e21b81526000916001600160a01b031690634847a79c906104da90869086906004016109fa565b600060405180830381600087803b1580156104f457600080fd5b505af1158015610508573d6000803e3d6000fd5b5050505092915050565b600354604051633835054160e01b81526000916001600160a01b031690633835054190610543908590600401610a54565b602060405180830381600087803b15801561055d57600080fd5b505af1158015610571573d6000803e3d6000fd5b505050506040513d601f19601f820116820180604052506105959190810190610868565b92915050565b6003546001600160a01b031681565b6001602081905260009182526040909120805491015460ff82169161010090046001600160a01b03169083565b6105df610496565b6105e857600080fd5b61041a8161077d565b600454600a906001600160a01b031663cb7125358361060f86610512565b846040518463ffffffff1660e01b815260040161062e939291906109d2565b600060405180830381600087803b15801561064857600080fd5b505af115801561065c573d6000803e3d6000fd5b50506003546001600160a01b0316915063693993b2905061067c85610512565b84866040518463ffffffff1660e01b815260040161069c939291906109d2565b602060405180830381600087803b1580156106b657600080fd5b505af11580156106ca573d6000803e3d6000fd5b505050506040513d601f19601f820116820180604052506106ee919081019061090d565b50600360009054906101000a90046001600160a01b03166001600160a01b0316631249c58b6040518163ffffffff1660e01b8152600401602060405180830381600087803b15801561073f57600080fd5b505af1158015610753573d6000803e3d6000fd5b505050506040513d601f19601f82011682018060405250610777919081019061090d565b50505050565b6001600160a01b03811661079057600080fd5b600080546040516001600160a01b03808516939216917f8be0079c531659141344cd1fd0a4f28419497f9722a3daafe3b4186f6b6457e091a3600080546001600160a01b0319166001600160a01b0392909216919091179055565b604080516060810182526000808252602082018190529181019190915290565b803561059581610a8c565b805161059581610a8c565b805161059581610aa0565b803561059581610aa9565b805161059581610aa9565b60006020828403121561085457600080fd5b6000610860848461080b565b949350505050565b60006020828403121561087a57600080fd5b60006108608484610816565b60008060006060848603121561089b57600080fd5b60006108a7868661080b565b93505060206108b88682870161080b565b92505060406108c98682870161082c565b9150509250925092565b600080604083850312156108e657600080fd5b60006108f2858561080b565b92505060206109038582860161082c565b9150509250929050565b60006020828403121561091f57600080fd5b60006108608484610821565b60006020828403121561093d57600080fd5b6000610860848461082c565b60006020828403121561095b57600080fd5b60006108608484610837565b61097081610a62565b82525050565b61097081610a6d565b61097081610a81565b805160608301906109998482610976565b5060208201516109ac6020850182610967565b50604082015161077760408501825b61097081610a7e565b602081016105958284610967565b606081016109e08286610967565b6109ed6020830185610967565b61086060408301846109bb565b60408101610a088285610967565b610a1560208301846109bb565b9392505050565b602081016105958284610976565b606081016109e08286610976565b60208101610595828461097f565b606081016105958284610988565b6020810161059582846109bb565b600061059582610a72565b151590565b6001600160a01b031690565b90565b600061059582610a62565b610a9581610a62565b811461041a57600080fd5b610a9581610a6d565b610a9581610a7e56fea365627a7a723158209f929921f52726b83886b08be309073952065aa2ecc359f37514eef229bef95f6c6578706572696d656e74616cf564736f6c634300050c0040",
  "source": "pragma solidity ^0.5.2;\npragma experimental ABIEncoderV2;\n\nimport \"./TicketFactory.sol\";\n\n// Storage\nimport \"./storage/WtConstants.sol\";\nimport \"./storage/WtStorage.sol\";\n\nimport \"./Erc20TestToken.sol\";\nimport \"./OceanToken.sol\";\n\n\n\ncontract TicketMarket is WtStorage, WtConstants {\n\n    TicketFactory public factory;\n    Erc20TestToken public erc20Token;\n    OceanToken public oceanToken;\n\n    constructor(address _ticketFactoryContract, address _erc20TestTokenContract, address _oceanTokenContract) public {\n        factory = TicketFactory(_ticketFactoryContract);\n        erc20Token = Erc20TestToken(_erc20TestTokenContract);\n        oceanToken = OceanToken(_oceanTokenContract);\n    }\n\n\n    function testFunc() public returns (bool) {\n        return WtConstants.CONFIRMED;\n    }\n\n    // @notice owner address of ERC721 token which is specified\n    // @param _ticketId is tokenId\n    function ownerOfTicket(uint _ticketId) public returns (address) {\n        return factory._ownerOf(_ticketId);\n    }\n    \n\n\n    /// @notice buys a certificate\n    /// @param _ticketId the id of the ticket \n    function buyTicket(uint _ticketId) public {\n        _buyTicket(_ticketId, msg.sender);\n    }\n\n\n\n    function totalSupplyERC20() public view returns (uint256) {\n        return oceanToken._totalSupply();\n    }\n    \n\n    function testTransferFrom(address from, address to, uint256 value) public payable returns(bool) {\n        uint purchasePrice = 10;\n\n        //erc20Token._transferFrom(from, to, value);\n        oceanToken._transferFrom(from, to, value);\n    }\n    \n\n    function testTransfer(address to, uint256 value) public payable returns(bool) {\n        //erc20Token._transferFrom(from, to, value);\n        oceanToken._transfer(to, value);\n    }\n\n\n    function getPurchasableTicket(uint ticketId)\n        public view returns (PurchasableTicket memory)\n    {\n\n        return purchasableTickets[ticketId];\n    }\n\n\n    /**********************\n     * internal functions\n    ***********************/\n\n    function _buyTicket(uint _ticketId, address buyer) internal {\n        //PurchasableTicket memory pTicket = getPurchasableTicket(_ticketId);\n        uint purchasePrice = 10;\n\n        //IERC20 erc20 = IERC20(erc20Token);\n        erc20Token._transferFrom(buyer, ownerOfTicket(_ticketId), purchasePrice);\n        //erc20Token.transferFrom(buyer, factory._ownerOf(_ticketId), purchasePrice);\n        //erc20.transferFrom(buyer, factory.ownerOf(_ticketId), pTicket.PurchasePrice);\n   \n        factory._transferTicketFrom(ownerOfTicket(_ticketId), buyer, _ticketId);\n        //factory.transferFrom(factory.ownerOf(_ticketId), buyer, _ticketId);\n        \n        //_removeTokenAndPrice(_ticketId);\n\n        //unpublishForSale(_ticketId);\n\n        factory.mint();\n    }\n\n}\n",
  "sourcePath": "/Users/unomasanori/projects/DEMO_MVP/Gitcoin-Global-Communities-Hackcathon/walletConnect-ticketing-dapp/contracts/TicketMarket.sol",
  "compiler": {
    "name": "solc",
    "version": "0.5.12+commit.7709ece9.Emscripten.clang"
  },
  "schemaVersion": "3.0.19",
  "updatedAt": "2019-12-10T09:45:46.118Z",
  "networkType": "ethereum",
  "devdoc": {
    "methods": {
      "buyTicket(uint256)": {
        "params": {
          "_ticketId": "the id of the ticket "
        }
      },
      "isOwner()": {
        "return": "true if `msg.sender` is the owner of the contract."
      },
      "owner()": {
        "return": "the address of the owner."
      },
      "renounceOwnership()": {
        "details": "Allows the current owner to relinquish control of the contract."
      },
      "transferOwnership(address)": {
        "details": "Allows the current owner to transfer control of the contract to a newOwner.",
        "params": {
          "newOwner": "The address to transfer ownership to."
        }
      }
    }
  },
  "userdoc": {
    "methods": {
      "buyTicket(uint256)": {
        "notice": "buys a certificate"
      },
      "renounceOwnership()": {
        "notice": "Renouncing to ownership will leave the contract without an owner. It will not be possible to call the functions with the `onlyOwner` modifier anymore."
      }
    }
  }
}