{
  "contractName": "TicketMarket",
  "abi": [
    {
      "inputs": [
        {
          "internalType": "address",
          "name": "_ticketFactoryContract",
          "type": "address"
        },
        {
          "internalType": "address",
          "name": "_erc20TestTokenContract",
          "type": "address"
        },
        {
          "internalType": "address",
          "name": "_oceanTokenContract",
          "type": "address"
        }
      ],
      "payable": false,
      "stateMutability": "nonpayable",
      "type": "constructor"
    },
    {
      "anonymous": false,
      "inputs": [
        {
          "indexed": false,
          "internalType": "uint256",
          "name": "exampleId",
          "type": "uint256"
        },
        {
          "indexed": false,
          "internalType": "string",
          "name": "exampleName",
          "type": "string"
        },
        {
          "indexed": false,
          "internalType": "address",
          "name": "exampleAddr",
          "type": "address"
        }
      ],
      "name": "ExampleEvent",
      "type": "event"
    },
    {
      "anonymous": false,
      "inputs": [
        {
          "indexed": true,
          "internalType": "uint256",
          "name": "_ticketId",
          "type": "uint256"
        },
        {
          "indexed": false,
          "internalType": "uint256",
          "name": "_price",
          "type": "uint256"
        },
        {
          "indexed": false,
          "internalType": "address",
          "name": "_token",
          "type": "address"
        }
      ],
      "name": "LogPublishForSale",
      "type": "event"
    },
    {
      "anonymous": false,
      "inputs": [
        {
          "indexed": true,
          "internalType": "address",
          "name": "previousOwner",
          "type": "address"
        },
        {
          "indexed": true,
          "internalType": "address",
          "name": "newOwner",
          "type": "address"
        }
      ],
      "name": "OwnershipTransferred",
      "type": "event"
    },
    {
      "constant": true,
      "inputs": [],
      "name": "erc20Token",
      "outputs": [
        {
          "internalType": "contract Erc20TestToken",
          "name": "",
          "type": "address"
        }
      ],
      "payable": false,
      "stateMutability": "view",
      "type": "function"
    },
    {
      "constant": true,
      "inputs": [],
      "name": "factory",
      "outputs": [
        {
          "internalType": "contract TicketFactory",
          "name": "",
          "type": "address"
        }
      ],
      "payable": false,
      "stateMutability": "view",
      "type": "function"
    },
    {
      "constant": true,
      "inputs": [],
      "name": "isOwner",
      "outputs": [
        {
          "internalType": "bool",
          "name": "",
          "type": "bool"
        }
      ],
      "payable": false,
      "stateMutability": "view",
      "type": "function"
    },
    {
      "constant": true,
      "inputs": [],
      "name": "oceanToken",
      "outputs": [
        {
          "internalType": "contract OceanToken",
          "name": "",
          "type": "address"
        }
      ],
      "payable": false,
      "stateMutability": "view",
      "type": "function"
    },
    {
      "constant": true,
      "inputs": [],
      "name": "owner",
      "outputs": [
        {
          "internalType": "address",
          "name": "",
          "type": "address"
        }
      ],
      "payable": false,
      "stateMutability": "view",
      "type": "function"
    },
    {
      "constant": true,
      "inputs": [
        {
          "internalType": "uint256",
          "name": "",
          "type": "uint256"
        }
      ],
      "name": "purchasableTickets",
      "outputs": [
        {
          "internalType": "bool",
          "name": "forSale",
          "type": "bool"
        },
        {
          "internalType": "address",
          "name": "acceptedToken",
          "type": "address"
        },
        {
          "internalType": "uint256",
          "name": "PurchasePrice",
          "type": "uint256"
        }
      ],
      "payable": false,
      "stateMutability": "view",
      "type": "function"
    },
    {
      "constant": false,
      "inputs": [],
      "name": "renounceOwnership",
      "outputs": [],
      "payable": false,
      "stateMutability": "nonpayable",
      "type": "function"
    },
    {
      "constant": false,
      "inputs": [
        {
          "internalType": "address",
          "name": "newOwner",
          "type": "address"
        }
      ],
      "name": "transferOwnership",
      "outputs": [],
      "payable": false,
      "stateMutability": "nonpayable",
      "type": "function"
    },
    {
      "constant": false,
      "inputs": [],
      "name": "testFunc",
      "outputs": [
        {
          "internalType": "bool",
          "name": "",
          "type": "bool"
        }
      ],
      "payable": false,
      "stateMutability": "nonpayable",
      "type": "function"
    },
    {
      "constant": false,
      "inputs": [
        {
          "internalType": "uint256",
          "name": "_ticketId",
          "type": "uint256"
        }
      ],
      "name": "ownerOfTicket",
      "outputs": [
        {
          "internalType": "address",
          "name": "",
          "type": "address"
        }
      ],
      "payable": false,
      "stateMutability": "nonpayable",
      "type": "function"
    },
    {
      "constant": false,
      "inputs": [
        {
          "internalType": "uint256",
          "name": "_ticketId",
          "type": "uint256"
        }
      ],
      "name": "buyTicket",
      "outputs": [],
      "payable": false,
      "stateMutability": "nonpayable",
      "type": "function"
    },
    {
      "constant": false,
      "inputs": [
        {
          "internalType": "address",
          "name": "from",
          "type": "address"
        },
        {
          "internalType": "address",
          "name": "to",
          "type": "address"
        },
        {
          "internalType": "uint256",
          "name": "value",
          "type": "uint256"
        }
      ],
      "name": "testTransferFrom",
      "outputs": [
        {
          "internalType": "bool",
          "name": "",
          "type": "bool"
        }
      ],
      "payable": true,
      "stateMutability": "payable",
      "type": "function"
    },
    {
      "constant": false,
      "inputs": [
        {
          "internalType": "address",
          "name": "to",
          "type": "address"
        },
        {
          "internalType": "uint256",
          "name": "value",
          "type": "uint256"
        }
      ],
      "name": "testTransfer",
      "outputs": [
        {
          "internalType": "bool",
          "name": "",
          "type": "bool"
        }
      ],
      "payable": true,
      "stateMutability": "payable",
      "type": "function"
    },
    {
      "constant": true,
      "inputs": [
        {
          "internalType": "uint256",
          "name": "ticketId",
          "type": "uint256"
        }
      ],
      "name": "getPurchasableTicket",
      "outputs": [
        {
          "components": [
            {
              "internalType": "bool",
              "name": "forSale",
              "type": "bool"
            },
            {
              "internalType": "address",
              "name": "acceptedToken",
              "type": "address"
            },
            {
              "internalType": "uint256",
              "name": "PurchasePrice",
              "type": "uint256"
            }
          ],
          "internalType": "struct WtObjects.PurchasableTicket",
          "name": "",
          "type": "tuple"
        }
      ],
      "payable": false,
      "stateMutability": "view",
      "type": "function"
    }
  ],
  "bytecode": "0x608060405234801561001057600080fd5b50604051610b6c380380610b6c83398101604081905261002f916100cb565b600080546001600160a01b03191633178082556040516001600160a01b039190911691907f8be0079c531659141344cd1fd0a4f28419497f9722a3daafe3b4186f6b6457e0908290a3600380546001600160a01b039485166001600160a01b031991821617909155600480549385169382169390931790925560058054919093169116179055610140565b80516100c581610129565b92915050565b6000806000606084860312156100e057600080fd5b60006100ec86866100ba565b93505060206100fd868287016100ba565b925050604061010e868287016100ba565b9150509250925092565b60006001600160a01b0382166100c5565b61013281610118565b811461013d57600080fd5b50565b610a1d8061014f6000396000f3fe6080604052600436106100dd5760003560e01c80638da5cb5b1161007f578063c0860c2c11610059578063c0860c2c14610205578063c45a015514610225578063d544bce41461023a578063f2fde38b14610269576100dd565b80638da5cb5b146101bb5780638f32d59b146101dd578063a0e70267146101f2576100dd565b8063244bb7f0116100bb578063244bb7f01461014d57806367dd74ca1461016f578063715018a6146101915780638a13eea7146101a6576100dd565b8063037a417c146100e257806305a37e9a1461010d57806311d5c54614610120575b600080fd5b3480156100ee57600080fd5b506100f7610289565b6040516101049190610944565b60405180910390f35b6100f761011b3660046107cc565b61028e565b34801561012c57600080fd5b5061014061013b366004610871565b610302565b604051610104919061096e565b34801561015957600080fd5b50610162610352565b6040516101049190610960565b34801561017b57600080fd5b5061018f61018a366004610871565b610361565b005b34801561019d57600080fd5b5061018f61036e565b3480156101b257600080fd5b506101626103c9565b3480156101c757600080fd5b506101d06103d8565b60405161010491906108ec565b3480156101e957600080fd5b506100f76103e7565b6100f7610200366004610819565b6103f8565b34801561021157600080fd5b506101d0610220366004610871565b610463565b34801561023157600080fd5b506101626104ec565b34801561024657600080fd5b5061025a610255366004610871565b6104fb565b60405161010493929190610952565b34801561027557600080fd5b5061018f610284366004610788565b610528565b600190565b60055460405163cb71253560e01b8152600091600a916001600160a01b039091169063cb712535906102c8908890889088906004016108fa565b600060405180830381600087803b1580156102e257600080fd5b505af11580156102f6573d6000803e3d6000fd5b50505050509392505050565b61030a61073c565b506000908152600160208181526040928390208351606081018552815460ff81161515825261010090046001600160a01b031692810192909252909101549181019190915290565b6005546001600160a01b031681565b61036b8133610542565b50565b6103766103e7565b61037f57600080fd5b600080546040516001600160a01b03909116907f8be0079c531659141344cd1fd0a4f28419497f9722a3daafe3b4186f6b6457e0908390a3600080546001600160a01b0319169055565b6004546001600160a01b031681565b6000546001600160a01b031690565b6000546001600160a01b0316331490565b600554604051631211e9e760e21b81526000916001600160a01b031690634847a79c9061042b9086908690600401610922565b600060405180830381600087803b15801561044557600080fd5b505af1158015610459573d6000803e3d6000fd5b5050505092915050565b600354604051633835054160e01b81526000916001600160a01b03169063383505419061049490859060040161097c565b602060405180830381600087803b1580156104ae57600080fd5b505af11580156104c2573d6000803e3d6000fd5b505050506040513d601f19601f820116820180604052506104e691908101906107ae565b92915050565b6003546001600160a01b031681565b6001602081905260009182526040909120805491015460ff82169161010090046001600160a01b03169083565b6105306103e7565b61053957600080fd5b61036b816106ce565b600454600a906001600160a01b031663cb7125358361056086610463565b846040518463ffffffff1660e01b815260040161057f939291906108fa565b600060405180830381600087803b15801561059957600080fd5b505af11580156105ad573d6000803e3d6000fd5b50506003546001600160a01b0316915063693993b290506105cd85610463565b84866040518463ffffffff1660e01b81526004016105ed939291906108fa565b602060405180830381600087803b15801561060757600080fd5b505af115801561061b573d6000803e3d6000fd5b505050506040513d601f19601f8201168201806040525061063f9190810190610853565b50600360009054906101000a90046001600160a01b03166001600160a01b0316631249c58b6040518163ffffffff1660e01b8152600401602060405180830381600087803b15801561069057600080fd5b505af11580156106a4573d6000803e3d6000fd5b505050506040513d601f19601f820116820180604052506106c89190810190610853565b50505050565b6001600160a01b0381166106e157600080fd5b600080546040516001600160a01b03808516939216917f8be0079c531659141344cd1fd0a4f28419497f9722a3daafe3b4186f6b6457e091a3600080546001600160a01b0319166001600160a01b0392909216919091179055565b604080516060810182526000808252602082018190529181019190915290565b80356104e6816109b4565b80516104e6816109b4565b80516104e6816109c8565b80356104e6816109d1565b60006020828403121561079a57600080fd5b60006107a6848461075c565b949350505050565b6000602082840312156107c057600080fd5b60006107a68484610767565b6000806000606084860312156107e157600080fd5b60006107ed868661075c565b93505060206107fe8682870161075c565b925050604061080f8682870161077d565b9150509250925092565b6000806040838503121561082c57600080fd5b6000610838858561075c565b92505060206108498582860161077d565b9150509250929050565b60006020828403121561086557600080fd5b60006107a68484610772565b60006020828403121561088357600080fd5b60006107a6848461077d565b6108988161098a565b82525050565b61089881610995565b610898816109a9565b805160608301906108c1848261089e565b5060208201516108d4602085018261088f565b5060408201516106c860408501825b610898816109a6565b602081016104e6828461088f565b60608101610908828661088f565b610915602083018561088f565b6107a660408301846108e3565b60408101610930828561088f565b61093d60208301846108e3565b9392505050565b602081016104e6828461089e565b60608101610908828661089e565b602081016104e682846108a7565b606081016104e682846108b0565b602081016104e682846108e3565b60006104e68261099a565b151590565b6001600160a01b031690565b90565b60006104e68261098a565b6109bd8161098a565b811461036b57600080fd5b6109bd81610995565b6109bd816109a656fea365627a7a7231582017289ed79f9036441d257bdcad65a681538b259f2104489df265f97e1199acd26c6578706572696d656e74616cf564736f6c634300050c0040",
  "source": "pragma solidity ^0.5.2;\npragma experimental ABIEncoderV2;\n\nimport \"./TicketFactory.sol\";\n\n// Storage\nimport \"./storage/WtConstants.sol\";\nimport \"./storage/WtStorage.sol\";\n\nimport \"./Erc20TestToken.sol\";\nimport \"./OceanToken.sol\";\n\n\n\ncontract TicketMarket is WtStorage, WtConstants {\n\n    TicketFactory public factory;\n    Erc20TestToken public erc20Token;\n    OceanToken public oceanToken;\n\n    constructor(address _ticketFactoryContract, address _erc20TestTokenContract, address _oceanTokenContract) public {\n        factory = TicketFactory(_ticketFactoryContract);\n        erc20Token = Erc20TestToken(_erc20TestTokenContract);\n        oceanToken = OceanToken(_oceanTokenContract);\n    }\n\n\n    function testFunc() public returns (bool) {\n        return WtConstants.CONFIRMED;\n    }\n\n    // @notice owner address of ERC721 token which is specified\n    // @param _ticketId is tokenId\n    function ownerOfTicket(uint _ticketId) public returns (address) {\n        return factory._ownerOf(_ticketId);\n    }\n    \n\n\n    /// @notice buys a certificate\n    /// @param _ticketId the id of the ticket \n    function buyTicket(uint _ticketId) public {\n        _buyTicket(_ticketId, msg.sender);\n    }\n\n\n    function testTransferFrom(address from, address to, uint256 value) public payable returns(bool) {\n        uint purchasePrice = 10;\n\n        //erc20Token._transferFrom(from, to, value);\n        oceanToken._transferFrom(from, to, value);\n    }\n    \n\n    function testTransfer(address to, uint256 value) public payable returns(bool) {\n        //erc20Token._transferFrom(from, to, value);\n        oceanToken._transfer(to, value);\n    }\n\n\n    function getPurchasableTicket(uint ticketId)\n        public view returns (PurchasableTicket memory)\n    {\n\n        return purchasableTickets[ticketId];\n    }\n\n\n    /**********************\n     * internal functions\n    ***********************/\n\n    function _buyTicket(uint _ticketId, address buyer) internal {\n        //PurchasableTicket memory pTicket = getPurchasableTicket(_ticketId);\n        uint purchasePrice = 10;\n\n        //IERC20 erc20 = IERC20(erc20Token);\n        erc20Token._transferFrom(buyer, ownerOfTicket(_ticketId), purchasePrice);\n        //erc20Token.transferFrom(buyer, factory._ownerOf(_ticketId), purchasePrice);\n        //erc20.transferFrom(buyer, factory.ownerOf(_ticketId), pTicket.PurchasePrice);\n   \n        factory._transferTicketFrom(ownerOfTicket(_ticketId), buyer, _ticketId);\n        //factory.transferFrom(factory.ownerOf(_ticketId), buyer, _ticketId);\n        \n        //_removeTokenAndPrice(_ticketId);\n\n        //unpublishForSale(_ticketId);\n\n        factory.mint();\n    }\n\n}\n",
  "sourcePath": "/Users/unomasanori/projects/DEMO_MVP/Gitcoin-Global-Communities-Hackcathon/walletConnect-ticketing-dapp/contracts/TicketMarket.sol",
  "compiler": {
    "name": "solc",
    "version": "0.5.12+commit.7709ece9.Emscripten.clang"
  },
  "schemaVersion": "3.0.19",
  "updatedAt": "2019-12-10T09:28:52.543Z",
  "devdoc": {
    "methods": {
      "buyTicket(uint256)": {
        "params": {
          "_ticketId": "the id of the ticket "
        }
      },
      "isOwner()": {
        "return": "true if `msg.sender` is the owner of the contract."
      },
      "owner()": {
        "return": "the address of the owner."
      },
      "renounceOwnership()": {
        "details": "Allows the current owner to relinquish control of the contract."
      },
      "transferOwnership(address)": {
        "details": "Allows the current owner to transfer control of the contract to a newOwner.",
        "params": {
          "newOwner": "The address to transfer ownership to."
        }
      }
    }
  },
  "userdoc": {
    "methods": {
      "buyTicket(uint256)": {
        "notice": "buys a certificate"
      },
      "renounceOwnership()": {
        "notice": "Renouncing to ownership will leave the contract without an owner. It will not be possible to call the functions with the `onlyOwner` modifier anymore."
      }
    }
  }
}